{
  "_format": "hh-sol-artifact-1",
  "contractName": "CustomNFT",
  "sourceName": "contracts/CustomNFT.sol",
  "abi": [
    {
      "inputs": [
        {
          "internalType": "string",
          "name": "name",
          "type": "string"
        },
        {
          "internalType": "string",
          "name": "symbol",
          "type": "string"
        },
        {
          "internalType": "string",
          "name": "baseURI",
          "type": "string"
        },
        {
          "internalType": "string",
          "name": "_description",
          "type": "string"
        },
        {
          "internalType": "address",
          "name": "royaltyReceiver",
          "type": "address"
        },
        {
          "internalType": "uint96",
          "name": "royaltyFeeBps",
          "type": "uint96"
        }
      ],
      "stateMutability": "nonpayable",
      "type": "constructor"
    },
    {
      "inputs": [],
      "name": "ERC721EnumerableForbiddenBatchMint",
      "type": "error"
    },
    {
      "inputs": [
        {
          "internalType": "address",
          "name": "sender",
          "type": "address"
        },
        {
          "internalType": "uint256",
          "name": "tokenId",
          "type": "uint256"
        },
        {
          "internalType": "address",
          "name": "owner",
          "type": "address"
        }
      ],
      "name": "ERC721IncorrectOwner",
      "type": "error"
    },
    {
      "inputs": [
        {
          "internalType": "address",
          "name": "operator",
          "type": "address"
        },
        {
          "internalType": "uint256",
          "name": "tokenId",
          "type": "uint256"
        }
      ],
      "name": "ERC721InsufficientApproval",
      "type": "error"
    },
    {
      "inputs": [
        {
          "internalType": "address",
          "name": "approver",
          "type": "address"
        }
      ],
      "name": "ERC721InvalidApprover",
      "type": "error"
    },
    {
      "inputs": [
        {
          "internalType": "address",
          "name": "operator",
          "type": "address"
        }
      ],
      "name": "ERC721InvalidOperator",
      "type": "error"
    },
    {
      "inputs": [
        {
          "internalType": "address",
          "name": "owner",
          "type": "address"
        }
      ],
      "name": "ERC721InvalidOwner",
      "type": "error"
    },
    {
      "inputs": [
        {
          "internalType": "address",
          "name": "receiver",
          "type": "address"
        }
      ],
      "name": "ERC721InvalidReceiver",
      "type": "error"
    },
    {
      "inputs": [
        {
          "internalType": "address",
          "name": "sender",
          "type": "address"
        }
      ],
      "name": "ERC721InvalidSender",
      "type": "error"
    },
    {
      "inputs": [
        {
          "internalType": "uint256",
          "name": "tokenId",
          "type": "uint256"
        }
      ],
      "name": "ERC721NonexistentToken",
      "type": "error"
    },
    {
      "inputs": [
        {
          "internalType": "address",
          "name": "owner",
          "type": "address"
        },
        {
          "internalType": "uint256",
          "name": "index",
          "type": "uint256"
        }
      ],
      "name": "ERC721OutOfBoundsIndex",
      "type": "error"
    },
    {
      "inputs": [
        {
          "internalType": "address",
          "name": "owner",
          "type": "address"
        }
      ],
      "name": "OwnableInvalidOwner",
      "type": "error"
    },
    {
      "inputs": [
        {
          "internalType": "address",
          "name": "account",
          "type": "address"
        }
      ],
      "name": "OwnableUnauthorizedAccount",
      "type": "error"
    },
    {
      "anonymous": false,
      "inputs": [
        {
          "indexed": true,
          "internalType": "address",
          "name": "owner",
          "type": "address"
        },
        {
          "indexed": true,
          "internalType": "address",
          "name": "approved",
          "type": "address"
        },
        {
          "indexed": true,
          "internalType": "uint256",
          "name": "tokenId",
          "type": "uint256"
        }
      ],
      "name": "Approval",
      "type": "event"
    },
    {
      "anonymous": false,
      "inputs": [
        {
          "indexed": true,
          "internalType": "address",
          "name": "owner",
          "type": "address"
        },
        {
          "indexed": true,
          "internalType": "address",
          "name": "operator",
          "type": "address"
        },
        {
          "indexed": false,
          "internalType": "bool",
          "name": "approved",
          "type": "bool"
        }
      ],
      "name": "ApprovalForAll",
      "type": "event"
    },
    {
      "anonymous": false,
      "inputs": [
        {
          "indexed": false,
          "internalType": "uint256",
          "name": "_fromTokenId",
          "type": "uint256"
        },
        {
          "indexed": false,
          "internalType": "uint256",
          "name": "_toTokenId",
          "type": "uint256"
        }
      ],
      "name": "BatchMetadataUpdate",
      "type": "event"
    },
    {
      "anonymous": false,
      "inputs": [
        {
          "indexed": false,
          "internalType": "uint256",
          "name": "_tokenId",
          "type": "uint256"
        }
      ],
      "name": "MetadataUpdate",
      "type": "event"
    },
    {
      "anonymous": false,
      "inputs": [
        {
          "indexed": true,
          "internalType": "address",
          "name": "to",
          "type": "address"
        },
        {
          "indexed": true,
          "internalType": "uint256",
          "name": "tokenId",
          "type": "uint256"
        },
        {
          "indexed": false,
          "internalType": "string",
          "name": "tokenURI",
          "type": "string"
        }
      ],
      "name": "NFTMinted",
      "type": "event"
    },
    {
      "anonymous": false,
      "inputs": [
        {
          "indexed": true,
          "internalType": "address",
          "name": "previousOwner",
          "type": "address"
        },
        {
          "indexed": true,
          "internalType": "address",
          "name": "newOwner",
          "type": "address"
        }
      ],
      "name": "OwnershipTransferred",
      "type": "event"
    },
    {
      "anonymous": false,
      "inputs": [
        {
          "indexed": true,
          "internalType": "address",
          "name": "receiver",
          "type": "address"
        },
        {
          "indexed": false,
          "internalType": "uint96",
          "name": "feeBasisPoints",
          "type": "uint96"
        }
      ],
      "name": "RoyaltyUpdated",
      "type": "event"
    },
    {
      "anonymous": false,
      "inputs": [
        {
          "indexed": true,
          "internalType": "address",
          "name": "from",
          "type": "address"
        },
        {
          "indexed": true,
          "internalType": "address",
          "name": "to",
          "type": "address"
        },
        {
          "indexed": true,
          "internalType": "uint256",
          "name": "tokenId",
          "type": "uint256"
        }
      ],
      "name": "Transfer",
      "type": "event"
    },
    {
      "inputs": [
        {
          "internalType": "address",
          "name": "to",
          "type": "address"
        },
        {
          "internalType": "uint256",
          "name": "tokenId",
          "type": "uint256"
        }
      ],
      "name": "approve",
      "outputs": [],
      "stateMutability": "nonpayable",
      "type": "function"
    },
    {
      "inputs": [
        {
          "internalType": "address",
          "name": "owner",
          "type": "address"
        }
      ],
      "name": "balanceOf",
      "outputs": [
        {
          "internalType": "uint256",
          "name": "",
          "type": "uint256"
        }
      ],
      "stateMutability": "view",
      "type": "function"
    },
    {
      "inputs": [
        {
          "internalType": "address[]",
          "name": "recipients",
          "type": "address[]"
        },
        {
          "internalType": "string[]",
          "name": "tokenURIs",
          "type": "string[]"
        }
      ],
      "name": "batchMint",
      "outputs": [],
      "stateMutability": "nonpayable",
      "type": "function"
    },
    {
      "inputs": [
        {
          "internalType": "uint256",
          "name": "tokenId",
          "type": "uint256"
        }
      ],
      "name": "burn",
      "outputs": [],
      "stateMutability": "nonpayable",
      "type": "function"
    },
    {
      "inputs": [],
      "name": "description",
      "outputs": [
        {
          "internalType": "string",
          "name": "",
          "type": "string"
        }
      ],
      "stateMutability": "view",
      "type": "function"
    },
    {
      "inputs": [],
      "name": "externalLink",
      "outputs": [
        {
          "internalType": "string",
          "name": "",
          "type": "string"
        }
      ],
      "stateMutability": "view",
      "type": "function"
    },
    {
      "inputs": [
        {
          "internalType": "uint256",
          "name": "tokenId",
          "type": "uint256"
        }
      ],
      "name": "getApproved",
      "outputs": [
        {
          "internalType": "address",
          "name": "",
          "type": "address"
        }
      ],
      "stateMutability": "view",
      "type": "function"
    },
    {
      "inputs": [],
      "name": "getCollectionInfo",
      "outputs": [
        {
          "internalType": "string",
          "name": "contractName",
          "type": "string"
        },
        {
          "internalType": "string",
          "name": "contractSymbol",
          "type": "string"
        },
        {
          "internalType": "string",
          "name": "desc",
          "type": "string"
        },
        {
          "internalType": "uint256",
          "name": "supply",
          "type": "uint256"
        },
        {
          "internalType": "address",
          "name": "contractOwner",
          "type": "address"
        },
        {
          "internalType": "address",
          "name": "royaltyReceiver",
          "type": "address"
        },
        {
          "internalType": "uint96",
          "name": "royaltyFee",
          "type": "uint96"
        }
      ],
      "stateMutability": "view",
      "type": "function"
    },
    {
      "inputs": [],
      "name": "getNextTokenId",
      "outputs": [
        {
          "internalType": "uint256",
          "name": "",
          "type": "uint256"
        }
      ],
      "stateMutability": "view",
      "type": "function"
    },
    {
      "inputs": [
        {
          "internalType": "address",
          "name": "owner",
          "type": "address"
        },
        {
          "internalType": "address",
          "name": "operator",
          "type": "address"
        }
      ],
      "name": "isApprovedForAll",
      "outputs": [
        {
          "internalType": "bool",
          "name": "",
          "type": "bool"
        }
      ],
      "stateMutability": "view",
      "type": "function"
    },
    {
      "inputs": [
        {
          "internalType": "address",
          "name": "to",
          "type": "address"
        },
        {
          "internalType": "string",
          "name": "uri",
          "type": "string"
        }
      ],
      "name": "mint",
      "outputs": [],
      "stateMutability": "nonpayable",
      "type": "function"
    },
    {
      "inputs": [
        {
          "internalType": "address",
          "name": "to",
          "type": "address"
        },
        {
          "internalType": "uint256",
          "name": "tokenId",
          "type": "uint256"
        },
        {
          "internalType": "string",
          "name": "uri",
          "type": "string"
        }
      ],
      "name": "mintWithId",
      "outputs": [],
      "stateMutability": "nonpayable",
      "type": "function"
    },
    {
      "inputs": [],
      "name": "name",
      "outputs": [
        {
          "internalType": "string",
          "name": "",
          "type": "string"
        }
      ],
      "stateMutability": "view",
      "type": "function"
    },
    {
      "inputs": [],
      "name": "owner",
      "outputs": [
        {
          "internalType": "address",
          "name": "",
          "type": "address"
        }
      ],
      "stateMutability": "view",
      "type": "function"
    },
    {
      "inputs": [
        {
          "internalType": "uint256",
          "name": "tokenId",
          "type": "uint256"
        }
      ],
      "name": "ownerOf",
      "outputs": [
        {
          "internalType": "address",
          "name": "",
          "type": "address"
        }
      ],
      "stateMutability": "view",
      "type": "function"
    },
    {
      "inputs": [],
      "name": "renounceOwnership",
      "outputs": [],
      "stateMutability": "nonpayable",
      "type": "function"
    },
    {
      "inputs": [
        {
          "internalType": "uint256",
          "name": "",
          "type": "uint256"
        },
        {
          "internalType": "uint256",
          "name": "salePrice",
          "type": "uint256"
        }
      ],
      "name": "royaltyInfo",
      "outputs": [
        {
          "internalType": "address",
          "name": "",
          "type": "address"
        },
        {
          "internalType": "uint256",
          "name": "",
          "type": "uint256"
        }
      ],
      "stateMutability": "view",
      "type": "function"
    },
    {
      "inputs": [
        {
          "internalType": "address",
          "name": "from",
          "type": "address"
        },
        {
          "internalType": "address",
          "name": "to",
          "type": "address"
        },
        {
          "internalType": "uint256",
          "name": "tokenId",
          "type": "uint256"
        }
      ],
      "name": "safeTransferFrom",
      "outputs": [],
      "stateMutability": "nonpayable",
      "type": "function"
    },
    {
      "inputs": [
        {
          "internalType": "address",
          "name": "from",
          "type": "address"
        },
        {
          "internalType": "address",
          "name": "to",
          "type": "address"
        },
        {
          "internalType": "uint256",
          "name": "tokenId",
          "type": "uint256"
        },
        {
          "internalType": "bytes",
          "name": "data",
          "type": "bytes"
        }
      ],
      "name": "safeTransferFrom",
      "outputs": [],
      "stateMutability": "nonpayable",
      "type": "function"
    },
    {
      "inputs": [
        {
          "internalType": "address",
          "name": "operator",
          "type": "address"
        },
        {
          "internalType": "bool",
          "name": "approved",
          "type": "bool"
        }
      ],
      "name": "setApprovalForAll",
      "outputs": [],
      "stateMutability": "nonpayable",
      "type": "function"
    },
    {
      "inputs": [
        {
          "internalType": "string",
          "name": "baseURI",
          "type": "string"
        }
      ],
      "name": "setBaseURI",
      "outputs": [],
      "stateMutability": "nonpayable",
      "type": "function"
    },
    {
      "inputs": [
        {
          "internalType": "string",
          "name": "_description",
          "type": "string"
        }
      ],
      "name": "setDescription",
      "outputs": [],
      "stateMutability": "nonpayable",
      "type": "function"
    },
    {
      "inputs": [
        {
          "internalType": "string",
          "name": "_externalLink",
          "type": "string"
        }
      ],
      "name": "setExternalLink",
      "outputs": [],
      "stateMutability": "nonpayable",
      "type": "function"
    },
    {
      "inputs": [
        {
          "internalType": "address",
          "name": "receiver",
          "type": "address"
        },
        {
          "internalType": "uint96",
          "name": "feeBasisPoints",
          "type": "uint96"
        }
      ],
      "name": "setRoyaltyInfo",
      "outputs": [],
      "stateMutability": "nonpayable",
      "type": "function"
    },
    {
      "inputs": [
        {
          "internalType": "bytes4",
          "name": "interfaceId",
          "type": "bytes4"
        }
      ],
      "name": "supportsInterface",
      "outputs": [
        {
          "internalType": "bool",
          "name": "",
          "type": "bool"
        }
      ],
      "stateMutability": "view",
      "type": "function"
    },
    {
      "inputs": [],
      "name": "symbol",
      "outputs": [
        {
          "internalType": "string",
          "name": "",
          "type": "string"
        }
      ],
      "stateMutability": "view",
      "type": "function"
    },
    {
      "inputs": [
        {
          "internalType": "uint256",
          "name": "index",
          "type": "uint256"
        }
      ],
      "name": "tokenByIndex",
      "outputs": [
        {
          "internalType": "uint256",
          "name": "",
          "type": "uint256"
        }
      ],
      "stateMutability": "view",
      "type": "function"
    },
    {
      "inputs": [
        {
          "internalType": "address",
          "name": "owner",
          "type": "address"
        },
        {
          "internalType": "uint256",
          "name": "index",
          "type": "uint256"
        }
      ],
      "name": "tokenOfOwnerByIndex",
      "outputs": [
        {
          "internalType": "uint256",
          "name": "",
          "type": "uint256"
        }
      ],
      "stateMutability": "view",
      "type": "function"
    },
    {
      "inputs": [
        {
          "internalType": "uint256",
          "name": "tokenId",
          "type": "uint256"
        }
      ],
      "name": "tokenURI",
      "outputs": [
        {
          "internalType": "string",
          "name": "",
          "type": "string"
        }
      ],
      "stateMutability": "view",
      "type": "function"
    },
    {
      "inputs": [
        {
          "internalType": "address",
          "name": "owner",
          "type": "address"
        }
      ],
      "name": "tokensOfOwner",
      "outputs": [
        {
          "internalType": "uint256[]",
          "name": "",
          "type": "uint256[]"
        }
      ],
      "stateMutability": "view",
      "type": "function"
    },
    {
      "inputs": [],
      "name": "totalSupply",
      "outputs": [
        {
          "internalType": "uint256",
          "name": "",
          "type": "uint256"
        }
      ],
      "stateMutability": "view",
      "type": "function"
    },
    {
      "inputs": [
        {
          "internalType": "address",
          "name": "from",
          "type": "address"
        },
        {
          "internalType": "address",
          "name": "to",
          "type": "address"
        },
        {
          "internalType": "uint256",
          "name": "tokenId",
          "type": "uint256"
        }
      ],
      "name": "transferFrom",
      "outputs": [],
      "stateMutability": "nonpayable",
      "type": "function"
    },
    {
      "inputs": [
        {
          "internalType": "address",
          "name": "newOwner",
          "type": "address"
        }
      ],
      "name": "transferOwnership",
      "outputs": [],
      "stateMutability": "nonpayable",
      "type": "function"
    }
  ],
  "bytecode": "0x60806040523480156200001157600080fd5b506040516200497d3803806200497d833981810160405281019062000037919062000498565b33868681600090816200004b9190620007fb565b5080600190816200005d9190620007fb565b505050600073ffffffffffffffffffffffffffffffffffffffff168173ffffffffffffffffffffffffffffffffffffffff1603620000d55760006040517f1e4fbdf7000000000000000000000000000000000000000000000000000000008152600401620000cc9190620008f3565b60405180910390fd5b620000e6816200019160201b60201c565b5083600d9081620000f89190620007fb565b5082600f90816200010a9190620007fb565b5081600e60006101000a81548173ffffffffffffffffffffffffffffffffffffffff021916908373ffffffffffffffffffffffffffffffffffffffff16021790555080600e60146101000a8154816bffffffffffffffffffffffff02191690836bffffffffffffffffffffffff1602179055506001600c8190555050505050505062000910565b6000600b60009054906101000a900473ffffffffffffffffffffffffffffffffffffffff16905081600b60006101000a81548173ffffffffffffffffffffffffffffffffffffffff021916908373ffffffffffffffffffffffffffffffffffffffff1602179055508173ffffffffffffffffffffffffffffffffffffffff168173ffffffffffffffffffffffffffffffffffffffff167f8be0079c531659141344cd1fd0a4f28419497f9722a3daafe3b4186f6b6457e060405160405180910390a35050565b6000604051905090565b600080fd5b600080fd5b600080fd5b600080fd5b6000601f19601f8301169050919050565b7f4e487b7100000000000000000000000000000000000000000000000000000000600052604160045260246000fd5b620002c08262000275565b810181811067ffffffffffffffff82111715620002e257620002e162000286565b5b80604052505050565b6000620002f762000257565b9050620003058282620002b5565b919050565b600067ffffffffffffffff82111562000328576200032762000286565b5b620003338262000275565b9050602081019050919050565b60005b838110156200036057808201518184015260208101905062000343565b60008484015250505050565b6000620003836200037d846200030a565b620002eb565b905082815260208101848484011115620003a257620003a162000270565b5b620003af84828562000340565b509392505050565b600082601f830112620003cf57620003ce6200026b565b5b8151620003e18482602086016200036c565b91505092915050565b600073ffffffffffffffffffffffffffffffffffffffff82169050919050565b60006200041782620003ea565b9050919050565b62000429816200040a565b81146200043557600080fd5b50565b60008151905062000449816200041e565b92915050565b60006bffffffffffffffffffffffff82169050919050565b62000472816200044f565b81146200047e57600080fd5b50565b600081519050620004928162000467565b92915050565b60008060008060008060c08789031215620004b857620004b762000261565b5b600087015167ffffffffffffffff811115620004d957620004d862000266565b5b620004e789828a01620003b7565b965050602087015167ffffffffffffffff8111156200050b576200050a62000266565b5b6200051989828a01620003b7565b955050604087015167ffffffffffffffff8111156200053d576200053c62000266565b5b6200054b89828a01620003b7565b945050606087015167ffffffffffffffff8111156200056f576200056e62000266565b5b6200057d89828a01620003b7565b93505060806200059089828a0162000438565b92505060a0620005a389828a0162000481565b9150509295509295509295565b600081519050919050565b7f4e487b7100000000000000000000000000000000000000000000000000000000600052602260045260246000fd5b600060028204905060018216806200060357607f821691505b602082108103620006195762000618620005bb565b5b50919050565b60008190508160005260206000209050919050565b60006020601f8301049050919050565b600082821b905092915050565b600060088302620006837fffffffffffffffffffffffffffffffffffffffffffffffffffffffffffffffff8262000644565b6200068f868362000644565b95508019841693508086168417925050509392505050565b6000819050919050565b6000819050919050565b6000620006dc620006d6620006d084620006a7565b620006b1565b620006a7565b9050919050565b6000819050919050565b620006f883620006bb565b620007106200070782620006e3565b84845462000651565b825550505050565b600090565b6200072762000718565b62000734818484620006ed565b505050565b5b818110156200075c57620007506000826200071d565b6001810190506200073a565b5050565b601f821115620007ab5762000775816200061f565b620007808462000634565b8101602085101562000790578190505b620007a86200079f8562000634565b83018262000739565b50505b505050565b600082821c905092915050565b6000620007d060001984600802620007b0565b1980831691505092915050565b6000620007eb8383620007bd565b9150826002028217905092915050565b6200080682620005b0565b67ffffffffffffffff81111562000822576200082162000286565b5b6200082e8254620005ea565b6200083b82828562000760565b600060209050601f8311600181146200087357600084156200085e578287015190505b6200086a8582620007dd565b865550620008da565b601f19841662000883866200061f565b60005b82811015620008ad5784890151825560018201915060208501945060208101905062000886565b86831015620008cd5784890151620008c9601f891682620007bd565b8355505b6001600288020188555050505b505050505050565b620008ed816200040a565b82525050565b60006020820190506200090a6000830184620008e2565b92915050565b61405d80620009206000396000f3fe608060405234801561001057600080fd5b50600436106101fb5760003560e01c80635b9db8981161011a57806390c3f38f116100ad578063c87b56dd1161007c578063c87b56dd146105b3578063caa0f92a146105e3578063d0def52114610601578063e985e9c51461061d578063f2fde38b1461064d576101fb565b806390c3f38f1461054157806395d89b411461055d578063a22cb4651461057b578063b88d4fde14610597576101fb565b8063715018a6116100e9578063715018a6146104cb5780637284e416146104d55780638462151c146104f35780638da5cb5b14610523576101fb565b80635b9db898146104315780636352211e1461044f57806364ba144e1461047f57806370a082311461049b576101fb565b806323b872dd1161019257806342966c681161016157806342966c68146103ad5780634f6ccce7146103c957806355f804b3146103f957806356d30bf814610415576101fb565b806323b872dd146103145780632a55205a146103305780632f745c591461036157806342842e0e14610391576101fb565b8063095ea7b3116101ce578063095ea7b31461029a57806318160ddd146102b65780631a77447c146102d45780631f917921146102f8576101fb565b806301ffc9a71461020057806302fa7c471461023057806306fdde031461024c578063081812fc1461026a575b600080fd5b61021a60048036038101906102159190612c35565b610669565b6040516102279190612c7d565b60405180910390f35b61024a60048036038101906102459190612d3a565b6106e3565b005b610254610802565b6040516102619190612e0a565b60405180910390f35b610284600480360381019061027f9190612e62565b610894565b6040516102919190612e9e565b60405180910390f35b6102b460048036038101906102af9190612eb9565b6108b0565b005b6102be6108c6565b6040516102cb9190612f08565b60405180910390f35b6102dc6108d3565b6040516102ef9796959493929190612f32565b60405180910390f35b610312600480360381019061030d91906130eb565b6109e1565b005b61032e60048036038101906103299190613134565b6109fc565b005b61034a60048036038101906103459190613187565b610afe565b6040516103589291906131c7565b60405180910390f35b61037b60048036038101906103769190612eb9565b610b76565b6040516103889190612f08565b60405180910390f35b6103ab60048036038101906103a69190613134565b610c1f565b005b6103c760048036038101906103c29190612e62565b610c3f565b005b6103e360048036038101906103de9190612e62565b610c9d565b6040516103f09190612f08565b60405180910390f35b610413600480360381019061040e91906130eb565b610d13565b005b61042f600480360381019061042a91906131f0565b610d2e565b005b610439610e32565b6040516104469190612e0a565b60405180910390f35b61046960048036038101906104649190612e62565b610ec0565b6040516104769190612e9e565b60405180910390f35b61049960048036038101906104949190613408565b610ed2565b005b6104b560048036038101906104b09190613480565b610fc5565b6040516104c29190612f08565b60405180910390f35b6104d361107f565b005b6104dd611093565b6040516104ea9190612e0a565b60405180910390f35b61050d60048036038101906105089190613480565b611121565b60405161051a919061356b565b60405180910390f35b61052b6111cf565b6040516105389190612e9e565b60405180910390f35b61055b600480360381019061055691906130eb565b6111f9565b005b610565611214565b6040516105729190612e0a565b60405180910390f35b610595600480360381019061059091906135b9565b6112a6565b005b6105b160048036038101906105ac919061369a565b6112bc565b005b6105cd60048036038101906105c89190612e62565b6112e1565b6040516105da9190612e0a565b60405180910390f35b6105eb6112f3565b6040516105f89190612f08565b60405180910390f35b61061b6004803603810190610616919061371d565b6112fd565b005b61063760048036038101906106329190613779565b61138c565b6040516106449190612c7d565b60405180910390f35b61066760048036038101906106629190613480565b611420565b005b60007f2a55205a000000000000000000000000000000000000000000000000000000007bffffffffffffffffffffffffffffffffffffffffffffffffffffffff1916827bffffffffffffffffffffffffffffffffffffffffffffffffffffffff191614806106dc57506106db826114a6565b5b9050919050565b6106eb611507565b612710816bffffffffffffffffffffffff16111561073e576040517f08c379a000000000000000000000000000000000000000000000000000000000815260040161073590613805565b60405180910390fd5b81600e60006101000a81548173ffffffffffffffffffffffffffffffffffffffff021916908373ffffffffffffffffffffffffffffffffffffffff16021790555080600e60146101000a8154816bffffffffffffffffffffffff02191690836bffffffffffffffffffffffff1602179055508173ffffffffffffffffffffffffffffffffffffffff167f8039bd6e4e7dba001c8840eb2e118d9d131246faa7d0d04335f7305127ec0b10826040516107f69190613825565b60405180910390a25050565b6060600080546108119061386f565b80601f016020809104026020016040519081016040528092919081815260200182805461083d9061386f565b801561088a5780601f1061085f5761010080835404028352916020019161088a565b820191906000526020600020905b81548152906001019060200180831161086d57829003601f168201915b5050505050905090565b600061089f8261158e565b506108a982611616565b9050919050565b6108c282826108bd611653565b61165b565b5050565b6000600880549050905090565b60608060606000806000806108e6610802565b6108ee611214565b600f6108f86108c6565b6109006111cf565b600e60009054906101000a900473ffffffffffffffffffffffffffffffffffffffff16600e60149054906101000a90046bffffffffffffffffffffffff1684805461094a9061386f565b80601f01602080910402602001604051908101604052809291908181526020018280546109769061386f565b80156109c35780601f10610998576101008083540402835291602001916109c3565b820191906000526020600020905b8154815290600101906020018083116109a657829003601f168201915b50505050509450965096509650965096509650965090919293949596565b6109e9611507565b80601090816109f89190613a4c565b5050565b600073ffffffffffffffffffffffffffffffffffffffff168273ffffffffffffffffffffffffffffffffffffffff1603610a6e5760006040517f64a0ae92000000000000000000000000000000000000000000000000000000008152600401610a659190612e9e565b60405180910390fd5b6000610a828383610a7d611653565b61166d565b90508373ffffffffffffffffffffffffffffffffffffffff168173ffffffffffffffffffffffffffffffffffffffff1614610af8578382826040517f64283d7b000000000000000000000000000000000000000000000000000000008152600401610aef93929190613b1e565b60405180910390fd5b50505050565b6000806000612710600e60149054906101000a90046bffffffffffffffffffffffff166bffffffffffffffffffffffff1685610b3a9190613b84565b610b449190613bf5565b9050600e60009054906101000a900473ffffffffffffffffffffffffffffffffffffffff168192509250509250929050565b6000610b8183610fc5565b8210610bc65782826040517fa57d13dc000000000000000000000000000000000000000000000000000000008152600401610bbd9291906131c7565b60405180910390fd5b600660008473ffffffffffffffffffffffffffffffffffffffff1673ffffffffffffffffffffffffffffffffffffffff168152602001908152602001600020600083815260200190815260200160002054905092915050565b610c3a838383604051806020016040528060008152506112bc565b505050565b610c52610c4b82610ec0565b3383611683565b610c91576040517f08c379a0000000000000000000000000000000000000000000000000000000008152600401610c8890613c72565b60405180910390fd5b610c9a81611744565b50565b6000610ca76108c6565b8210610ced576000826040517fa57d13dc000000000000000000000000000000000000000000000000000000008152600401610ce49291906131c7565b60405180910390fd5b60088281548110610d0157610d00613c92565b5b90600052602060002001549050919050565b610d1b611507565b80600d9081610d2a9190613a4c565b5050565b610d36611507565b600073ffffffffffffffffffffffffffffffffffffffff16610d57836117ca565b73ffffffffffffffffffffffffffffffffffffffff1614610dad576040517f08c379a0000000000000000000000000000000000000000000000000000000008152600401610da490613d0d565b60405180910390fd5b610db78383611807565b610dc18282611825565b600c548210610dde57600182610dd79190613d2d565b600c819055505b818373ffffffffffffffffffffffffffffffffffffffff167fd35bb95e09c04b219e35047ce7b7b300e3384264ef84a40456943dbc0fc17c1483604051610e259190612e0a565b60405180910390a3505050565b60108054610e3f9061386f565b80601f0160208091040260200160405190810160405280929190818152602001828054610e6b9061386f565b8015610eb85780601f10610e8d57610100808354040283529160200191610eb8565b820191906000526020600020905b815481529060010190602001808311610e9b57829003601f168201915b505050505081565b6000610ecb8261158e565b9050919050565b610eda611507565b8051825114610f1e576040517f08c379a0000000000000000000000000000000000000000000000000000000008152600401610f1590613dad565b60405180910390fd5b603282511115610f63576040517f08c379a0000000000000000000000000000000000000000000000000000000008152600401610f5a90613e19565b60405180910390fd5b60005b8251811015610fc057610fad838281518110610f8557610f84613c92565b5b6020026020010151838381518110610fa057610f9f613c92565b5b60200260200101516112fd565b8080610fb890613e39565b915050610f66565b505050565b60008073ffffffffffffffffffffffffffffffffffffffff168273ffffffffffffffffffffffffffffffffffffffff16036110385760006040517f89c62b6400000000000000000000000000000000000000000000000000000000815260040161102f9190612e9e565b60405180910390fd5b600360008373ffffffffffffffffffffffffffffffffffffffff1673ffffffffffffffffffffffffffffffffffffffff168152602001908152602001600020549050919050565b611087611507565b6110916000611881565b565b600f80546110a09061386f565b80601f01602080910402602001604051908101604052809291908181526020018280546110cc9061386f565b80156111195780601f106110ee57610100808354040283529160200191611119565b820191906000526020600020905b8154815290600101906020018083116110fc57829003601f168201915b505050505081565b6060600061112e83610fc5565b905060008167ffffffffffffffff81111561114c5761114b612fc0565b5b60405190808252806020026020018201604052801561117a5781602001602082028036833780820191505090505b50905060005b828110156111c4576111928582610b76565b8282815181106111a5576111a4613c92565b5b60200260200101818152505080806111bc90613e39565b915050611180565b508092505050919050565b6000600b60009054906101000a900473ffffffffffffffffffffffffffffffffffffffff16905090565b611201611507565b80600f90816112109190613a4c565b5050565b6060600180546112239061386f565b80601f016020809104026020016040519081016040528092919081815260200182805461124f9061386f565b801561129c5780601f106112715761010080835404028352916020019161129c565b820191906000526020600020905b81548152906001019060200180831161127f57829003601f168201915b5050505050905090565b6112b86112b1611653565b8383611947565b5050565b6112c78484846109fc565b6112db6112d2611653565b85858585611ab6565b50505050565b60606112ec82611c67565b9050919050565b6000600c54905090565b611305611507565b6000600c549050600c600081548092919061131f90613e39565b919050555061132e8382611807565b6113388183611825565b808373ffffffffffffffffffffffffffffffffffffffff167fd35bb95e09c04b219e35047ce7b7b300e3384264ef84a40456943dbc0fc17c148460405161137f9190612e0a565b60405180910390a3505050565b6000600560008473ffffffffffffffffffffffffffffffffffffffff1673ffffffffffffffffffffffffffffffffffffffff16815260200190815260200160002060008373ffffffffffffffffffffffffffffffffffffffff1673ffffffffffffffffffffffffffffffffffffffff16815260200190815260200160002060009054906101000a900460ff16905092915050565b611428611507565b600073ffffffffffffffffffffffffffffffffffffffff168173ffffffffffffffffffffffffffffffffffffffff160361149a5760006040517f1e4fbdf70000000000000000000000000000000000000000000000000000000081526004016114919190612e9e565b60405180910390fd5b6114a381611881565b50565b6000634906490660e01b7bffffffffffffffffffffffffffffffffffffffffffffffffffffffff1916827bffffffffffffffffffffffffffffffffffffffffffffffffffffffff1916148061150057506114ff82611d7a565b5b9050919050565b61150f611653565b73ffffffffffffffffffffffffffffffffffffffff1661152d6111cf565b73ffffffffffffffffffffffffffffffffffffffff161461158c57611550611653565b6040517f118cdaa70000000000000000000000000000000000000000000000000000000081526004016115839190612e9e565b60405180910390fd5b565b60008061159a836117ca565b9050600073ffffffffffffffffffffffffffffffffffffffff168173ffffffffffffffffffffffffffffffffffffffff160361160d57826040517f7e2732890000000000000000000000000000000000000000000000000000000081526004016116049190612f08565b60405180910390fd5b80915050919050565b60006004600083815260200190815260200160002060009054906101000a900473ffffffffffffffffffffffffffffffffffffffff169050919050565b600033905090565b6116688383836001611df4565b505050565b600061167a848484611fb9565b90509392505050565b60008073ffffffffffffffffffffffffffffffffffffffff168373ffffffffffffffffffffffffffffffffffffffff161415801561173b57508273ffffffffffffffffffffffffffffffffffffffff168473ffffffffffffffffffffffffffffffffffffffff1614806116fc57506116fb848461138c565b5b8061173a57508273ffffffffffffffffffffffffffffffffffffffff1661172283611616565b73ffffffffffffffffffffffffffffffffffffffff16145b5b90509392505050565b6000611753600083600061166d565b9050600073ffffffffffffffffffffffffffffffffffffffff168173ffffffffffffffffffffffffffffffffffffffff16036117c657816040517f7e2732890000000000000000000000000000000000000000000000000000000081526004016117bd9190612f08565b60405180910390fd5b5050565b60006002600083815260200190815260200160002060009054906101000a900473ffffffffffffffffffffffffffffffffffffffff169050919050565b6118218282604051806020016040528060008152506120d6565b5050565b80600a600084815260200190815260200160002090816118459190613a4c565b507ff8e1a15aba9398e019f0b49df1a4fde98ee17ae345cb5f6b5e2c27f5033e8ce7826040516118759190612f08565b60405180910390a15050565b6000600b60009054906101000a900473ffffffffffffffffffffffffffffffffffffffff16905081600b60006101000a81548173ffffffffffffffffffffffffffffffffffffffff021916908373ffffffffffffffffffffffffffffffffffffffff1602179055508173ffffffffffffffffffffffffffffffffffffffff168173ffffffffffffffffffffffffffffffffffffffff167f8be0079c531659141344cd1fd0a4f28419497f9722a3daafe3b4186f6b6457e060405160405180910390a35050565b600073ffffffffffffffffffffffffffffffffffffffff168273ffffffffffffffffffffffffffffffffffffffff16036119b857816040517f5b08ba180000000000000000000000000000000000000000000000000000000081526004016119af9190612e9e565b60405180910390fd5b80600560008573ffffffffffffffffffffffffffffffffffffffff1673ffffffffffffffffffffffffffffffffffffffff16815260200190815260200160002060008473ffffffffffffffffffffffffffffffffffffffff1673ffffffffffffffffffffffffffffffffffffffff16815260200190815260200160002060006101000a81548160ff0219169083151502179055508173ffffffffffffffffffffffffffffffffffffffff168373ffffffffffffffffffffffffffffffffffffffff167f17307eab39ab6107e8899845ad3d59bd9653f200f220920489ca2b5937696c3183604051611aa99190612c7d565b60405180910390a3505050565b60008373ffffffffffffffffffffffffffffffffffffffff163b1115611c60578273ffffffffffffffffffffffffffffffffffffffff1663150b7a02868685856040518563ffffffff1660e01b8152600401611b159493929190613ed6565b6020604051808303816000875af1925050508015611b5157506040513d601f19601f82011682018060405250810190611b4e9190613f37565b60015b611bd5573d8060008114611b81576040519150601f19603f3d011682016040523d82523d6000602084013e611b86565b606091505b506000815103611bcd57836040517f64a0ae92000000000000000000000000000000000000000000000000000000008152600401611bc49190612e9e565b60405180910390fd5b805160208201fd5b63150b7a0260e01b7bffffffffffffffffffffffffffffffffffffffffffffffffffffffff1916817bffffffffffffffffffffffffffffffffffffffffffffffffffffffff191614611c5e57836040517f64a0ae92000000000000000000000000000000000000000000000000000000008152600401611c559190612e9e565b60405180910390fd5b505b5050505050565b6060611c728261158e565b506000600a60008481526020019081526020016000208054611c939061386f565b80601f0160208091040260200160405190810160405280929190818152602001828054611cbf9061386f565b8015611d0c5780601f10611ce157610100808354040283529160200191611d0c565b820191906000526020600020905b815481529060010190602001808311611cef57829003601f168201915b505050505090506000611d1d6120fa565b90506000815103611d32578192505050611d75565b600082511115611d67578082604051602001611d4f929190613fa0565b60405160208183030381529060405292505050611d75565b611d708461218c565b925050505b919050565b60007f780e9d63000000000000000000000000000000000000000000000000000000007bffffffffffffffffffffffffffffffffffffffffffffffffffffffff1916827bffffffffffffffffffffffffffffffffffffffffffffffffffffffff19161480611ded5750611dec826121f5565b5b9050919050565b8080611e2d5750600073ffffffffffffffffffffffffffffffffffffffff168273ffffffffffffffffffffffffffffffffffffffff1614155b15611f61576000611e3d8461158e565b9050600073ffffffffffffffffffffffffffffffffffffffff168373ffffffffffffffffffffffffffffffffffffffff1614158015611ea857508273ffffffffffffffffffffffffffffffffffffffff168173ffffffffffffffffffffffffffffffffffffffff1614155b8015611ebb5750611eb9818461138c565b155b15611efd57826040517fa9fbf51f000000000000000000000000000000000000000000000000000000008152600401611ef49190612e9e565b60405180910390fd5b8115611f5f57838573ffffffffffffffffffffffffffffffffffffffff168273ffffffffffffffffffffffffffffffffffffffff167f8c5be1e5ebec7d5bd14f71427d1e84f3dd0314c0f7b2291e5b200ac8c7c3b92560405160405180910390a45b505b836004600085815260200190815260200160002060006101000a81548173ffffffffffffffffffffffffffffffffffffffff021916908373ffffffffffffffffffffffffffffffffffffffff16021790555050505050565b600080611fc78585856122d7565b9050600073ffffffffffffffffffffffffffffffffffffffff168173ffffffffffffffffffffffffffffffffffffffff160361200b57612006846124f1565b61204a565b8473ffffffffffffffffffffffffffffffffffffffff168173ffffffffffffffffffffffffffffffffffffffff161461204957612048818561253a565b5b5b600073ffffffffffffffffffffffffffffffffffffffff168573ffffffffffffffffffffffffffffffffffffffff160361208c5761208784612625565b6120cb565b8473ffffffffffffffffffffffffffffffffffffffff168173ffffffffffffffffffffffffffffffffffffffff16146120ca576120c985856126f6565b5b5b809150509392505050565b6120e08383612781565b6120f56120eb611653565b6000858585611ab6565b505050565b6060600d80546121099061386f565b80601f01602080910402602001604051908101604052809291908181526020018280546121359061386f565b80156121825780601f1061215757610100808354040283529160200191612182565b820191906000526020600020905b81548152906001019060200180831161216557829003601f168201915b5050505050905090565b60606121978261158e565b5060006121a26120fa565b905060008151116121c257604051806020016040528060008152506121ed565b806121cc8461287a565b6040516020016121dd929190613fa0565b6040516020818303038152906040525b915050919050565b60007f80ac58cd000000000000000000000000000000000000000000000000000000007bffffffffffffffffffffffffffffffffffffffffffffffffffffffff1916827bffffffffffffffffffffffffffffffffffffffffffffffffffffffff191614806122c057507f5b5e139f000000000000000000000000000000000000000000000000000000007bffffffffffffffffffffffffffffffffffffffffffffffffffffffff1916827bffffffffffffffffffffffffffffffffffffffffffffffffffffffff1916145b806122d057506122cf82612948565b5b9050919050565b6000806122e3846117ca565b9050600073ffffffffffffffffffffffffffffffffffffffff168373ffffffffffffffffffffffffffffffffffffffff1614612325576123248184866129b2565b5b600073ffffffffffffffffffffffffffffffffffffffff168173ffffffffffffffffffffffffffffffffffffffff16146123b657612367600085600080611df4565b6001600360008373ffffffffffffffffffffffffffffffffffffffff1673ffffffffffffffffffffffffffffffffffffffff168152602001908152602001600020600082825403925050819055505b600073ffffffffffffffffffffffffffffffffffffffff168573ffffffffffffffffffffffffffffffffffffffff1614612439576001600360008773ffffffffffffffffffffffffffffffffffffffff1673ffffffffffffffffffffffffffffffffffffffff168152602001908152602001600020600082825401925050819055505b846002600086815260200190815260200160002060006101000a81548173ffffffffffffffffffffffffffffffffffffffff021916908373ffffffffffffffffffffffffffffffffffffffff160217905550838573ffffffffffffffffffffffffffffffffffffffff168273ffffffffffffffffffffffffffffffffffffffff167fddf252ad1be2c89b69c2b068fc378daa952ba7f163c4a11628f55a4df523b3ef60405160405180910390a4809150509392505050565b6008805490506009600083815260200190815260200160002081905550600881908060018154018082558091505060019003906000526020600020016000909190919091505550565b600061254583610fc5565b90506000600760008481526020019081526020016000205490506000600660008673ffffffffffffffffffffffffffffffffffffffff1673ffffffffffffffffffffffffffffffffffffffff16815260200190815260200160002090508282146125f15760008160008581526020019081526020016000205490508082600085815260200190815260200160002081905550826007600083815260200190815260200160002081905550505b6007600085815260200190815260200160002060009055806000848152602001908152602001600020600090555050505050565b600060016008805490506126399190613fc4565b905060006009600084815260200190815260200160002054905060006008838154811061266957612668613c92565b5b90600052602060002001549050806008838154811061268b5761268a613c92565b5b9060005260206000200181905550816009600083815260200190815260200160002081905550600960008581526020019081526020016000206000905560088054806126da576126d9613ff8565b5b6001900381819060005260206000200160009055905550505050565b6000600161270384610fc5565b61270d9190613fc4565b905081600660008573ffffffffffffffffffffffffffffffffffffffff1673ffffffffffffffffffffffffffffffffffffffff168152602001908152602001600020600083815260200190815260200160002081905550806007600084815260200190815260200160002081905550505050565b600073ffffffffffffffffffffffffffffffffffffffff168273ffffffffffffffffffffffffffffffffffffffff16036127f35760006040517f64a0ae920000000000000000000000000000000000000000000000000000000081526004016127ea9190612e9e565b60405180910390fd5b60006128018383600061166d565b9050600073ffffffffffffffffffffffffffffffffffffffff168173ffffffffffffffffffffffffffffffffffffffff16146128755760006040517f73c6ac6e00000000000000000000000000000000000000000000000000000000815260040161286c9190612e9e565b60405180910390fd5b505050565b60606000600161288984612a76565b01905060008167ffffffffffffffff8111156128a8576128a7612fc0565b5b6040519080825280601f01601f1916602001820160405280156128da5781602001600182028036833780820191505090505b509050600082602083010190505b60011561293d578080600190039150507f3031323334353637383961626364656600000000000000000000000000000000600a86061a8153600a858161293157612930613bc6565b5b049450600085036128e8575b819350505050919050565b60007f01ffc9a7000000000000000000000000000000000000000000000000000000007bffffffffffffffffffffffffffffffffffffffffffffffffffffffff1916827bffffffffffffffffffffffffffffffffffffffffffffffffffffffff1916149050919050565b6129bd838383611683565b612a7157600073ffffffffffffffffffffffffffffffffffffffff168373ffffffffffffffffffffffffffffffffffffffff1603612a3257806040517f7e273289000000000000000000000000000000000000000000000000000000008152600401612a299190612f08565b60405180910390fd5b81816040517f177e802f000000000000000000000000000000000000000000000000000000008152600401612a689291906131c7565b60405180910390fd5b505050565b600080600090507a184f03e93ff9f4daa797ed6e38ed64bf6a1f0100000000000000008310612ad4577a184f03e93ff9f4daa797ed6e38ed64bf6a1f0100000000000000008381612aca57612ac9613bc6565b5b0492506040810190505b6d04ee2d6d415b85acef81000000008310612b11576d04ee2d6d415b85acef81000000008381612b0757612b06613bc6565b5b0492506020810190505b662386f26fc100008310612b4057662386f26fc100008381612b3657612b35613bc6565b5b0492506010810190505b6305f5e1008310612b69576305f5e1008381612b5f57612b5e613bc6565b5b0492506008810190505b6127108310612b8e576127108381612b8457612b83613bc6565b5b0492506004810190505b60648310612bb15760648381612ba757612ba6613bc6565b5b0492506002810190505b600a8310612bc0576001810190505b80915050919050565b6000604051905090565b600080fd5b600080fd5b60007fffffffff0000000000000000000000000000000000000000000000000000000082169050919050565b612c1281612bdd565b8114612c1d57600080fd5b50565b600081359050612c2f81612c09565b92915050565b600060208284031215612c4b57612c4a612bd3565b5b6000612c5984828501612c20565b91505092915050565b60008115159050919050565b612c7781612c62565b82525050565b6000602082019050612c926000830184612c6e565b92915050565b600073ffffffffffffffffffffffffffffffffffffffff82169050919050565b6000612cc382612c98565b9050919050565b612cd381612cb8565b8114612cde57600080fd5b50565b600081359050612cf081612cca565b92915050565b60006bffffffffffffffffffffffff82169050919050565b612d1781612cf6565b8114612d2257600080fd5b50565b600081359050612d3481612d0e565b92915050565b60008060408385031215612d5157612d50612bd3565b5b6000612d5f85828601612ce1565b9250506020612d7085828601612d25565b9150509250929050565b600081519050919050565b600082825260208201905092915050565b60005b83811015612db4578082015181840152602081019050612d99565b60008484015250505050565b6000601f19601f8301169050919050565b6000612ddc82612d7a565b612de68185612d85565b9350612df6818560208601612d96565b612dff81612dc0565b840191505092915050565b60006020820190508181036000830152612e248184612dd1565b905092915050565b6000819050919050565b612e3f81612e2c565b8114612e4a57600080fd5b50565b600081359050612e5c81612e36565b92915050565b600060208284031215612e7857612e77612bd3565b5b6000612e8684828501612e4d565b91505092915050565b612e9881612cb8565b82525050565b6000602082019050612eb36000830184612e8f565b92915050565b60008060408385031215612ed057612ecf612bd3565b5b6000612ede85828601612ce1565b9250506020612eef85828601612e4d565b9150509250929050565b612f0281612e2c565b82525050565b6000602082019050612f1d6000830184612ef9565b92915050565b612f2c81612cf6565b82525050565b600060e0820190508181036000830152612f4c818a612dd1565b90508181036020830152612f608189612dd1565b90508181036040830152612f748188612dd1565b9050612f836060830187612ef9565b612f906080830186612e8f565b612f9d60a0830185612e8f565b612faa60c0830184612f23565b98975050505050505050565b600080fd5b600080fd5b7f4e487b7100000000000000000000000000000000000000000000000000000000600052604160045260246000fd5b612ff882612dc0565b810181811067ffffffffffffffff8211171561301757613016612fc0565b5b80604052505050565b600061302a612bc9565b90506130368282612fef565b919050565b600067ffffffffffffffff82111561305657613055612fc0565b5b61305f82612dc0565b9050602081019050919050565b82818337600083830152505050565b600061308e6130898461303b565b613020565b9050828152602081018484840111156130aa576130a9612fbb565b5b6130b584828561306c565b509392505050565b600082601f8301126130d2576130d1612fb6565b5b81356130e284826020860161307b565b91505092915050565b60006020828403121561310157613100612bd3565b5b600082013567ffffffffffffffff81111561311f5761311e612bd8565b5b61312b848285016130bd565b91505092915050565b60008060006060848603121561314d5761314c612bd3565b5b600061315b86828701612ce1565b935050602061316c86828701612ce1565b925050604061317d86828701612e4d565b9150509250925092565b6000806040838503121561319e5761319d612bd3565b5b60006131ac85828601612e4d565b92505060206131bd85828601612e4d565b9150509250929050565b60006040820190506131dc6000830185612e8f565b6131e96020830184612ef9565b9392505050565b60008060006060848603121561320957613208612bd3565b5b600061321786828701612ce1565b935050602061322886828701612e4d565b925050604084013567ffffffffffffffff81111561324957613248612bd8565b5b613255868287016130bd565b9150509250925092565b600067ffffffffffffffff82111561327a57613279612fc0565b5b602082029050602081019050919050565b600080fd5b60006132a361329e8461325f565b613020565b905080838252602082019050602084028301858111156132c6576132c561328b565b5b835b818110156132ef57806132db8882612ce1565b8452602084019350506020810190506132c8565b5050509392505050565b600082601f83011261330e5761330d612fb6565b5b813561331e848260208601613290565b91505092915050565b600067ffffffffffffffff82111561334257613341612fc0565b5b602082029050602081019050919050565b600061336661336184613327565b613020565b905080838252602082019050602084028301858111156133895761338861328b565b5b835b818110156133d057803567ffffffffffffffff8111156133ae576133ad612fb6565b5b8086016133bb89826130bd565b8552602085019450505060208101905061338b565b5050509392505050565b600082601f8301126133ef576133ee612fb6565b5b81356133ff848260208601613353565b91505092915050565b6000806040838503121561341f5761341e612bd3565b5b600083013567ffffffffffffffff81111561343d5761343c612bd8565b5b613449858286016132f9565b925050602083013567ffffffffffffffff81111561346a57613469612bd8565b5b613476858286016133da565b9150509250929050565b60006020828403121561349657613495612bd3565b5b60006134a484828501612ce1565b91505092915050565b600081519050919050565b600082825260208201905092915050565b6000819050602082019050919050565b6134e281612e2c565b82525050565b60006134f483836134d9565b60208301905092915050565b6000602082019050919050565b6000613518826134ad565b61352281856134b8565b935061352d836134c9565b8060005b8381101561355e57815161354588826134e8565b975061355083613500565b925050600181019050613531565b5085935050505092915050565b60006020820190508181036000830152613585818461350d565b905092915050565b61359681612c62565b81146135a157600080fd5b50565b6000813590506135b38161358d565b92915050565b600080604083850312156135d0576135cf612bd3565b5b60006135de85828601612ce1565b92505060206135ef858286016135a4565b9150509250929050565b600067ffffffffffffffff82111561361457613613612fc0565b5b61361d82612dc0565b9050602081019050919050565b600061363d613638846135f9565b613020565b90508281526020810184848401111561365957613658612fbb565b5b61366484828561306c565b509392505050565b600082601f83011261368157613680612fb6565b5b813561369184826020860161362a565b91505092915050565b600080600080608085870312156136b4576136b3612bd3565b5b60006136c287828801612ce1565b94505060206136d387828801612ce1565b93505060406136e487828801612e4d565b925050606085013567ffffffffffffffff81111561370557613704612bd8565b5b6137118782880161366c565b91505092959194509250565b6000806040838503121561373457613733612bd3565b5b600061374285828601612ce1565b925050602083013567ffffffffffffffff81111561376357613762612bd8565b5b61376f858286016130bd565b9150509250929050565b600080604083850312156137905761378f612bd3565b5b600061379e85828601612ce1565b92505060206137af85828601612ce1565b9150509250929050565b7f526f79616c74792066656520746f6f2068696768000000000000000000000000600082015250565b60006137ef601483612d85565b91506137fa826137b9565b602082019050919050565b6000602082019050818103600083015261381e816137e2565b9050919050565b600060208201905061383a6000830184612f23565b92915050565b7f4e487b7100000000000000000000000000000000000000000000000000000000600052602260045260246000fd5b6000600282049050600182168061388757607f821691505b60208210810361389a57613899613840565b5b50919050565b60008190508160005260206000209050919050565b60006020601f8301049050919050565b600082821b905092915050565b6000600883026139027fffffffffffffffffffffffffffffffffffffffffffffffffffffffffffffffff826138c5565b61390c86836138c5565b95508019841693508086168417925050509392505050565b6000819050919050565b600061394961394461393f84612e2c565b613924565b612e2c565b9050919050565b6000819050919050565b6139638361392e565b61397761396f82613950565b8484546138d2565b825550505050565b600090565b61398c61397f565b61399781848461395a565b505050565b5b818110156139bb576139b0600082613984565b60018101905061399d565b5050565b601f821115613a00576139d1816138a0565b6139da846138b5565b810160208510156139e9578190505b6139fd6139f5856138b5565b83018261399c565b50505b505050565b600082821c905092915050565b6000613a2360001984600802613a05565b1980831691505092915050565b6000613a3c8383613a12565b9150826002028217905092915050565b613a5582612d7a565b67ffffffffffffffff811115613a6e57613a6d612fc0565b5b613a78825461386f565b613a838282856139bf565b600060209050601f831160018114613ab65760008415613aa4578287015190505b613aae8582613a30565b865550613b16565b601f198416613ac4866138a0565b60005b82811015613aec57848901518255600182019150602085019450602081019050613ac7565b86831015613b095784890151613b05601f891682613a12565b8355505b6001600288020188555050505b505050505050565b6000606082019050613b336000830186612e8f565b613b406020830185612ef9565b613b4d6040830184612e8f565b949350505050565b7f4e487b7100000000000000000000000000000000000000000000000000000000600052601160045260246000fd5b6000613b8f82612e2c565b9150613b9a83612e2c565b9250828202613ba881612e2c565b91508282048414831517613bbf57613bbe613b55565b5b5092915050565b7f4e487b7100000000000000000000000000000000000000000000000000000000600052601260045260246000fd5b6000613c0082612e2c565b9150613c0b83612e2c565b925082613c1b57613c1a613bc6565b5b828204905092915050565b7f4e6f7420617574686f72697a656420746f206275726e00000000000000000000600082015250565b6000613c5c601683612d85565b9150613c6782613c26565b602082019050919050565b60006020820190508181036000830152613c8b81613c4f565b9050919050565b7f4e487b7100000000000000000000000000000000000000000000000000000000600052603260045260246000fd5b7f546f6b656e20494420616c726561647920657869737473000000000000000000600082015250565b6000613cf7601783612d85565b9150613d0282613cc1565b602082019050919050565b60006020820190508181036000830152613d2681613cea565b9050919050565b6000613d3882612e2c565b9150613d4383612e2c565b9250828201905080821115613d5b57613d5a613b55565b5b92915050565b7f417272617973206c656e677468206d69736d6174636800000000000000000000600082015250565b6000613d97601683612d85565b9150613da282613d61565b602082019050919050565b60006020820190508181036000830152613dc681613d8a565b9050919050565b7f42617463682073697a6520746f6f206c61726765000000000000000000000000600082015250565b6000613e03601483612d85565b9150613e0e82613dcd565b602082019050919050565b60006020820190508181036000830152613e3281613df6565b9050919050565b6000613e4482612e2c565b91507fffffffffffffffffffffffffffffffffffffffffffffffffffffffffffffffff8203613e7657613e75613b55565b5b600182019050919050565b600081519050919050565b600082825260208201905092915050565b6000613ea882613e81565b613eb28185613e8c565b9350613ec2818560208601612d96565b613ecb81612dc0565b840191505092915050565b6000608082019050613eeb6000830187612e8f565b613ef86020830186612e8f565b613f056040830185612ef9565b8181036060830152613f178184613e9d565b905095945050505050565b600081519050613f3181612c09565b92915050565b600060208284031215613f4d57613f4c612bd3565b5b6000613f5b84828501613f22565b91505092915050565b600081905092915050565b6000613f7a82612d7a565b613f848185613f64565b9350613f94818560208601612d96565b80840191505092915050565b6000613fac8285613f6f565b9150613fb88284613f6f565b91508190509392505050565b6000613fcf82612e2c565b9150613fda83612e2c565b9250828203905081811115613ff257613ff1613b55565b5b92915050565b7f4e487b7100000000000000000000000000000000000000000000000000000000600052603160045260246000fdfea2646970667358221220c10b1633a5d4bc9a44e671a29585f2694258d46e33086ca08a33518f96599e8864736f6c63430008140033",
  "linkReferences": {},
  "deployedLinkReferences": {}
}