{
  "_format": "hh-sol-artifact-1",
  "contractName": "CustomNFT",
  "sourceName": "contracts/CustomNFT.sol",
  "abi": [
    {
      "inputs": [
        {
          "internalType": "string",
          "name": "name",
          "type": "string"
        },
        {
          "internalType": "string",
          "name": "symbol",
          "type": "string"
        },
        {
          "internalType": "string",
          "name": "baseURI",
          "type": "string"
        },
        {
          "internalType": "string",
          "name": "_description",
          "type": "string"
        },
        {
          "internalType": "address",
          "name": "royaltyReceiver",
          "type": "address"
        },
        {
          "internalType": "uint96",
          "name": "royaltyFeeBps",
          "type": "uint96"
        }
      ],
      "stateMutability": "nonpayable",
      "type": "constructor"
    },
    {
      "inputs": [],
      "name": "ERC721EnumerableForbiddenBatchMint",
      "type": "error"
    },
    {
      "inputs": [
        {
          "internalType": "address",
          "name": "sender",
          "type": "address"
        },
        {
          "internalType": "uint256",
          "name": "tokenId",
          "type": "uint256"
        },
        {
          "internalType": "address",
          "name": "owner",
          "type": "address"
        }
      ],
      "name": "ERC721IncorrectOwner",
      "type": "error"
    },
    {
      "inputs": [
        {
          "internalType": "address",
          "name": "operator",
          "type": "address"
        },
        {
          "internalType": "uint256",
          "name": "tokenId",
          "type": "uint256"
        }
      ],
      "name": "ERC721InsufficientApproval",
      "type": "error"
    },
    {
      "inputs": [
        {
          "internalType": "address",
          "name": "approver",
          "type": "address"
        }
      ],
      "name": "ERC721InvalidApprover",
      "type": "error"
    },
    {
      "inputs": [
        {
          "internalType": "address",
          "name": "operator",
          "type": "address"
        }
      ],
      "name": "ERC721InvalidOperator",
      "type": "error"
    },
    {
      "inputs": [
        {
          "internalType": "address",
          "name": "owner",
          "type": "address"
        }
      ],
      "name": "ERC721InvalidOwner",
      "type": "error"
    },
    {
      "inputs": [
        {
          "internalType": "address",
          "name": "receiver",
          "type": "address"
        }
      ],
      "name": "ERC721InvalidReceiver",
      "type": "error"
    },
    {
      "inputs": [
        {
          "internalType": "address",
          "name": "sender",
          "type": "address"
        }
      ],
      "name": "ERC721InvalidSender",
      "type": "error"
    },
    {
      "inputs": [
        {
          "internalType": "uint256",
          "name": "tokenId",
          "type": "uint256"
        }
      ],
      "name": "ERC721NonexistentToken",
      "type": "error"
    },
    {
      "inputs": [
        {
          "internalType": "address",
          "name": "owner",
          "type": "address"
        },
        {
          "internalType": "uint256",
          "name": "index",
          "type": "uint256"
        }
      ],
      "name": "ERC721OutOfBoundsIndex",
      "type": "error"
    },
    {
      "inputs": [
        {
          "internalType": "address",
          "name": "owner",
          "type": "address"
        }
      ],
      "name": "OwnableInvalidOwner",
      "type": "error"
    },
    {
      "inputs": [
        {
          "internalType": "address",
          "name": "account",
          "type": "address"
        }
      ],
      "name": "OwnableUnauthorizedAccount",
      "type": "error"
    },
    {
      "anonymous": false,
      "inputs": [
        {
          "indexed": true,
          "internalType": "address",
          "name": "owner",
          "type": "address"
        },
        {
          "indexed": true,
          "internalType": "address",
          "name": "approved",
          "type": "address"
        },
        {
          "indexed": true,
          "internalType": "uint256",
          "name": "tokenId",
          "type": "uint256"
        }
      ],
      "name": "Approval",
      "type": "event"
    },
    {
      "anonymous": false,
      "inputs": [
        {
          "indexed": true,
          "internalType": "address",
          "name": "owner",
          "type": "address"
        },
        {
          "indexed": true,
          "internalType": "address",
          "name": "operator",
          "type": "address"
        },
        {
          "indexed": false,
          "internalType": "bool",
          "name": "approved",
          "type": "bool"
        }
      ],
      "name": "ApprovalForAll",
      "type": "event"
    },
    {
      "anonymous": false,
      "inputs": [
        {
          "indexed": false,
          "internalType": "uint256",
          "name": "_fromTokenId",
          "type": "uint256"
        },
        {
          "indexed": false,
          "internalType": "uint256",
          "name": "_toTokenId",
          "type": "uint256"
        }
      ],
      "name": "BatchMetadataUpdate",
      "type": "event"
    },
    {
      "anonymous": false,
      "inputs": [
        {
          "indexed": false,
          "internalType": "uint256",
          "name": "_tokenId",
          "type": "uint256"
        }
      ],
      "name": "MetadataUpdate",
      "type": "event"
    },
    {
      "anonymous": false,
      "inputs": [
        {
          "indexed": true,
          "internalType": "address",
          "name": "to",
          "type": "address"
        },
        {
          "indexed": true,
          "internalType": "uint256",
          "name": "tokenId",
          "type": "uint256"
        },
        {
          "indexed": false,
          "internalType": "string",
          "name": "tokenURI",
          "type": "string"
        }
      ],
      "name": "NFTMinted",
      "type": "event"
    },
    {
      "anonymous": false,
      "inputs": [
        {
          "indexed": true,
          "internalType": "address",
          "name": "previousOwner",
          "type": "address"
        },
        {
          "indexed": true,
          "internalType": "address",
          "name": "newOwner",
          "type": "address"
        }
      ],
      "name": "OwnershipTransferred",
      "type": "event"
    },
    {
      "anonymous": false,
      "inputs": [
        {
          "indexed": true,
          "internalType": "address",
          "name": "receiver",
          "type": "address"
        },
        {
          "indexed": false,
          "internalType": "uint96",
          "name": "feeBasisPoints",
          "type": "uint96"
        }
      ],
      "name": "RoyaltyUpdated",
      "type": "event"
    },
    {
      "anonymous": false,
      "inputs": [
        {
          "indexed": true,
          "internalType": "address",
          "name": "from",
          "type": "address"
        },
        {
          "indexed": true,
          "internalType": "address",
          "name": "to",
          "type": "address"
        },
        {
          "indexed": true,
          "internalType": "uint256",
          "name": "tokenId",
          "type": "uint256"
        }
      ],
      "name": "Transfer",
      "type": "event"
    },
    {
      "inputs": [
        {
          "internalType": "address",
          "name": "to",
          "type": "address"
        },
        {
          "internalType": "uint256",
          "name": "tokenId",
          "type": "uint256"
        }
      ],
      "name": "approve",
      "outputs": [],
      "stateMutability": "nonpayable",
      "type": "function"
    },
    {
      "inputs": [
        {
          "internalType": "address",
          "name": "owner",
          "type": "address"
        }
      ],
      "name": "balanceOf",
      "outputs": [
        {
          "internalType": "uint256",
          "name": "",
          "type": "uint256"
        }
      ],
      "stateMutability": "view",
      "type": "function"
    },
    {
      "inputs": [
        {
          "internalType": "address[]",
          "name": "recipients",
          "type": "address[]"
        },
        {
          "internalType": "string[]",
          "name": "tokenURIs",
          "type": "string[]"
        }
      ],
      "name": "batchMint",
      "outputs": [],
      "stateMutability": "nonpayable",
      "type": "function"
    },
    {
      "inputs": [
        {
          "internalType": "uint256",
          "name": "tokenId",
          "type": "uint256"
        }
      ],
      "name": "burn",
      "outputs": [],
      "stateMutability": "nonpayable",
      "type": "function"
    },
    {
      "inputs": [],
      "name": "description",
      "outputs": [
        {
          "internalType": "string",
          "name": "",
          "type": "string"
        }
      ],
      "stateMutability": "view",
      "type": "function"
    },
    {
      "inputs": [],
      "name": "externalLink",
      "outputs": [
        {
          "internalType": "string",
          "name": "",
          "type": "string"
        }
      ],
      "stateMutability": "view",
      "type": "function"
    },
    {
      "inputs": [
        {
          "internalType": "uint256",
          "name": "tokenId",
          "type": "uint256"
        }
      ],
      "name": "getApproved",
      "outputs": [
        {
          "internalType": "address",
          "name": "",
          "type": "address"
        }
      ],
      "stateMutability": "view",
      "type": "function"
    },
    {
      "inputs": [],
      "name": "getCollectionInfo",
      "outputs": [
        {
          "internalType": "string",
          "name": "contractName",
          "type": "string"
        },
        {
          "internalType": "string",
          "name": "contractSymbol",
          "type": "string"
        },
        {
          "internalType": "string",
          "name": "desc",
          "type": "string"
        },
        {
          "internalType": "uint256",
          "name": "supply",
          "type": "uint256"
        },
        {
          "internalType": "address",
          "name": "contractOwner",
          "type": "address"
        },
        {
          "internalType": "address",
          "name": "royaltyReceiver",
          "type": "address"
        },
        {
          "internalType": "uint96",
          "name": "royaltyFee",
          "type": "uint96"
        }
      ],
      "stateMutability": "view",
      "type": "function"
    },
    {
      "inputs": [],
      "name": "getNextTokenId",
      "outputs": [
        {
          "internalType": "uint256",
          "name": "",
          "type": "uint256"
        }
      ],
      "stateMutability": "view",
      "type": "function"
    },
    {
      "inputs": [
        {
          "internalType": "address",
          "name": "owner",
          "type": "address"
        },
        {
          "internalType": "address",
          "name": "operator",
          "type": "address"
        }
      ],
      "name": "isApprovedForAll",
      "outputs": [
        {
          "internalType": "bool",
          "name": "",
          "type": "bool"
        }
      ],
      "stateMutability": "view",
      "type": "function"
    },
    {
      "inputs": [
        {
          "internalType": "address",
          "name": "to",
          "type": "address"
        },
        {
          "internalType": "string",
          "name": "uri",
          "type": "string"
        }
      ],
      "name": "mint",
      "outputs": [],
      "stateMutability": "nonpayable",
      "type": "function"
    },
    {
      "inputs": [
        {
          "internalType": "address",
          "name": "to",
          "type": "address"
        },
        {
          "internalType": "uint256",
          "name": "tokenId",
          "type": "uint256"
        },
        {
          "internalType": "string",
          "name": "uri",
          "type": "string"
        }
      ],
      "name": "mintWithId",
      "outputs": [],
      "stateMutability": "nonpayable",
      "type": "function"
    },
    {
      "inputs": [],
      "name": "name",
      "outputs": [
        {
          "internalType": "string",
          "name": "",
          "type": "string"
        }
      ],
      "stateMutability": "view",
      "type": "function"
    },
    {
      "inputs": [],
      "name": "owner",
      "outputs": [
        {
          "internalType": "address",
          "name": "",
          "type": "address"
        }
      ],
      "stateMutability": "view",
      "type": "function"
    },
    {
      "inputs": [
        {
          "internalType": "uint256",
          "name": "tokenId",
          "type": "uint256"
        }
      ],
      "name": "ownerOf",
      "outputs": [
        {
          "internalType": "address",
          "name": "",
          "type": "address"
        }
      ],
      "stateMutability": "view",
      "type": "function"
    },
    {
      "inputs": [],
      "name": "renounceOwnership",
      "outputs": [],
      "stateMutability": "nonpayable",
      "type": "function"
    },
    {
      "inputs": [
        {
          "internalType": "uint256",
          "name": "",
          "type": "uint256"
        },
        {
          "internalType": "uint256",
          "name": "salePrice",
          "type": "uint256"
        }
      ],
      "name": "royaltyInfo",
      "outputs": [
        {
          "internalType": "address",
          "name": "",
          "type": "address"
        },
        {
          "internalType": "uint256",
          "name": "",
          "type": "uint256"
        }
      ],
      "stateMutability": "view",
      "type": "function"
    },
    {
      "inputs": [
        {
          "internalType": "address",
          "name": "from",
          "type": "address"
        },
        {
          "internalType": "address",
          "name": "to",
          "type": "address"
        },
        {
          "internalType": "uint256",
          "name": "tokenId",
          "type": "uint256"
        }
      ],
      "name": "safeTransferFrom",
      "outputs": [],
      "stateMutability": "nonpayable",
      "type": "function"
    },
    {
      "inputs": [
        {
          "internalType": "address",
          "name": "from",
          "type": "address"
        },
        {
          "internalType": "address",
          "name": "to",
          "type": "address"
        },
        {
          "internalType": "uint256",
          "name": "tokenId",
          "type": "uint256"
        },
        {
          "internalType": "bytes",
          "name": "data",
          "type": "bytes"
        }
      ],
      "name": "safeTransferFrom",
      "outputs": [],
      "stateMutability": "nonpayable",
      "type": "function"
    },
    {
      "inputs": [
        {
          "internalType": "address",
          "name": "operator",
          "type": "address"
        },
        {
          "internalType": "bool",
          "name": "approved",
          "type": "bool"
        }
      ],
      "name": "setApprovalForAll",
      "outputs": [],
      "stateMutability": "nonpayable",
      "type": "function"
    },
    {
      "inputs": [
        {
          "internalType": "string",
          "name": "baseURI",
          "type": "string"
        }
      ],
      "name": "setBaseURI",
      "outputs": [],
      "stateMutability": "nonpayable",
      "type": "function"
    },
    {
      "inputs": [
        {
          "internalType": "string",
          "name": "_description",
          "type": "string"
        }
      ],
      "name": "setDescription",
      "outputs": [],
      "stateMutability": "nonpayable",
      "type": "function"
    },
    {
      "inputs": [
        {
          "internalType": "string",
          "name": "_externalLink",
          "type": "string"
        }
      ],
      "name": "setExternalLink",
      "outputs": [],
      "stateMutability": "nonpayable",
      "type": "function"
    },
    {
      "inputs": [
        {
          "internalType": "address",
          "name": "receiver",
          "type": "address"
        },
        {
          "internalType": "uint96",
          "name": "feeBasisPoints",
          "type": "uint96"
        }
      ],
      "name": "setRoyaltyInfo",
      "outputs": [],
      "stateMutability": "nonpayable",
      "type": "function"
    },
    {
      "inputs": [
        {
          "internalType": "bytes4",
          "name": "interfaceId",
          "type": "bytes4"
        }
      ],
      "name": "supportsInterface",
      "outputs": [
        {
          "internalType": "bool",
          "name": "",
          "type": "bool"
        }
      ],
      "stateMutability": "view",
      "type": "function"
    },
    {
      "inputs": [],
      "name": "symbol",
      "outputs": [
        {
          "internalType": "string",
          "name": "",
          "type": "string"
        }
      ],
      "stateMutability": "view",
      "type": "function"
    },
    {
      "inputs": [
        {
          "internalType": "uint256",
          "name": "index",
          "type": "uint256"
        }
      ],
      "name": "tokenByIndex",
      "outputs": [
        {
          "internalType": "uint256",
          "name": "",
          "type": "uint256"
        }
      ],
      "stateMutability": "view",
      "type": "function"
    },
    {
      "inputs": [
        {
          "internalType": "address",
          "name": "owner",
          "type": "address"
        },
        {
          "internalType": "uint256",
          "name": "index",
          "type": "uint256"
        }
      ],
      "name": "tokenOfOwnerByIndex",
      "outputs": [
        {
          "internalType": "uint256",
          "name": "",
          "type": "uint256"
        }
      ],
      "stateMutability": "view",
      "type": "function"
    },
    {
      "inputs": [
        {
          "internalType": "uint256",
          "name": "tokenId",
          "type": "uint256"
        }
      ],
      "name": "tokenURI",
      "outputs": [
        {
          "internalType": "string",
          "name": "",
          "type": "string"
        }
      ],
      "stateMutability": "view",
      "type": "function"
    },
    {
      "inputs": [
        {
          "internalType": "address",
          "name": "owner",
          "type": "address"
        }
      ],
      "name": "tokensOfOwner",
      "outputs": [
        {
          "internalType": "uint256[]",
          "name": "",
          "type": "uint256[]"
        }
      ],
      "stateMutability": "view",
      "type": "function"
    },
    {
      "inputs": [],
      "name": "totalSupply",
      "outputs": [
        {
          "internalType": "uint256",
          "name": "",
          "type": "uint256"
        }
      ],
      "stateMutability": "view",
      "type": "function"
    },
    {
      "inputs": [
        {
          "internalType": "address",
          "name": "from",
          "type": "address"
        },
        {
          "internalType": "address",
          "name": "to",
          "type": "address"
        },
        {
          "internalType": "uint256",
          "name": "tokenId",
          "type": "uint256"
        }
      ],
      "name": "transferFrom",
      "outputs": [],
      "stateMutability": "nonpayable",
      "type": "function"
    },
    {
      "inputs": [
        {
          "internalType": "address",
          "name": "newOwner",
          "type": "address"
        }
      ],
      "name": "transferOwnership",
      "outputs": [],
      "stateMutability": "nonpayable",
      "type": "function"
    }
  ],
  "bytecode": "0x60806040523480156200001157600080fd5b50604051620027dd380380620027dd83398101604081905262000034916200022a565b338686600062000045838262000396565b50600162000054828262000396565b5050506001600160a01b0381166200008657604051631e4fbdf760e01b81526000600482015260240160405180910390fd5b6200009181620000de565b50600d620000a0858262000396565b50600f620000af848262000396565b506001600160601b0316600160a01b026001600160a01b0390911617600e5550506001600c5550620004629050565b600b80546001600160a01b038381166001600160a01b0319831681179093556040519116919082907f8be0079c531659141344cd1fd0a4f28419497f9722a3daafe3b4186f6b6457e090600090a35050565b634e487b7160e01b600052604160045260246000fd5b600082601f8301126200015857600080fd5b81516001600160401b038082111562000175576200017562000130565b604051601f8301601f19908116603f01168101908282118183101715620001a057620001a062000130565b81604052838152602092508683858801011115620001bd57600080fd5b600091505b83821015620001e15785820183015181830184015290820190620001c2565b600093810190920192909252949350505050565b80516001600160a01b03811681146200020d57600080fd5b919050565b80516001600160601b03811681146200020d57600080fd5b60008060008060008060c087890312156200024457600080fd5b86516001600160401b03808211156200025c57600080fd5b6200026a8a838b0162000146565b975060208901519150808211156200028157600080fd5b6200028f8a838b0162000146565b96506040890151915080821115620002a657600080fd5b620002b48a838b0162000146565b95506060890151915080821115620002cb57600080fd5b50620002da89828a0162000146565b935050620002eb60808801620001f5565b9150620002fb60a0880162000212565b90509295509295509295565b600181811c908216806200031c57607f821691505b6020821081036200033d57634e487b7160e01b600052602260045260246000fd5b50919050565b601f8211156200039157600081815260208120601f850160051c810160208610156200036c5750805b601f850160051c820191505b818110156200038d5782815560010162000378565b5050505b505050565b81516001600160401b03811115620003b257620003b262000130565b620003ca81620003c3845462000307565b8462000343565b602080601f831160018114620004025760008415620003e95750858301515b600019600386901b1c1916600185901b1785556200038d565b600085815260208120601f198616915b82811015620004335788860151825594840194600190910190840162000412565b5085821015620004525787850151600019600388901b60f8161c191681555b5050505050600190811b01905550565b61236b80620004726000396000f3fe608060405234801561001057600080fd5b50600436106101fb5760003560e01c80635b9db8981161011a57806390c3f38f116100ad578063c87b56dd1161007c578063c87b56dd1461044a578063caa0f92a1461045d578063d0def52114610465578063e985e9c514610478578063f2fde38b1461048b57600080fd5b806390c3f38f1461040957806395d89b411461041c578063a22cb46514610424578063b88d4fde1461043757600080fd5b8063715018a6116100e9578063715018a6146103c85780637284e416146103d05780638462151c146103d85780638da5cb5b146103f857600080fd5b80635b9db898146103875780636352211e1461038f57806364ba144e146103a257806370a08231146103b557600080fd5b806323b872dd1161019257806342966c681161016157806342966c681461033b5780634f6ccce71461034e57806355f804b31461036157806356d30bf81461037457600080fd5b806323b872dd146102d05780632a55205a146102e35780632f745c591461031557806342842e0e1461032857600080fd5b8063095ea7b3116101ce578063095ea7b31461027d57806318160ddd146102905780631a77447c146102a25780631f917921146102bd57600080fd5b806301ffc9a71461020057806302fa7c471461022857806306fdde031461023d578063081812fc14610252575b600080fd5b61021361020e366004611a7c565b61049e565b60405190151581526020015b60405180910390f35b61023b610236366004611ab5565b6104c9565b005b610245610580565b60405161021f9190611b48565b610265610260366004611b5b565b610612565b6040516001600160a01b03909116815260200161021f565b61023b61028b366004611b74565b61063b565b6008545b60405190815260200161021f565b6102aa61064a565b60405161021f9796959493929190611b9e565b61023b6102cb366004611cd1565b61073f565b61023b6102de366004611d06565b610753565b6102f66102f1366004611d42565b6107de565b604080516001600160a01b03909316835260208301919091520161021f565b610294610323366004611b74565b610827565b61023b610336366004611d06565b61088c565b61023b610349366004611b5b565b6108ac565b61029461035c366004611b5b565b610910565b61023b61036f366004611cd1565b610969565b61023b610382366004611d64565b61097d565b610245610a5d565b61026561039d366004611b5b565b610aeb565b61023b6103b0366004611e6f565b610af6565b6102946103c3366004611f2f565b610beb565b61023b610c33565b610245610c47565b6103eb6103e6366004611f2f565b610c54565b60405161021f9190611f4a565b600b546001600160a01b0316610265565b61023b610417366004611cd1565b610cf6565b610245610d0a565b61023b610432366004611f8e565b610d19565b61023b610445366004611fbf565b610d24565b610245610458366004611b5b565b610d3c565b600c54610294565b61023b61047336600461203b565b610d47565b61021361048636600461207f565b610db4565b61023b610499366004611f2f565b610de2565b60006001600160e01b0319821663152a902d60e11b14806104c357506104c382610e1d565b92915050565b6104d1610e42565b612710816001600160601b031611156105285760405162461bcd60e51b81526020600482015260146024820152730a4def2c2d8e8f240cccaca40e8dede40d0d2ced60631b60448201526064015b60405180910390fd5b6001600160a01b038216600160a01b6001600160601b0383169081028217600e556040519081527f8039bd6e4e7dba001c8840eb2e118d9d131246faa7d0d04335f7305127ec0b109060200160405180910390a25050565b60606000805461058f906120b2565b80601f01602080910402602001604051908101604052809291908181526020018280546105bb906120b2565b80156106085780601f106105dd57610100808354040283529160200191610608565b820191906000526020600020905b8154815290600101906020018083116105eb57829003601f168201915b5050505050905090565b600061061d82610e6f565b506000828152600460205260409020546001600160a01b03166104c3565b610646828233610ea8565b5050565b606080606060008060008061065d610580565b610665610d0a565b600f61067060085490565b600b546001600160a01b0316600e5483546001600160a01b03821691600160a01b90046001600160601b03169085906106a8906120b2565b80601f01602080910402602001604051908101604052809291908181526020018280546106d4906120b2565b80156107215780601f106106f657610100808354040283529160200191610721565b820191906000526020600020905b81548152906001019060200180831161070457829003601f168201915b50505050509450965096509650965096509650965090919293949596565b610747610e42565b60106106468282612132565b6001600160a01b03821661077d57604051633250574960e11b81526000600482015260240161051f565b600061078a838333610eb5565b9050836001600160a01b0316816001600160a01b0316146107d8576040516364283d7b60e01b81526001600160a01b038086166004830152602482018490528216604482015260640161051f565b50505050565b600e54600090819081906127109061080690600160a01b90046001600160601b031686612208565b610810919061221f565b600e546001600160a01b0316969095509350505050565b600061083283610beb565b82106108635760405163295f44f760e21b81526001600160a01b03841660048201526024810183905260440161051f565b506001600160a01b03919091166000908152600660209081526040808320938352929052205490565b6108a783838360405180602001604052806000815250610d24565b505050565b6108bf6108b882610aeb565b3383610eca565b6109045760405162461bcd60e51b81526020600482015260166024820152752737ba1030baba3437b934bd32b2103a3790313ab93760511b604482015260640161051f565b61090d81610f2d565b50565b600061091b60085490565b82106109445760405163295f44f760e21b8152600060048201526024810183905260440161051f565b6008828154811061095757610957612241565b90600052602060002001549050919050565b610971610e42565b600d6106468282612132565b610985610e42565b6000828152600260205260409020546001600160a01b0316156109ea5760405162461bcd60e51b815260206004820152601760248201527f546f6b656e20494420616c726561647920657869737473000000000000000000604482015260640161051f565b6109f48383610f68565b6109fe8282610f82565b600c548210610a1657610a12826001612257565b600c555b81836001600160a01b03167fd35bb95e09c04b219e35047ce7b7b300e3384264ef84a40456943dbc0fc17c1483604051610a509190611b48565b60405180910390a3505050565b60108054610a6a906120b2565b80601f0160208091040260200160405190810160405280929190818152602001828054610a96906120b2565b8015610ae35780601f10610ab857610100808354040283529160200191610ae3565b820191906000526020600020905b815481529060010190602001808311610ac657829003601f168201915b505050505081565b60006104c382610e6f565b610afe610e42565b8051825114610b485760405162461bcd60e51b8152602060048201526016602482015275082e4e4c2f2e640d8cadccee8d040dad2e6dac2e8c6d60531b604482015260640161051f565b603282511115610b915760405162461bcd60e51b815260206004820152601460248201527342617463682073697a6520746f6f206c6172676560601b604482015260640161051f565b60005b82518110156108a757610bd9838281518110610bb257610bb2612241565b6020026020010151838381518110610bcc57610bcc612241565b6020026020010151610d47565b80610be38161226a565b915050610b94565b60006001600160a01b038216610c17576040516322718ad960e21b81526000600482015260240161051f565b506001600160a01b031660009081526003602052604090205490565b610c3b610e42565b610c456000610fd2565b565b600f8054610a6a906120b2565b60606000610c6183610beb565b905060008167ffffffffffffffff811115610c7e57610c7e611c12565b604051908082528060200260200182016040528015610ca7578160200160208202803683370190505b50905060005b82811015610cee57610cbf8582610827565b828281518110610cd157610cd1612241565b602090810291909101015280610ce68161226a565b915050610cad565b509392505050565b610cfe610e42565b600f6106468282612132565b60606001805461058f906120b2565b610646338383611024565b610d2f848484610753565b6107d833858585856110bb565b60606104c3826111e6565b610d4f610e42565b600c80549081906000610d618361226a565b9190505550610d708382610f68565b610d7a8183610f82565b80836001600160a01b03167fd35bb95e09c04b219e35047ce7b7b300e3384264ef84a40456943dbc0fc17c1484604051610a509190611b48565b6001600160a01b03918216600090815260056020908152604080832093909416825291909152205460ff1690565b610dea610e42565b6001600160a01b038116610e1457604051631e4fbdf760e01b81526000600482015260240161051f565b61090d81610fd2565b60006001600160e01b03198216632483248360e11b14806104c357506104c3826112e2565b600b546001600160a01b03163314610c455760405163118cdaa760e01b815233600482015260240161051f565b6000818152600260205260408120546001600160a01b0316806104c357604051637e27328960e01b81526004810184905260240161051f565b6108a78383836001611307565b6000610ec284848461140d565b949350505050565b60006001600160a01b03831615801590610ec25750826001600160a01b0316846001600160a01b03161480610f045750610f048484610db4565b80610ec25750506000908152600460205260409020546001600160a01b03908116911614919050565b6000610f3c6000836000610eb5565b90506001600160a01b03811661064657604051637e27328960e01b81526004810183905260240161051f565b6106468282604051806020016040528060008152506114da565b6000828152600a60205260409020610f9a8282612132565b506040518281527ff8e1a15aba9398e019f0b49df1a4fde98ee17ae345cb5f6b5e2c27f5033e8ce79060200160405180910390a15050565b600b80546001600160a01b038381166001600160a01b0319831681179093556040519116919082907f8be0079c531659141344cd1fd0a4f28419497f9722a3daafe3b4186f6b6457e090600090a35050565b6001600160a01b03821661105657604051630b61174360e31b81526001600160a01b038316600482015260240161051f565b6001600160a01b03838116600081815260056020908152604080832094871680845294825291829020805460ff191686151590811790915591519182527f17307eab39ab6107e8899845ad3d59bd9653f200f220920489ca2b5937696c319101610a50565b6001600160a01b0383163b156111df57604051630a85bd0160e11b81526001600160a01b0384169063150b7a02906110fd908890889087908790600401612283565b6020604051808303816000875af1925050508015611138575060408051601f3d908101601f19168201909252611135918101906122c0565b60015b6111a1573d808015611166576040519150601f19603f3d011682016040523d82523d6000602084013e61116b565b606091505b50805160000361119957604051633250574960e11b81526001600160a01b038516600482015260240161051f565b805160208201fd5b6001600160e01b03198116630a85bd0160e11b146111dd57604051633250574960e11b81526001600160a01b038516600482015260240161051f565b505b5050505050565b60606111f182610e6f565b506000828152600a60205260408120805461120b906120b2565b80601f0160208091040260200160405190810160405280929190818152602001828054611237906120b2565b80156112845780601f1061125957610100808354040283529160200191611284565b820191906000526020600020905b81548152906001019060200180831161126757829003601f168201915b5050505050905060006112956114f2565b905080516000036112a7575092915050565b8151156112d95780826040516020016112c19291906122dd565b60405160208183030381529060405292505050919050565b610ec284611501565b60006001600160e01b0319821663780e9d6360e01b14806104c357506104c382611569565b808061131b57506001600160a01b03821615155b156113dd57600061132b84610e6f565b90506001600160a01b038316158015906113575750826001600160a01b0316816001600160a01b031614155b801561136a57506113688184610db4565b155b156113935760405163a9fbf51f60e01b81526001600160a01b038416600482015260240161051f565b81156113db5783856001600160a01b0316826001600160a01b03167f8c5be1e5ebec7d5bd14f71427d1e84f3dd0314c0f7b2291e5b200ac8c7c3b92560405160405180910390a45b505b5050600090815260046020526040902080546001600160a01b0319166001600160a01b0392909216919091179055565b60008061141b8585856115b9565b90506001600160a01b0381166114785761147384600880546000838152600960205260408120829055600182018355919091527ff3f7a9fe364faab93b216da50a3214154f22a0a2b415b23a84c8169e8b636ee30155565b61149b565b846001600160a01b0316816001600160a01b03161461149b5761149b81856116b2565b6001600160a01b0385166114b7576114b284611733565b610ec2565b846001600160a01b0316816001600160a01b031614610ec257610ec285856117e2565b6114e48383611832565b6108a73360008585856110bb565b6060600d805461058f906120b2565b606061150c82610e6f565b5060006115176114f2565b905060008151116115375760405180602001604052806000815250611562565b8061154184611897565b6040516020016115529291906122dd565b6040516020818303038152906040525b9392505050565b60006001600160e01b031982166380ac58cd60e01b148061159a57506001600160e01b03198216635b5e139f60e01b145b806104c357506301ffc9a760e01b6001600160e01b03198316146104c3565b6000828152600260205260408120546001600160a01b03908116908316156115e6576115e681848661192a565b6001600160a01b0381161561162457611603600085600080611307565b6001600160a01b038116600090815260036020526040902080546000190190555b6001600160a01b03851615611653576001600160a01b0385166000908152600360205260409020805460010190555b60008481526002602052604080822080546001600160a01b0319166001600160a01b0389811691821790925591518793918516917fddf252ad1be2c89b69c2b068fc378daa952ba7f163c4a11628f55a4df523b3ef91a4949350505050565b60006116bd83610beb565b6000838152600760209081526040808320546001600160a01b038816845260069092529091209192509081831461171457600083815260208281526040808320548584528184208190558352600790915290208290555b6000938452600760209081526040808620869055938552525081205550565b6008546000906117459060019061230c565b6000838152600960205260408120546008805493945090928490811061176d5761176d612241565b90600052602060002001549050806008838154811061178e5761178e612241565b60009182526020808320909101929092558281526009909152604080822084905585825281205560088054806117c6576117c661231f565b6001900381819060005260206000200160009055905550505050565b600060016117ef84610beb565b6117f9919061230c565b6001600160a01b039093166000908152600660209081526040808320868452825280832085905593825260079052919091209190915550565b6001600160a01b03821661185c57604051633250574960e11b81526000600482015260240161051f565b600061186a83836000610eb5565b90506001600160a01b038116156108a7576040516339e3563760e11b81526000600482015260240161051f565b606060006118a48361198e565b600101905060008167ffffffffffffffff8111156118c4576118c4611c12565b6040519080825280601f01601f1916602001820160405280156118ee576020820181803683370190505b5090508181016020015b600019016f181899199a1a9b1b9c1cb0b131b232b360811b600a86061a8153600a85049450846118f857509392505050565b611935838383610eca565b6108a7576001600160a01b03831661196357604051637e27328960e01b81526004810182905260240161051f565b60405163177e802f60e01b81526001600160a01b03831660048201526024810182905260440161051f565b60008072184f03e93ff9f4daa797ed6e38ed64bf6a1f0160401b83106119cd5772184f03e93ff9f4daa797ed6e38ed64bf6a1f0160401b830492506040015b6d04ee2d6d415b85acef810000000083106119f9576d04ee2d6d415b85acef8100000000830492506020015b662386f26fc100008310611a1757662386f26fc10000830492506010015b6305f5e1008310611a2f576305f5e100830492506008015b6127108310611a4357612710830492506004015b60648310611a55576064830492506002015b600a83106104c35760010192915050565b6001600160e01b03198116811461090d57600080fd5b600060208284031215611a8e57600080fd5b813561156281611a66565b80356001600160a01b0381168114611ab057600080fd5b919050565b60008060408385031215611ac857600080fd5b611ad183611a99565b915060208301356001600160601b0381168114611aed57600080fd5b809150509250929050565b60005b83811015611b13578181015183820152602001611afb565b50506000910152565b60008151808452611b34816020860160208601611af8565b601f01601f19169290920160200192915050565b6020815260006115626020830184611b1c565b600060208284031215611b6d57600080fd5b5035919050565b60008060408385031215611b8757600080fd5b611b9083611a99565b946020939093013593505050565b60e081526000611bb160e083018a611b1c565b8281036020840152611bc3818a611b1c565b90508281036040840152611bd78189611b1c565b606084019790975250506001600160a01b0393841660808201529190921660a08201526001600160601b0390911660c0909101529392505050565b634e487b7160e01b600052604160045260246000fd5b604051601f8201601f1916810167ffffffffffffffff81118282101715611c5157611c51611c12565b604052919050565b600067ffffffffffffffff831115611c7357611c73611c12565b611c86601f8401601f1916602001611c28565b9050828152838383011115611c9a57600080fd5b828260208301376000602084830101529392505050565b600082601f830112611cc257600080fd5b61156283833560208501611c59565b600060208284031215611ce357600080fd5b813567ffffffffffffffff811115611cfa57600080fd5b610ec284828501611cb1565b600080600060608486031215611d1b57600080fd5b611d2484611a99565b9250611d3260208501611a99565b9150604084013590509250925092565b60008060408385031215611d5557600080fd5b50508035926020909101359150565b600080600060608486031215611d7957600080fd5b611d8284611a99565b925060208401359150604084013567ffffffffffffffff811115611da557600080fd5b611db186828701611cb1565b9150509250925092565b600067ffffffffffffffff821115611dd557611dd5611c12565b5060051b60200190565b600082601f830112611df057600080fd5b81356020611e05611e0083611dbb565b611c28565b82815260059290921b84018101918181019086841115611e2457600080fd5b8286015b84811015611e6457803567ffffffffffffffff811115611e485760008081fd5b611e568986838b0101611cb1565b845250918301918301611e28565b509695505050505050565b60008060408385031215611e8257600080fd5b823567ffffffffffffffff80821115611e9a57600080fd5b818501915085601f830112611eae57600080fd5b81356020611ebe611e0083611dbb565b82815260059290921b84018101918181019089841115611edd57600080fd5b948201945b83861015611f0257611ef386611a99565b82529482019490820190611ee2565b96505086013592505080821115611f1857600080fd5b50611f2585828601611ddf565b9150509250929050565b600060208284031215611f4157600080fd5b61156282611a99565b6020808252825182820181905260009190848201906040850190845b81811015611f8257835183529284019291840191600101611f66565b50909695505050505050565b60008060408385031215611fa157600080fd5b611faa83611a99565b915060208301358015158114611aed57600080fd5b60008060008060808587031215611fd557600080fd5b611fde85611a99565b9350611fec60208601611a99565b925060408501359150606085013567ffffffffffffffff81111561200f57600080fd5b8501601f8101871361202057600080fd5b61202f87823560208401611c59565b91505092959194509250565b6000806040838503121561204e57600080fd5b61205783611a99565b9150602083013567ffffffffffffffff81111561207357600080fd5b611f2585828601611cb1565b6000806040838503121561209257600080fd5b61209b83611a99565b91506120a960208401611a99565b90509250929050565b600181811c908216806120c657607f821691505b6020821081036120e657634e487b7160e01b600052602260045260246000fd5b50919050565b601f8211156108a757600081815260208120601f850160051c810160208610156121135750805b601f850160051c820191505b818110156111dd5782815560010161211f565b815167ffffffffffffffff81111561214c5761214c611c12565b6121608161215a84546120b2565b846120ec565b602080601f831160018114612195576000841561217d5750858301515b600019600386901b1c1916600185901b1785556111dd565b600085815260208120601f198616915b828110156121c4578886015182559484019460019091019084016121a5565b50858210156121e25787850151600019600388901b60f8161c191681555b5050505050600190811b01905550565b634e487b7160e01b600052601160045260246000fd5b80820281158282048414176104c3576104c36121f2565b60008261223c57634e487b7160e01b600052601260045260246000fd5b500490565b634e487b7160e01b600052603260045260246000fd5b808201808211156104c3576104c36121f2565b60006001820161227c5761227c6121f2565b5060010190565b6001600160a01b03858116825284166020820152604081018390526080606082018190526000906122b690830184611b1c565b9695505050505050565b6000602082840312156122d257600080fd5b815161156281611a66565b600083516122ef818460208801611af8565b835190830190612303818360208801611af8565b01949350505050565b818103818111156104c3576104c36121f2565b634e487b7160e01b600052603160045260246000fdfea264697066735822122092007e9c6a43c90613a4643588f5f9d92d9b1a265942f4b44d3a13324ac1768764736f6c63430008140033",
  "linkReferences": {},
  "deployedLinkReferences": {}
}