{
  "_format": "hh-sol-artifact-1",
  "contractName": "GasStationExtension",
  "sourceName": "contracts/GasStationExtension.sol",
  "abi": [
    {
      "inputs": [
        {
          "internalType": "address",
          "name": "_aavePool",
          "type": "address"
        },
        {
          "internalType": "address",
          "name": "_weth",
          "type": "address"
        },
        {
          "internalType": "address",
          "name": "_inch",
          "type": "address"
        }
      ],
      "stateMutability": "nonpayable",
      "type": "constructor"
    },
    {
      "inputs": [
        {
          "internalType": "address",
          "name": "owner",
          "type": "address"
        }
      ],
      "name": "OwnableInvalidOwner",
      "type": "error"
    },
    {
      "inputs": [
        {
          "internalType": "address",
          "name": "account",
          "type": "address"
        }
      ],
      "name": "OwnableUnauthorizedAccount",
      "type": "error"
    },
    {
      "inputs": [],
      "name": "ReentrancyGuardReentrantCall",
      "type": "error"
    },
    {
      "anonymous": false,
      "inputs": [
        {
          "indexed": true,
          "internalType": "address",
          "name": "token",
          "type": "address"
        },
        {
          "indexed": false,
          "internalType": "uint256",
          "name": "amount",
          "type": "uint256"
        }
      ],
      "name": "FeesCollected",
      "type": "event"
    },
    {
      "anonymous": false,
      "inputs": [
        {
          "indexed": true,
          "internalType": "bytes32",
          "name": "batchId",
          "type": "bytes32"
        },
        {
          "indexed": false,
          "internalType": "uint256",
          "name": "amount",
          "type": "uint256"
        }
      ],
      "name": "FlashLoanInitiated",
      "type": "event"
    },
    {
      "anonymous": false,
      "inputs": [
        {
          "indexed": true,
          "internalType": "address",
          "name": "owner",
          "type": "address"
        }
      ],
      "name": "GasStationInitialized",
      "type": "event"
    },
    {
      "anonymous": false,
      "inputs": [
        {
          "indexed": true,
          "internalType": "bytes32",
          "name": "orderHash1",
          "type": "bytes32"
        },
        {
          "indexed": true,
          "internalType": "bytes32",
          "name": "orderHash2",
          "type": "bytes32"
        }
      ],
      "name": "OrderPairRegistered",
      "type": "event"
    },
    {
      "anonymous": false,
      "inputs": [
        {
          "indexed": true,
          "internalType": "address",
          "name": "previousOwner",
          "type": "address"
        },
        {
          "indexed": true,
          "internalType": "address",
          "name": "newOwner",
          "type": "address"
        }
      ],
      "name": "OwnershipTransferred",
      "type": "event"
    },
    {
      "inputs": [],
      "name": "AAVE_POOL",
      "outputs": [
        {
          "internalType": "contract IPool",
          "name": "",
          "type": "address"
        }
      ],
      "stateMutability": "view",
      "type": "function"
    },
    {
      "inputs": [],
      "name": "GAS_STATION_FEE_BASIS_POINTS",
      "outputs": [
        {
          "internalType": "uint256",
          "name": "",
          "type": "uint256"
        }
      ],
      "stateMutability": "view",
      "type": "function"
    },
    {
      "inputs": [],
      "name": "INCH_LOP",
      "outputs": [
        {
          "internalType": "contract I1inchLimitOrderProtocol",
          "name": "",
          "type": "address"
        }
      ],
      "stateMutability": "view",
      "type": "function"
    },
    {
      "inputs": [],
      "name": "MAX_GAS_PRICE",
      "outputs": [
        {
          "internalType": "uint256",
          "name": "",
          "type": "uint256"
        }
      ],
      "stateMutability": "view",
      "type": "function"
    },
    {
      "inputs": [],
      "name": "WETH",
      "outputs": [
        {
          "internalType": "address",
          "name": "",
          "type": "address"
        }
      ],
      "stateMutability": "view",
      "type": "function"
    },
    {
      "inputs": [
        {
          "internalType": "bytes32",
          "name": "",
          "type": "bytes32"
        }
      ],
      "name": "completedPairs",
      "outputs": [
        {
          "internalType": "bool",
          "name": "",
          "type": "bool"
        }
      ],
      "stateMutability": "view",
      "type": "function"
    },
    {
      "inputs": [
        {
          "internalType": "uint256",
          "name": "gasPrice",
          "type": "uint256"
        },
        {
          "internalType": "uint256",
          "name": "gasLimit",
          "type": "uint256"
        }
      ],
      "name": "estimateGasCost",
      "outputs": [
        {
          "internalType": "uint256",
          "name": "",
          "type": "uint256"
        }
      ],
      "stateMutability": "pure",
      "type": "function"
    },
    {
      "inputs": [
        {
          "internalType": "address[]",
          "name": "assets",
          "type": "address[]"
        },
        {
          "internalType": "uint256[]",
          "name": "amounts",
          "type": "uint256[]"
        },
        {
          "internalType": "uint256[]",
          "name": "premiums",
          "type": "uint256[]"
        },
        {
          "internalType": "address",
          "name": "initiator",
          "type": "address"
        },
        {
          "internalType": "bytes",
          "name": "params",
          "type": "bytes"
        }
      ],
      "name": "executeOperation",
      "outputs": [
        {
          "internalType": "bool",
          "name": "",
          "type": "bool"
        }
      ],
      "stateMutability": "nonpayable",
      "type": "function"
    },
    {
      "inputs": [
        {
          "internalType": "bytes32",
          "name": "",
          "type": "bytes32"
        }
      ],
      "name": "flashLoanActive",
      "outputs": [
        {
          "internalType": "bool",
          "name": "",
          "type": "bool"
        }
      ],
      "stateMutability": "view",
      "type": "function"
    },
    {
      "inputs": [],
      "name": "getAavePool",
      "outputs": [
        {
          "internalType": "address",
          "name": "",
          "type": "address"
        }
      ],
      "stateMutability": "view",
      "type": "function"
    },
    {
      "inputs": [
        {
          "internalType": "bytes32",
          "name": "orderHash",
          "type": "bytes32"
        }
      ],
      "name": "getCounterpartOrder",
      "outputs": [
        {
          "internalType": "bytes32",
          "name": "",
          "type": "bytes32"
        }
      ],
      "stateMutability": "view",
      "type": "function"
    },
    {
      "inputs": [],
      "name": "getSupportedTokens",
      "outputs": [
        {
          "internalType": "address[]",
          "name": "tokens",
          "type": "address[]"
        }
      ],
      "stateMutability": "pure",
      "type": "function"
    },
    {
      "inputs": [],
      "name": "getWETH",
      "outputs": [
        {
          "internalType": "address",
          "name": "",
          "type": "address"
        }
      ],
      "stateMutability": "view",
      "type": "function"
    },
    {
      "inputs": [
        {
          "internalType": "bytes32",
          "name": "orderHash1",
          "type": "bytes32"
        },
        {
          "internalType": "bytes32",
          "name": "orderHash2",
          "type": "bytes32"
        },
        {
          "internalType": "address",
          "name": "maker1",
          "type": "address"
        },
        {
          "internalType": "address",
          "name": "maker2",
          "type": "address"
        },
        {
          "internalType": "address",
          "name": "token1",
          "type": "address"
        },
        {
          "internalType": "address",
          "name": "token2",
          "type": "address"
        },
        {
          "internalType": "uint256",
          "name": "estimatedGasUsed",
          "type": "uint256"
        }
      ],
      "name": "initiateFlashLoanSwap",
      "outputs": [],
      "stateMutability": "nonpayable",
      "type": "function"
    },
    {
      "inputs": [
        {
          "internalType": "bytes32",
          "name": "batchId",
          "type": "bytes32"
        }
      ],
      "name": "isFlashLoanActive",
      "outputs": [
        {
          "internalType": "bool",
          "name": "",
          "type": "bool"
        }
      ],
      "stateMutability": "view",
      "type": "function"
    },
    {
      "inputs": [
        {
          "internalType": "bytes32",
          "name": "orderHash",
          "type": "bytes32"
        }
      ],
      "name": "isOrderPairReady",
      "outputs": [
        {
          "internalType": "bool",
          "name": "",
          "type": "bool"
        }
      ],
      "stateMutability": "view",
      "type": "function"
    },
    {
      "inputs": [
        {
          "internalType": "address",
          "name": "token",
          "type": "address"
        }
      ],
      "name": "isTokenSupported",
      "outputs": [
        {
          "internalType": "bool",
          "name": "",
          "type": "bool"
        }
      ],
      "stateMutability": "view",
      "type": "function"
    },
    {
      "inputs": [
        {
          "internalType": "bytes32",
          "name": "orderHash",
          "type": "bytes32"
        }
      ],
      "name": "markPairCompleted",
      "outputs": [],
      "stateMutability": "nonpayable",
      "type": "function"
    },
    {
      "inputs": [
        {
          "internalType": "bytes32",
          "name": "",
          "type": "bytes32"
        }
      ],
      "name": "orderPairs",
      "outputs": [
        {
          "internalType": "bytes32",
          "name": "",
          "type": "bytes32"
        }
      ],
      "stateMutability": "view",
      "type": "function"
    },
    {
      "inputs": [],
      "name": "owner",
      "outputs": [
        {
          "internalType": "address",
          "name": "",
          "type": "address"
        }
      ],
      "stateMutability": "view",
      "type": "function"
    },
    {
      "inputs": [
        {
          "internalType": "bytes32",
          "name": "orderHash1",
          "type": "bytes32"
        },
        {
          "internalType": "bytes32",
          "name": "orderHash2",
          "type": "bytes32"
        }
      ],
      "name": "registerOrderPair",
      "outputs": [],
      "stateMutability": "nonpayable",
      "type": "function"
    },
    {
      "inputs": [
        {
          "internalType": "bytes32",
          "name": "",
          "type": "bytes32"
        }
      ],
      "name": "registeredOrders",
      "outputs": [
        {
          "internalType": "bool",
          "name": "",
          "type": "bool"
        }
      ],
      "stateMutability": "view",
      "type": "function"
    },
    {
      "inputs": [],
      "name": "renounceOwnership",
      "outputs": [],
      "stateMutability": "nonpayable",
      "type": "function"
    },
    {
      "inputs": [
        {
          "internalType": "address",
          "name": "token",
          "type": "address"
        },
        {
          "internalType": "uint256",
          "name": "amount",
          "type": "uint256"
        },
        {
          "internalType": "address",
          "name": "recipient",
          "type": "address"
        }
      ],
      "name": "rescueTokens",
      "outputs": [],
      "stateMutability": "nonpayable",
      "type": "function"
    },
    {
      "inputs": [
        {
          "internalType": "bytes32",
          "name": "batchId",
          "type": "bytes32"
        }
      ],
      "name": "resetFlashLoanState",
      "outputs": [],
      "stateMutability": "nonpayable",
      "type": "function"
    },
    {
      "inputs": [
        {
          "internalType": "bytes32",
          "name": "orderHash",
          "type": "bytes32"
        }
      ],
      "name": "resetOrderPair",
      "outputs": [],
      "stateMutability": "nonpayable",
      "type": "function"
    },
    {
      "inputs": [
        {
          "internalType": "address",
          "name": "newOwner",
          "type": "address"
        }
      ],
      "name": "transferOwnership",
      "outputs": [],
      "stateMutability": "nonpayable",
      "type": "function"
    },
    {
      "inputs": [],
      "name": "version",
      "outputs": [
        {
          "internalType": "string",
          "name": "",
          "type": "string"
        }
      ],
      "stateMutability": "pure",
      "type": "function"
    },
    {
      "stateMutability": "payable",
      "type": "receive"
    }
  ],
  "bytecode": "0x60e034620001d557601f62001e8138819003918201601f19168301916001600160401b03831184841017620001da57808492606094604052833981010312620001d5576200004d81620001f0565b6200006960406200006160208501620001f0565b9301620001f0565b903315620001bc5760008054336001600160a01b03198216811783556040519592946001600160a01b039490939285929083167f8be0079c531659141344cd1fd0a4f28419497f9722a3daafe3b4186f6b6457e08880a360018055808216620001b6575073794a61358d6845594f94dc1db02a252b5b4814ad5b16608052808316620001b057507382af49447d8a07e3bd95bd0d56f35241523fbab15b60a052808216620001aa575073111111125421ca6dc452d289314280a0f8842a655b1660c0527f8b8be9ad2cdd0f50c147f28cc3416483d246cd9e110f6651dfe6b55d8c10d1c7339180a2611c7b908162000206823960805181818161066701528181610fc301528181611159015281816116f501526117b0015260a0518181816105c5015281816113c3015281816118bc0152611b42015260c0518161173a0152f35b62000128565b62000106565b620000e3565b604051631e4fbdf760e01b815260006004820152602490fd5b600080fd5b634e487b7160e01b600052604160045260246000fd5b51906001600160a01b0382168203620001d55756fe608080604052600436101561001d575b50361561001b57600080fd5b005b600090813560e01c90816308a016751461179c575080630926d2f1146114875780630afbfbc0146117695780631095c5621461172457806313561b55146116df578063248d788e146116c05780632b77838c146116965780634fce04391461160157806354fd4d5014611594578063715018a61461153a57806375151b631461150c57806383c5aa36146114dd5780638da5cb5b146114b65780638e31629f14611487578063920f5c8414610f1b5780639794cc9a14610ef1578063a9e91b9e14610e87578063ad5c464814610c39578063b37fd19014610c5a578063c3be360314610c3e578063cae5f11e14610c39578063d3c7c2c714610a36578063d9679f09146103fb578063e3bbb4f1146103db578063f0fb86ab1461039b578063f2fde38b1461030b578063f3cb4b10146102dc5763f5de8bbc0361000f57346102d95760403660031901126102d957602435600435610179611928565b80835260206002815260ff604085205416610295578284526002815260ff6040852054166102515782821461020d57600390828552600281526040852060ff199060018282541617905584865260016040872091825416179055828552528160408420558183528060408420557fbb4e6272308f0afad3794647b60f58d10a513484fc478b5c30be0eb683ebe1c08380a380f35b6064906040519062461bcd60e51b82526004820152601d60248201527f43616e6e6f742070616972206f72646572207769746820697473656c660000006044820152fd5b6064906040519062461bcd60e51b82526004820152601960248201527f4f726465723220616c72656164792072656769737465726564000000000000006044820152fd5b6064906040519062461bcd60e51b82526004820152601960248201527f4f726465723120616c72656164792072656769737465726564000000000000006044820152fd5b80fd5b50346102d95760203660031901126102d95760ff60406020926004358152600284522054166040519015158152f35b50346102d95760203660031901126102d95761032561181f565b61032d611928565b6001600160a01b0390811690811561038257600054826bffffffffffffffffffffffff60a01b821617600055167f8be0079c531659141344cd1fd0a4f28419497f9722a3daafe3b4186f6b6457e0600080a380f35b604051631e4fbdf760e01b815260048101849052602490fd5b50346102d95760203660031901126102d9576040602091600435808252600284526103cb60ff84842054166119ad565b8152600383522054604051908152f35b50346102d957806003193601126102d9576020604051640ba43b74008152f35b50346102d95760e03660031901126102d95761041561184b565b9061041e611835565b91608435906001600160a01b0382168203610a315760a435916001600160a01b0383168303610a315761044f611928565b600260015414610a1f576002600155610469600435611954565b156109e3576004358452600360205260249485356040862054036109aa576001600160a01b038316151580610998575b156109545760c43515610919576104af82611b2e565b156108de576104bd84611b2e565b156108a35760405160208101906104fb816104ed428b356004358791606093918352602083015260408201520190565b03601f198101835282611a3d565b51902093848652600560205260ff60408720541661084e5761051f3a60c435611a5f565b92831561080a57858752600560205260408720805460ff191660011790556001600160a01b038116159283156107f8575b6040519561055d876119f0565b6004358752893560208801526001600160a01b0390811660408089019190915291811660608801529182166080870152911660a085015260c43560c085015290151560e084015251926105af84611a21565b60018452602036818601376105c384611aa0565b7f00000000000000000000000000000000000000000000000000000000000000006001600160a01b03169052604051906105fc82611a21565b60018252602036818401378261061183611aa0565b527f990ac04aa5504882b7bd58accf2281d60f06646ad7f62fd61ca8418dabfbdbbb60206040519461064286611a21565b600186528136818801378861065687611aa0565b52604051908152a260018060a01b037f0000000000000000000000000000000000000000000000000000000000000000169060e060405194805160208701526020810151604087015260018060a01b03604082015116606087015260018060a01b03606082015116608087015260018060a01b0360808201511660a087015260018060a01b0360a08201511660c087015260c081015182870152015115156101009081860152845261012084019484861067ffffffffffffffff8711176107e35786975085604052823b156107df57869461079c879593610784879561077361075e8b9763ab9c4b5d60e01b8a523061012489015260e06101448901526102048801906118eb565b61012319948588830301610164890152611ac1565b908386830301610184870152611ac1565b90306101a4850152838203016101c4840152826117df565b6101e482018390520361011f1901925af180156107d4576107c0575b506001805580f35b6107c990611a0d565b6102d95780386107b8565b6040513d84823e3d90fd5b8680fd5b87634e487b7160e01b60005260416004526000fd5b6001600160a01b038316159350610550565b60405162461bcd60e51b8152602060048201526019818a01527f43616e6e6f742063616c63756c6174652067617320636f7374000000000000006044820152606490fd5b60405162461bcd60e51b8152602060048201526028818901527f466c617368206c6f616e20616c72656164792061637469766520666f722074686044820152670d2e640c4c2e8c6d60c31b6064820152608490fd5b60405162461bcd60e51b81526020600482015260148188015273151bdad95b8c881b9bdd081cdd5c1c1bdc9d195960621b6044820152606490fd5b60405162461bcd60e51b81526020600482015260148188015273151bdad95b8c481b9bdd081cdd5c1c1bdc9d195960621b6044820152606490fd5b60405162461bcd60e51b81526020600482015260148188015273496e76616c69642067617320657374696d61746560601b6044820152606490fd5b60405162461bcd60e51b8152602060048201526017818801527f496e76616c6964206d616b6572206164647265737365730000000000000000006044820152606490fd5b506001600160a01b0381161515610499565b60405162461bcd60e51b8152602060048201526012818801527124b73b30b634b21037b93232b9103830b4b960711b6044820152606490fd5b60405162461bcd60e51b81526020600482015260146024820152734f726465722070616972206e6f7420726561647960601b6044820152606490fd5b604051633ee5aeb560e01b8152600490fd5b600080fd5b50346102d957806003193601126102d95760405160c0810181811067ffffffffffffffff821117610c23576040526005815260a03660208301377382af49447d8a07e3bd95bd0d56f35241523fbab1610a8e82611aa0565b52805191600192831015610c0d5773af88d065e77c8cc2239327c5edb3a432268e58316040830152815160021015610c0d5773fd086bc7cd5c481dcc9c85ebe478a1c0b69fcbb96060830152815160031015610c0d57732f2a2543b76a4166549f7aab2e75bef0aefc5b0f6080830152815160041015610c0d5773912ce59144191c1204e64559fe8253a0e49e654860a0830152815191838301809311610bf957610b3883611a88565b92610b466040519485611a3d565b808452610b55601f1991611a88565b0136602085013781610b6684611aa0565b5281845b610b89575b60405160208082528190610b85908201876118eb565b0390f35b8151811015610bf4576001600160a01b03610ba48284611aad565b5116858201808311610be057610bba9086611aad565b526000198114610bcc57840184610b6a565b634e487b7160e01b83526011600452602483fd5b634e487b7160e01b85526011600452602485fd5b610b6f565b634e487b7160e01b82526011600452602482fd5b634e487b7160e01b600052603260045260246000fd5b634e487b7160e01b600052604160045260246000fd5b6118a6565b50346102d957806003193601126102d9576020604051600a8152f35b50346102d95760603660031901126102d957610c7461181f565b60243590610c8061184b565b610c88611928565b6001600160a01b03818116928315610e4e571680610d1a575050814710610cd557828080938193828215610ccc575bf115610cc05780f35b604051903d90823e3d90fd5b506108fc610cb7565b60405162461bcd60e51b815260206004820152601860248201527f496e73756666696369656e74204554482062616c616e636500000000000000006044820152606490fd5b6040516370a0823160e01b815230600482015260209493509091908481602481865afa8015610e435784918791610e0e575b5010610dc95760405163a9059cbb60e01b81526001600160a01b03919091166004820152602481019290925282908290604490829087905af18015610dbe57610d9457505080f35b81610db392903d10610db7575b610dab8183611a3d565b810190611b16565b5080f35b503d610da1565b6040513d85823e3d90fd5b60405162461bcd60e51b815260048101859052601a60248201527f496e73756666696369656e7420746f6b656e2062616c616e63650000000000006044820152606490fd5b809250868092503d8311610e3c575b610e278183611a3d565b81010312610e385783905138610d4c565b8580fd5b503d610e1d565b6040513d88823e3d90fd5b60405162461bcd60e51b8152602060048201526011602482015270125b9d985b1a59081c9958da5c1a595b9d607a1b6044820152606490fd5b50346102d95760203660031901126102d957600435610ea4611928565b8082526002602052610ebc60ff6040842054166119ad565b8152600360205260408120546004602052604082209060ff199160018382541617905582526001604083209182541617905580f35b50346102d95760203660031901126102d95760406020916004358152600383522054604051908152f35b50346102d95760a03660031901126102d95767ffffffffffffffff9060043582811161148357610f4f903690600401611875565b929060243582811161147f57610f69903690600401611875565b9092604435818111610e3857610f83903690600401611875565b9091610f8d611835565b908060843511611368573660236084350112156113685760843560040135908111611368576084350190366024830111611368577f00000000000000000000000000000000000000000000000000000000000000006001600160a01b0316330361143a57306001600160a01b03909116036113f55760018814806113b1575b1561136c5761010090608435900312610e38576040519461102c866119f0565b608435602481013587526044810135602088015261104c90606401611861565b604087015261105e6084803501611861565b606087015261107160a460843501611861565b608087015261108460c460843501611861565b60a087015260843560e481013560c08801526101040135801515908181036112d45760e0880152611300575b60808601516001600160a01b031693156112ec5760209035936040518581527f9dc46f23cfb5ddcad0ae7ea2be38d47fec07bb9382ec7e564efc69e036dd66ce928391a260018060a01b0360a0870151166000916020604051878152a260e0860151611258575b6112445715611230579061112c913590611b09565b931561121c576111a2839460209261114a60018060a01b0391611af5565b60405163095ea7b360e01b81527f00000000000000000000000000000000000000000000000000000000000000006001600160a01b031660048201526024810193909352919687939190921691839182906044820190565b03925af19283156107d4576040936111fd575b50805160209182015184519283019182526040830152426060830152906111df81608081016104ed565b519020815260056020522060ff198154169055602060405160018152f35b6112159060203d602011610db757610dab8183611a3d565b50386111b5565b634e487b7160e01b83526032600452602483fd5b634e487b7160e01b85526032600452602485fd5b634e487b7160e01b86526032600452602486fd5b87156112ec576001600160a01b0361126f86611af5565b1682156112d857611281843586611b09565b90803b156112d4578890600460405180948193630d0e30db60e41b83525af180156112c9579088916112b5575b5050611117565b6112be90611a0d565b6107df5786386112ae565b6040513d8a823e3d90fd5b8880fd5b634e487b7160e01b88526032600452602488fd5b634e487b7160e01b87526032600452602487fd5b87156112ec576001600160a01b0361131786611af5565b1684156112d857803b1561136857878091602460405180948193632e1a7d4d60e01b8352873560048401525af180156112c957611355575b506110b0565b61136190979197611a0d565b953861134f565b8780fd5b60405162461bcd60e51b815260206004820152601860248201527f496e76616c696420666c617368206c6f616e20617373657400000000000000006044820152606490fd5b5087156112ec576113c185611af5565b7f00000000000000000000000000000000000000000000000000000000000000006001600160a01b0390811691161461100c565b60405162461bcd60e51b815260206004820152601c60248201527f496e76616c696420666c617368206c6f616e20696e69746961746f72000000006044820152606490fd5b60405162461bcd60e51b815260206004820152601860248201527f43616c6c6572206d757374206265204161766520506f6f6c00000000000000006044820152606490fd5b8380fd5b5080fd5b50346102d95760203660031901126102d95760ff60406020926004358152600584522054166040519015158152f35b50346102d957806003193601126102d957546040516001600160a01b039091168152602090f35b50346102d95760203660031901126102d95760ff60406020926004358152600484522054166040519015158152f35b50346102d95760203660031901126102d957602061153061152b61181f565b611b2e565b6040519015158152f35b50346102d957806003193601126102d957611553611928565b80546001600160a01b03198116825581906001600160a01b03167f8be0079c531659141344cd1fd0a4f28419497f9722a3daafe3b4186f6b6457e08280a380f35b50346102d957806003193601126102d9576040516040810181811067ffffffffffffffff8211176115ed57610b85925060405260058152640312e322e360dc1b60208201526040519182916020835260208301906117df565b634e487b7160e01b83526041600452602483fd5b50346102d95760208060031936011261148357600360043591611622611928565b8284526002815261163960ff6040862054166119ad565b828452818152604084205492600282526040852060ff199081815416905584865260408620818154169055818652600483526040862081815416905584865260408620908154169055845252816040812055815280604081205580f35b50346102d95760403660031901126102d95760206116b8602435600435611a5f565b604051908152f35b50346102d95760203660031901126102d9576020611530600435611954565b50346102d957806003193601126102d9576040517f00000000000000000000000000000000000000000000000000000000000000006001600160a01b03168152602090f35b50346102d957806003193601126102d9576040517f00000000000000000000000000000000000000000000000000000000000000006001600160a01b03168152602090f35b50346102d95760203660031901126102d957611783611928565b6004358152600560205260408120805460ff1916905580f35b9050346114835781600319360112611483577f00000000000000000000000000000000000000000000000000000000000000006001600160a01b03168152602090f35b919082519283825260005b84811061180b575050826000602080949584010152601f8019910116010190565b6020818301810151848301820152016117ea565b600435906001600160a01b0382168203610a3157565b606435906001600160a01b0382168203610a3157565b604435906001600160a01b0382168203610a3157565b35906001600160a01b0382168203610a3157565b9181601f84011215610a315782359167ffffffffffffffff8311610a31576020808501948460051b010111610a3157565b34610a31576000366003190112610a31576040517f00000000000000000000000000000000000000000000000000000000000000006001600160a01b03168152602090f35b90815180825260208080930193019160005b82811061190b575050505090565b83516001600160a01b0316855293810193928101926001016118fd565b6000546001600160a01b0316330361193c57565b60405163118cdaa760e01b8152336004820152602490fd5b6000818152600260205260ff604082205416918261198c575b8261197757505090565b81526004602052604090205460ff1615919050565b9150600360205260408120548152600260205260ff6040822054169161196d565b156119b457565b60405162461bcd60e51b815260206004820152601460248201527313dc99195c881b9bdd081c9959da5cdd195c995960621b6044820152606490fd5b610100810190811067ffffffffffffffff821117610c2357604052565b67ffffffffffffffff8111610c2357604052565b6040810190811067ffffffffffffffff821117610c2357604052565b90601f8019910116810190811067ffffffffffffffff821117610c2357604052565b81810292918115918404141715611a7257565b634e487b7160e01b600052601160045260246000fd5b67ffffffffffffffff8111610c235760051b60200190565b805115610c0d5760200190565b8051821015610c0d5760209160051b010190565b90815180825260208080930193019160005b828110611ae1575050505090565b835185529381019392810192600101611ad3565b356001600160a01b0381168103610a315790565b91908201809211611a7257565b90816020910312610a3157518015158103610a315790565b6001600160a01b03908116908115611c3e577f00000000000000000000000000000000000000000000000000000000000000001681148015611c21575b611c1b577382af49447d8a07e3bd95bd0d56f35241523fbab18114908115611bfd575b8115611bdf575b8115611bc1575b8115611ba6575090565b73912ce59144191c1204e64559fe8253a0e49e654891501490565b732f2a2543b76a4166549f7aab2e75bef0aefc5b0f81149150611b9c565b73fd086bc7cd5c481dcc9c85ebe478a1c0b69fcbb981149150611b95565b73af88d065e77c8cc2239327c5edb3a432268e583181149150611b8e565b50600190565b507382af49447d8a07e3bd95bd0d56f35241523fbab18114611b6b565b505060019056fea2646970667358221220eeb06dfba4cf9de9927860aeff18cc845f1675779f62ca02498d023d7277c41e64736f6c63430008140033",
  "linkReferences": {},
  "deployedLinkReferences": {}
}