{
  "_format": "hh-sol-artifact-1",
  "contractName": "GasStationExtension",
  "sourceName": "contracts/GasStationExtension.sol",
  "abi": [
    {
      "inputs": [
        {
          "internalType": "address",
          "name": "_aavePool",
          "type": "address"
        },
        {
          "internalType": "address",
          "name": "_weth",
          "type": "address"
        },
        {
          "internalType": "address",
          "name": "_inch",
          "type": "address"
        }
      ],
      "stateMutability": "nonpayable",
      "type": "constructor"
    },
    {
      "inputs": [
        {
          "internalType": "address",
          "name": "owner",
          "type": "address"
        }
      ],
      "name": "OwnableInvalidOwner",
      "type": "error"
    },
    {
      "inputs": [
        {
          "internalType": "address",
          "name": "account",
          "type": "address"
        }
      ],
      "name": "OwnableUnauthorizedAccount",
      "type": "error"
    },
    {
      "inputs": [],
      "name": "ReentrancyGuardReentrantCall",
      "type": "error"
    },
    {
      "anonymous": false,
      "inputs": [
        {
          "indexed": true,
          "internalType": "address",
          "name": "token",
          "type": "address"
        },
        {
          "indexed": false,
          "internalType": "uint256",
          "name": "amount",
          "type": "uint256"
        }
      ],
      "name": "FeesCollected",
      "type": "event"
    },
    {
      "anonymous": false,
      "inputs": [
        {
          "indexed": true,
          "internalType": "bytes32",
          "name": "batchId",
          "type": "bytes32"
        },
        {
          "indexed": false,
          "internalType": "uint256",
          "name": "amount",
          "type": "uint256"
        }
      ],
      "name": "FlashLoanInitiated",
      "type": "event"
    },
    {
      "anonymous": false,
      "inputs": [
        {
          "indexed": true,
          "internalType": "address",
          "name": "owner",
          "type": "address"
        }
      ],
      "name": "GasStationInitialized",
      "type": "event"
    },
    {
      "anonymous": false,
      "inputs": [
        {
          "indexed": true,
          "internalType": "bytes32",
          "name": "orderHash1",
          "type": "bytes32"
        },
        {
          "indexed": true,
          "internalType": "bytes32",
          "name": "orderHash2",
          "type": "bytes32"
        }
      ],
      "name": "OrderPairRegistered",
      "type": "event"
    },
    {
      "anonymous": false,
      "inputs": [
        {
          "indexed": true,
          "internalType": "address",
          "name": "previousOwner",
          "type": "address"
        },
        {
          "indexed": true,
          "internalType": "address",
          "name": "newOwner",
          "type": "address"
        }
      ],
      "name": "OwnershipTransferred",
      "type": "event"
    },
    {
      "inputs": [],
      "name": "AAVE_POOL",
      "outputs": [
        {
          "internalType": "contract IPool",
          "name": "",
          "type": "address"
        }
      ],
      "stateMutability": "view",
      "type": "function"
    },
    {
      "inputs": [],
      "name": "GAS_STATION_FEE_BASIS_POINTS",
      "outputs": [
        {
          "internalType": "uint256",
          "name": "",
          "type": "uint256"
        }
      ],
      "stateMutability": "view",
      "type": "function"
    },
    {
      "inputs": [],
      "name": "INCH_LOP",
      "outputs": [
        {
          "internalType": "contract I1inchLimitOrderProtocol",
          "name": "",
          "type": "address"
        }
      ],
      "stateMutability": "view",
      "type": "function"
    },
    {
      "inputs": [],
      "name": "MAX_GAS_PRICE",
      "outputs": [
        {
          "internalType": "uint256",
          "name": "",
          "type": "uint256"
        }
      ],
      "stateMutability": "view",
      "type": "function"
    },
    {
      "inputs": [],
      "name": "WETH",
      "outputs": [
        {
          "internalType": "address",
          "name": "",
          "type": "address"
        }
      ],
      "stateMutability": "view",
      "type": "function"
    },
    {
      "inputs": [
        {
          "components": [
            {
              "internalType": "bytes32",
              "name": "orderHash1",
              "type": "bytes32"
            },
            {
              "internalType": "bytes32",
              "name": "orderHash2",
              "type": "bytes32"
            },
            {
              "components": [
                {
                  "internalType": "uint256",
                  "name": "salt",
                  "type": "uint256"
                },
                {
                  "internalType": "address",
                  "name": "maker",
                  "type": "address"
                },
                {
                  "internalType": "address",
                  "name": "receiver",
                  "type": "address"
                },
                {
                  "internalType": "address",
                  "name": "makerAsset",
                  "type": "address"
                },
                {
                  "internalType": "address",
                  "name": "takerAsset",
                  "type": "address"
                },
                {
                  "internalType": "uint256",
                  "name": "makingAmount",
                  "type": "uint256"
                },
                {
                  "internalType": "uint256",
                  "name": "takingAmount",
                  "type": "uint256"
                },
                {
                  "internalType": "uint256",
                  "name": "makerTraits",
                  "type": "uint256"
                }
              ],
              "internalType": "struct I1inchLimitOrderProtocol.Order",
              "name": "order1",
              "type": "tuple"
            },
            {
              "components": [
                {
                  "internalType": "uint256",
                  "name": "salt",
                  "type": "uint256"
                },
                {
                  "internalType": "address",
                  "name": "maker",
                  "type": "address"
                },
                {
                  "internalType": "address",
                  "name": "receiver",
                  "type": "address"
                },
                {
                  "internalType": "address",
                  "name": "makerAsset",
                  "type": "address"
                },
                {
                  "internalType": "address",
                  "name": "takerAsset",
                  "type": "address"
                },
                {
                  "internalType": "uint256",
                  "name": "makingAmount",
                  "type": "uint256"
                },
                {
                  "internalType": "uint256",
                  "name": "takingAmount",
                  "type": "uint256"
                },
                {
                  "internalType": "uint256",
                  "name": "makerTraits",
                  "type": "uint256"
                }
              ],
              "internalType": "struct I1inchLimitOrderProtocol.Order",
              "name": "order2",
              "type": "tuple"
            },
            {
              "internalType": "bytes",
              "name": "signature1",
              "type": "bytes"
            },
            {
              "internalType": "bytes",
              "name": "signature2",
              "type": "bytes"
            },
            {
              "internalType": "uint256",
              "name": "estimatedGasUsed",
              "type": "uint256"
            },
            {
              "internalType": "bool",
              "name": "useNativeETH",
              "type": "bool"
            }
          ],
          "internalType": "struct GasStationExtension.FlashLoanParams",
          "name": "params",
          "type": "tuple"
        }
      ],
      "name": "_executeBothOrders",
      "outputs": [],
      "stateMutability": "nonpayable",
      "type": "function"
    },
    {
      "inputs": [
        {
          "internalType": "bytes32",
          "name": "",
          "type": "bytes32"
        }
      ],
      "name": "completedPairs",
      "outputs": [
        {
          "internalType": "bool",
          "name": "",
          "type": "bool"
        }
      ],
      "stateMutability": "view",
      "type": "function"
    },
    {
      "inputs": [
        {
          "internalType": "uint256",
          "name": "gasPrice",
          "type": "uint256"
        },
        {
          "internalType": "uint256",
          "name": "gasLimit",
          "type": "uint256"
        }
      ],
      "name": "estimateGasCost",
      "outputs": [
        {
          "internalType": "uint256",
          "name": "",
          "type": "uint256"
        }
      ],
      "stateMutability": "pure",
      "type": "function"
    },
    {
      "inputs": [
        {
          "internalType": "address[]",
          "name": "assets",
          "type": "address[]"
        },
        {
          "internalType": "uint256[]",
          "name": "amounts",
          "type": "uint256[]"
        },
        {
          "internalType": "uint256[]",
          "name": "premiums",
          "type": "uint256[]"
        },
        {
          "internalType": "address",
          "name": "initiator",
          "type": "address"
        },
        {
          "internalType": "bytes",
          "name": "params",
          "type": "bytes"
        }
      ],
      "name": "executeOperation",
      "outputs": [
        {
          "internalType": "bool",
          "name": "",
          "type": "bool"
        }
      ],
      "stateMutability": "nonpayable",
      "type": "function"
    },
    {
      "inputs": [
        {
          "components": [
            {
              "internalType": "uint256",
              "name": "salt",
              "type": "uint256"
            },
            {
              "internalType": "address",
              "name": "maker",
              "type": "address"
            },
            {
              "internalType": "address",
              "name": "receiver",
              "type": "address"
            },
            {
              "internalType": "address",
              "name": "makerAsset",
              "type": "address"
            },
            {
              "internalType": "address",
              "name": "takerAsset",
              "type": "address"
            },
            {
              "internalType": "uint256",
              "name": "makingAmount",
              "type": "uint256"
            },
            {
              "internalType": "uint256",
              "name": "takingAmount",
              "type": "uint256"
            },
            {
              "internalType": "uint256",
              "name": "makerTraits",
              "type": "uint256"
            }
          ],
          "internalType": "struct I1inchLimitOrderProtocol.Order",
          "name": "order1",
          "type": "tuple"
        },
        {
          "internalType": "bytes",
          "name": "signature1",
          "type": "bytes"
        },
        {
          "components": [
            {
              "internalType": "uint256",
              "name": "salt",
              "type": "uint256"
            },
            {
              "internalType": "address",
              "name": "maker",
              "type": "address"
            },
            {
              "internalType": "address",
              "name": "receiver",
              "type": "address"
            },
            {
              "internalType": "address",
              "name": "makerAsset",
              "type": "address"
            },
            {
              "internalType": "address",
              "name": "takerAsset",
              "type": "address"
            },
            {
              "internalType": "uint256",
              "name": "makingAmount",
              "type": "uint256"
            },
            {
              "internalType": "uint256",
              "name": "takingAmount",
              "type": "uint256"
            },
            {
              "internalType": "uint256",
              "name": "makerTraits",
              "type": "uint256"
            }
          ],
          "internalType": "struct I1inchLimitOrderProtocol.Order",
          "name": "order2",
          "type": "tuple"
        },
        {
          "internalType": "bytes",
          "name": "signature2",
          "type": "bytes"
        },
        {
          "internalType": "uint256",
          "name": "estimatedGasUsed",
          "type": "uint256"
        }
      ],
      "name": "executePairedOrders",
      "outputs": [],
      "stateMutability": "nonpayable",
      "type": "function"
    },
    {
      "inputs": [
        {
          "internalType": "bytes32",
          "name": "",
          "type": "bytes32"
        }
      ],
      "name": "flashLoanActive",
      "outputs": [
        {
          "internalType": "bool",
          "name": "",
          "type": "bool"
        }
      ],
      "stateMutability": "view",
      "type": "function"
    },
    {
      "inputs": [],
      "name": "get1inchLOP",
      "outputs": [
        {
          "internalType": "address",
          "name": "",
          "type": "address"
        }
      ],
      "stateMutability": "view",
      "type": "function"
    },
    {
      "inputs": [],
      "name": "getAavePool",
      "outputs": [
        {
          "internalType": "address",
          "name": "",
          "type": "address"
        }
      ],
      "stateMutability": "view",
      "type": "function"
    },
    {
      "inputs": [
        {
          "internalType": "bytes32",
          "name": "orderHash",
          "type": "bytes32"
        }
      ],
      "name": "getCounterpartOrder",
      "outputs": [
        {
          "internalType": "bytes32",
          "name": "",
          "type": "bytes32"
        }
      ],
      "stateMutability": "view",
      "type": "function"
    },
    {
      "inputs": [],
      "name": "getSupportedTokens",
      "outputs": [
        {
          "internalType": "address[]",
          "name": "tokens",
          "type": "address[]"
        }
      ],
      "stateMutability": "pure",
      "type": "function"
    },
    {
      "inputs": [],
      "name": "getWETH",
      "outputs": [
        {
          "internalType": "address",
          "name": "",
          "type": "address"
        }
      ],
      "stateMutability": "view",
      "type": "function"
    },
    {
      "inputs": [
        {
          "internalType": "bytes32",
          "name": "batchId",
          "type": "bytes32"
        }
      ],
      "name": "isFlashLoanActive",
      "outputs": [
        {
          "internalType": "bool",
          "name": "",
          "type": "bool"
        }
      ],
      "stateMutability": "view",
      "type": "function"
    },
    {
      "inputs": [
        {
          "internalType": "bytes32",
          "name": "orderHash",
          "type": "bytes32"
        }
      ],
      "name": "isOrderPairReady",
      "outputs": [
        {
          "internalType": "bool",
          "name": "",
          "type": "bool"
        }
      ],
      "stateMutability": "view",
      "type": "function"
    },
    {
      "inputs": [
        {
          "internalType": "address",
          "name": "token",
          "type": "address"
        }
      ],
      "name": "isTokenSupported",
      "outputs": [
        {
          "internalType": "bool",
          "name": "",
          "type": "bool"
        }
      ],
      "stateMutability": "view",
      "type": "function"
    },
    {
      "inputs": [
        {
          "internalType": "bytes32",
          "name": "orderHash",
          "type": "bytes32"
        }
      ],
      "name": "markPairCompleted",
      "outputs": [],
      "stateMutability": "nonpayable",
      "type": "function"
    },
    {
      "inputs": [
        {
          "internalType": "bytes32",
          "name": "",
          "type": "bytes32"
        }
      ],
      "name": "orderPairs",
      "outputs": [
        {
          "internalType": "bytes32",
          "name": "",
          "type": "bytes32"
        }
      ],
      "stateMutability": "view",
      "type": "function"
    },
    {
      "inputs": [],
      "name": "owner",
      "outputs": [
        {
          "internalType": "address",
          "name": "",
          "type": "address"
        }
      ],
      "stateMutability": "view",
      "type": "function"
    },
    {
      "inputs": [
        {
          "internalType": "bytes32",
          "name": "orderHash1",
          "type": "bytes32"
        },
        {
          "internalType": "bytes32",
          "name": "orderHash2",
          "type": "bytes32"
        }
      ],
      "name": "registerOrderPair",
      "outputs": [],
      "stateMutability": "nonpayable",
      "type": "function"
    },
    {
      "inputs": [
        {
          "internalType": "bytes32",
          "name": "",
          "type": "bytes32"
        }
      ],
      "name": "registeredOrders",
      "outputs": [
        {
          "internalType": "bool",
          "name": "",
          "type": "bool"
        }
      ],
      "stateMutability": "view",
      "type": "function"
    },
    {
      "inputs": [],
      "name": "renounceOwnership",
      "outputs": [],
      "stateMutability": "nonpayable",
      "type": "function"
    },
    {
      "inputs": [
        {
          "internalType": "address",
          "name": "token",
          "type": "address"
        },
        {
          "internalType": "uint256",
          "name": "amount",
          "type": "uint256"
        },
        {
          "internalType": "address",
          "name": "recipient",
          "type": "address"
        }
      ],
      "name": "rescueTokens",
      "outputs": [],
      "stateMutability": "nonpayable",
      "type": "function"
    },
    {
      "inputs": [
        {
          "internalType": "bytes32",
          "name": "batchId",
          "type": "bytes32"
        }
      ],
      "name": "resetFlashLoanState",
      "outputs": [],
      "stateMutability": "nonpayable",
      "type": "function"
    },
    {
      "inputs": [
        {
          "internalType": "bytes32",
          "name": "orderHash",
          "type": "bytes32"
        }
      ],
      "name": "resetOrderPair",
      "outputs": [],
      "stateMutability": "nonpayable",
      "type": "function"
    },
    {
      "inputs": [
        {
          "internalType": "address",
          "name": "newOwner",
          "type": "address"
        }
      ],
      "name": "transferOwnership",
      "outputs": [],
      "stateMutability": "nonpayable",
      "type": "function"
    },
    {
      "inputs": [
        {
          "components": [
            {
              "internalType": "uint256",
              "name": "salt",
              "type": "uint256"
            },
            {
              "internalType": "address",
              "name": "maker",
              "type": "address"
            },
            {
              "internalType": "address",
              "name": "receiver",
              "type": "address"
            },
            {
              "internalType": "address",
              "name": "makerAsset",
              "type": "address"
            },
            {
              "internalType": "address",
              "name": "takerAsset",
              "type": "address"
            },
            {
              "internalType": "uint256",
              "name": "makingAmount",
              "type": "uint256"
            },
            {
              "internalType": "uint256",
              "name": "takingAmount",
              "type": "uint256"
            },
            {
              "internalType": "uint256",
              "name": "makerTraits",
              "type": "uint256"
            }
          ],
          "internalType": "struct I1inchLimitOrderProtocol.Order",
          "name": "order",
          "type": "tuple"
        },
        {
          "internalType": "bytes",
          "name": "signature",
          "type": "bytes"
        }
      ],
      "name": "validateOrder",
      "outputs": [
        {
          "internalType": "bool",
          "name": "",
          "type": "bool"
        }
      ],
      "stateMutability": "view",
      "type": "function"
    },
    {
      "inputs": [],
      "name": "version",
      "outputs": [
        {
          "internalType": "string",
          "name": "",
          "type": "string"
        }
      ],
      "stateMutability": "pure",
      "type": "function"
    },
    {
      "stateMutability": "payable",
      "type": "receive"
    }
  ],
  "bytecode": "0x60e034620001ff57601f62002e0738819003918201601f19168301916001600160401b038311848410176200020457808492606094604052833981010312620001ff576200004d816200021a565b62000069604062000061602085016200021a565b93016200021a565b903315620001e65760008054336001600160a01b03198216811783556040519592946001600160a01b039490939285929083167f8be0079c531659141344cd1fd0a4f28419497f9722a3daafe3b4186f6b6457e08880a360018055808216620001e0575073794a61358d6845594f94dc1db02a252b5b4814ad5b16608052808316620001da57507382af49447d8a07e3bd95bd0d56f35241523fbab15b60a052808216620001d4575073111111125421ca6dc452d289314280a0f8842a655b1660c0527f8b8be9ad2cdd0f50c147f28cc3416483d246cd9e110f6651dfe6b55d8c10d1c7339180a2612bd79081620002308239608051818181610c89015281816118b501528181611b9e0152818161211c0152612192015260a051818181610bea01528181611e20015281816122a60152612878015260c0518181816107520152818161084901528181610915015281816109ef015281816112c40152818161174701526129970152f35b62000128565b62000106565b620000e3565b604051631e4fbdf760e01b815260006004820152602490fd5b600080fd5b634e487b7160e01b600052604160045260246000fd5b51906001600160a01b0382168203620001ff5756fe608080604052600436101561001d575b50361561001b57600080fd5b005b600090813560e01c90816308a016751461217e575080630926d2f114611ee45780630afbfbc01461214b5780631095c5621461173157806313561b5514612106578063248d788e146120e75780632b77838c146120bd5780634fce04391461202857806354fd4d5014611fe2578063715018a614611f8857806375151b6314611f6957806383c5aa3614611f3a5780638da5cb5b14611f135780638e31629f14611ee4578063920f5c841461180a5780639794cc9a146117e0578063a9e91b9e14611776578063aa3b7bb214611731578063ad5c4648146111aa578063b37fd19014611521578063c15949f9146111cb578063c3be3603146111af578063cae5f11e146111aa578063cb7e651c14611159578063d3be10f21461061e578063d3c7c2c71461041c578063e3bbb4f1146103fc578063f0fb86ab146103bc578063f2fde38b1461032c578063f3cb4b10146102fd5763f5de8bbc0361000f57346102fa5760403660031901126102fa5760243560043561019a61247d565b80835260206002815260ff6040852054166102b6578284526002815260ff6040852054166102725782821461022e57600390828552600281526040852060ff199060018282541617905584865260016040872091825416179055828552528160408420558183528060408420557fbb4e6272308f0afad3794647b60f58d10a513484fc478b5c30be0eb683ebe1c08380a380f35b6064906040519062461bcd60e51b82526004820152601d60248201527f43616e6e6f742070616972206f72646572207769746820697473656c660000006044820152fd5b6064906040519062461bcd60e51b82526004820152601960248201527f4f726465723220616c72656164792072656769737465726564000000000000006044820152fd5b6064906040519062461bcd60e51b82526004820152601960248201527f4f726465723120616c72656164792072656769737465726564000000000000006044820152fd5b80fd5b50346102fa5760203660031901126102fa5760ff60406020926004358152600284522054166040519015158152f35b50346102fa5760203660031901126102fa57610346612209565b61034e61247d565b6001600160a01b039081169081156103a357600054826bffffffffffffffffffffffff60a01b821617600055167f8be0079c531659141344cd1fd0a4f28419497f9722a3daafe3b4186f6b6457e0600080a380f35b604051631e4fbdf760e01b815260048101849052602490fd5b50346102fa5760203660031901126102fa576040602091600435808252600284526103ec60ff8484205416612502565b8152600383522054604051908152f35b50346102fa57806003193601126102fa576020604051640ba43b74008152f35b50346102fa57806003193601126102fa5760405160c081018181106001600160401b03821117610608576040526005815260a03660208301377382af49447d8a07e3bd95bd0d56f35241523fbab16104738261264e565b528051916001928310156105f25773af88d065e77c8cc2239327c5edb3a432268e583160408301528151600210156105f25773fd086bc7cd5c481dcc9c85ebe478a1c0b69fcbb960608301528151600310156105f257732f2a2543b76a4166549f7aab2e75bef0aefc5b0f60808301528151600410156105f25773912ce59144191c1204e64559fe8253a0e49e654860a08301528151918383018093116105de5761051d83612637565b9261052b604051948561233a565b80845261053a601f1991612637565b013660208501378161054b8461264e565b5281845b61056e575b6040516020808252819061056a90820187612440565b0390f35b81518110156105d9576001600160a01b03610589828461265b565b51168582018083116105c55761059f908661265b565b5260001981146105b15784018461054f565b634e487b7160e01b83526011600452602483fd5b634e487b7160e01b85526011600452602485fd5b610554565b634e487b7160e01b82526011600452602482fd5b634e487b7160e01b600052603260045260246000fd5b634e487b7160e01b600052604160045260246000fd5b50346102fa573660031901610260811261115557610100809112611155576001600160401b0390610104358281116111515761065e903690600401612263565b92909136610123190112611151576102243590811161115157610685903690600401612263565b9061068e61247d565b60026001541461113f576002600155604051627685c960e71b815260048035908201526024356001600160a01b0381169003610d8e576001600160a01b03602480358216908301526044359081169003610d8e576001600160a01b036044803582169083015260643590811690819003610d8e5760648201526084356001600160a01b0381169003610d8e5760018060a01b0360843516608482015260a43560a482015260c43560c482015260e43560e48201526020816101048160018060a01b037f0000000000000000000000000000000000000000000000000000000000000000165afa908115611134578691611102575b50604051627685c960e71b8152610124356004820152610144356001600160a01b03811614159586610d8e576001600160a01b036101443581166024840152610164359081169003610d8e576001600160a01b036101643581166044840152610184359081169003610d8e576001600160a01b0361018435811660648401526101a4359081169003610d8e576001600160a01b036101a435811660848401526101c43560a48401526101e43560c48401526102043560e484015260209083906101049082907f0000000000000000000000000000000000000000000000000000000000000000165afa9182156110f75788926110c3575b50610883836124a9565b156110875782885260036020528160408920540361104d576024356001600160a01b0316151580611034575b15610fef576102443515610fb3576040516311f7451d60e31b81526108d660048201612545565b6101206101048201528161012482015281876101448301376000610144838301015260208161014481601f19601f870116810103018160018060a01b037f0000000000000000000000000000000000000000000000000000000000000000165afa908115610f44578991610f94575b5015610f4f576040516311f7451d60e31b81526101248035600483015261014480356001600160a01b039081166024850152610164358116604485015261018435811660648501526101a4351660848401526101c43560a48401526101e43560c48401526102043560e4840152610120610104840152908201879052869086908301376000610144878301015260208161014481601f19601f8b0116810103018160018060a01b037f0000000000000000000000000000000000000000000000000000000000000000165afa908115610f44578991610f15575b5015610ed057610a35610a306125b5565b612864565b15610e8c57610a45610a306125cb565b15610e48576040805160208101858152918101849052426060820152610a7881608081015b03601f19810183528261233a565b51902093848952600560205260ff60408a205416610df257610a9d3a6102443561260e565b958615610dad57858a52600560205260408a20805460ff191660011790556001600160a01b03610acb6125b5565b1615938415610d93575b60405195610ae2876122e8565b86526020860152604051610af5816122e8565b6004358152602435602082015260443560408201526064356060820152608435608082015260a43560a082015260c43560c082015260e43560e0820152604086015260405198610b448a6122e8565b610124358a52610d8e57610ba6610cc198610bb2948c9b6101443560208201526101643560408201526101843560608201526101a43560808201526101c43560a08201526101e43560c08201526102043560e0820152606089015236916123dc565b608086015236916123dc565b60a08301526102443560c0830152151560e082015260405192610bd484612304565b6001845260203681860137610be88461264e565b7f00000000000000000000000000000000000000000000000000000000000000006001600160a01b0316905260405192610c2184612304565b600184526020368186013781610c368561264e565b527f990ac04aa5504882b7bd58accf2281d60f06646ad7f62fd61ca8418dabfbdbbb602060405193610c6785612304565b6001855281368187013789610c7b8661264e565b52604051908152a2604051947f00000000000000000000000000000000000000000000000000000000000000006001600160a01b031692610ccf918791602083016126c8565b03601f19810187528661233a565b813b15610d8a57858094610d4e610d2497610d36610d12956040519a8b998a98899763ab9c4b5d60e01b89523060048a015260e060248a015260e4890190612440565b87810360031901604489015290612752565b85810360031901606487015290612752565b3060848501528381036003190160a4850152906121e4565b8260c483015203925af18015610d7f57610d6b575b506001805580f35b610d74906122d5565b6102fa578038610d63565b6040513d84823e3d90fd5b8580fd5b600080fd5b93506001600160a01b03610da56125cb565b161593610ad5565b60405162461bcd60e51b815260206004820152601960248201527f43616e6e6f742063616c63756c6174652067617320636f7374000000000000006044820152606490fd5b60405162461bcd60e51b815260206004820152602860248201527f466c617368206c6f616e20616c72656164792061637469766520666f722074686044820152670d2e640c4c2e8c6d60c31b6064820152608490fd5b606460405162461bcd60e51b815260206004820152602060248201527f4f7264657232206d616b6572206173736574206e6f7420737570706f727465646044820152fd5b606460405162461bcd60e51b815260206004820152602060248201527f4f7264657231206d616b6572206173736574206e6f7420737570706f727465646044820152fd5b60405162461bcd60e51b815260206004820152601c60248201527f496e76616c6964207369676e617475726520666f72206f7264657232000000006044820152606490fd5b610f37915060203d602011610f3d575b610f2f818361233a565b8101906125f6565b38610a1f565b503d610f25565b6040513d8b823e3d90fd5b60405162461bcd60e51b815260206004820152601c60248201527f496e76616c6964207369676e617475726520666f72206f7264657231000000006044820152606490fd5b610fad915060203d602011610f3d57610f2f818361233a565b38610945565b60405162461bcd60e51b8152602060048201526014602482015273496e76616c69642067617320657374696d61746560601b6044820152606490fd5b60405162461bcd60e51b815260206004820152601760248201527f496e76616c6964206d616b6572206164647265737365730000000000000000006044820152606490fd5b5060009650610144356001600160a01b031615156108af565b60405162461bcd60e51b815260206004820152601260248201527124b73b30b634b21037b93232b9103830b4b960711b6044820152606490fd5b60405162461bcd60e51b81526020600482015260146024820152734f726465722070616972206e6f7420726561647960601b6044820152606490fd5b9091506020813d6020116110ef575b816110df6020938361233a565b81010312610d8e57519038610879565b3d91506110d2565b6040513d8a823e3d90fd5b90506020813d60201161112c575b8161111d6020938361233a565b81010312610d8e575138610782565b3d9150611110565b6040513d88823e3d90fd5b604051633ee5aeb560e01b8152600490fd5b8380fd5b5080fd5b50346102fa573660031901610120811261115557610100136102fa5761010435906001600160401b0382116102fa5760206111a061119a3660048601612263565b9061297b565b6040519015158152f35b612290565b50346102fa57806003193601126102fa576020604051600a8152f35b50346102fa5760031960203682018113610d8e576004356001600160401b0392838211610d8e576102c0908236030112610d8e576040519061120c826122e8565b80600401358252828201936024820135855261122b366044840161235b565b916040840192835261124136610144830161235b565b9160608501928352610244820135818111610d8e576112669060043691850101612422565b9060808601918252610264830135908111610d8e5761128e6102a49160043691860101612422565b9260a0870193845261028481013560c088015201358015158103610d8e5760e08601523033036114e357835190516040805191957f00000000000000000000000000000000000000000000000000000000000000006001600160a01b031692906112f78261231f565b8b8252519661132560c060a08a01519901518451998a94859463250e778160e01b998a875260048701612817565b03818c855af1928315610f445789958a946114b9575b5090604092918a86519151936113798651986113568a61231f565b838a525160c060a08201519101519088519a8b9889978896875260048701612817565b03925af19283156114ae5787928894611477575b501515908161146d575b5015611428571515908161141e575b50156113d9579060049151845252604082209060ff19916001838254161790555182526001604083209182541617905580f35b60405162461bcd60e51b815260048101839052601760248201527f4f726465723220657865637574696f6e206661696c65640000000000000000006044820152606490fd5b90501515386113a6565b60405162461bcd60e51b815260048101859052601760248201527f4f726465723120657865637574696f6e206661696c65640000000000000000006044820152606490fd5b9050151538611397565b90935061149d91925060403d6040116114a7575b611495818361233a565b810190612801565b919091923861138d565b503d61148b565b6040513d89823e3d90fd5b604080949397506114d79295503d85116114a757611495818361233a565b9590959390919261133b565b60405162461bcd60e51b815260048101879052601660248201527513db9b1e481cd95b198b58d85b1b08185b1b1bddd95960521b6044820152606490fd5b50346102fa5760603660031901126102fa5761153b612209565b602435906044356001600160a01b0381811692838303610d8e5761155d61247d565b83156116f85716806115e357505081471061159e57828080938193828215611595575bf1156115895780f35b604051903d90823e3d90fd5b506108fc611580565b60405162461bcd60e51b815260206004820152601860248201527f496e73756666696369656e74204554482062616c616e636500000000000000006044820152606490fd5b6040516370a0823160e01b815230600482015260209493509091908481602481865afa801561113457849187916116c7575b50106116825760405163a9059cbb60e01b81526001600160a01b03919091166004820152602481019290925282908290604490829087905af180156116775761165d57505080f35b8161167392903d10610f3d57610f2f818361233a565b5080f35b6040513d85823e3d90fd5b60405162461bcd60e51b815260048101859052601a60248201527f496e73756666696369656e7420746f6b656e2062616c616e63650000000000006044820152606490fd5b809250868092503d83116116f1575b6116e0818361233a565b81010312610d8e5783905138611615565b503d6116d6565b60405162461bcd60e51b8152602060048201526011602482015270125b9d985b1a59081c9958da5c1a595b9d607a1b6044820152606490fd5b50346102fa57806003193601126102fa576040517f00000000000000000000000000000000000000000000000000000000000000006001600160a01b03168152602090f35b50346102fa5760203660031901126102fa5760043561179361247d565b80825260026020526117ab60ff604084205416612502565b8152600360205260408120546004602052604082209060ff199160018382541617905582526001604083209182541617905580f35b50346102fa5760203660031901126102fa5760406020916004358152600383522054604051908152f35b50346102fa5760a03660031901126102fa576004356001600160401b0381116111555761183b903690600401612233565b91906024356001600160401b038111611ee05761185c903690600401612233565b91906044356001600160401b038111611edc5761187d903690600401612233565b6064356001600160a01b0381169590869003611d15576084356001600160401b038111611d59576118b2903690600401612263565b967f00000000000000000000000000000000000000000000000000000000000000006001600160a01b03163303611e97573003611e52576001891480611e0e575b15611dc9576020818881010312611d59578035906001600160401b038211611d19576102c08282018983010312611d195760405197611931896122e8565b81830180358a52602080820135908b0152611952908284019060400161235b565b60408a01526119698183016101408585010161235b565b60608a015261024083830101356001600160401b038111611dc557611995908284019085850101612422565b60808a01526102608383010135906001600160401b038211611dc557906119c29183019084840101612422565b60a089015280820161028081013560c08a01526102a001358015159003611d1957016102a0013560e08701819052611d5d575b303b15611d155760405163c15949f960e01b815287808280611a1a8b600483016126c8565b038183305af19182611d45575b5050611aec57868060033d11611adc575b6308c379a014611a4e57604051903d90823e3d90fd5b611a56612786565b80611a615750611589565b611ad890611ab8603860405180937f4f7264657220657865637574696f6e206661696c65643a2000000000000000006020830152611aa881518092602086860191016121c1565b810103601881018452018261233a565b60405162461bcd60e51b81526020600482015291829160248301906121e4565b0390fd5b50600481803e805160e01c611a38565b6040860151606001516001600160a01b03168115611d1d5760208535916040518381527f9dc46f23cfb5ddcad0ae7ea2be38d47fec07bb9382ec7e564efc69e036dd66ce928391a260608881015101516040519283526001600160a01b031691602090a260e0860151611c9d575b15611c895715611c755790611b71913590356127f4565b9315611c6157611be78394602092611b8f60018060a01b03916125e2565b60405163095ea7b360e01b81527f00000000000000000000000000000000000000000000000000000000000000006001600160a01b031660048201526024810193909352919687939190921691839182906044820190565b03925af1928315610d7f57604093611c42575b5080516020918201518451928301918252604083015242606083015290611c248160808101610a6a565b519020815260056020522060ff198154169055602060405160018152f35b611c5a9060203d602011610f3d57610f2f818361233a565b5038611bfa565b634e487b7160e01b83526032600452602483fd5b634e487b7160e01b85526032600452602485fd5b634e487b7160e01b86526032600452602486fd5b8715611d31576001600160a01b03611cb4866125e2565b168115611d1d578215611d1d57611ccd843586356127f4565b90803b15611d19578890600460405180948193630d0e30db60e41b83525af180156110f757908891611d01575b5050611b5a565b611d0a906122d5565b611d15578638611cfa565b8680fd5b8880fd5b634e487b7160e01b88526032600452602488fd5b634e487b7160e01b87526032600452602487fd5b611d4e906122d5565b611d59578738611a27565b8780fd5b8715611d31576001600160a01b03611d74866125e2565b168115611d1d57803b15611d5957878091602460405180948193632e1a7d4d60e01b83528a3560048401525af180156110f757611db2575b506119f5565b611dbe909791976122d5565b9538611dac565b8a80fd5b60405162461bcd60e51b815260206004820152601860248201527f496e76616c696420666c617368206c6f616e20617373657400000000000000006044820152606490fd5b508815611d1d57611e1e866125e2565b7f00000000000000000000000000000000000000000000000000000000000000006001600160a01b039081169116146118f3565b60405162461bcd60e51b815260206004820152601c60248201527f496e76616c696420666c617368206c6f616e20696e69746961746f72000000006044820152606490fd5b60405162461bcd60e51b815260206004820152601860248201527f43616c6c6572206d757374206265204161766520506f6f6c00000000000000006044820152606490fd5b8480fd5b8280fd5b50346102fa5760203660031901126102fa5760ff60406020926004358152600584522054166040519015158152f35b50346102fa57806003193601126102fa57546040516001600160a01b039091168152602090f35b50346102fa5760203660031901126102fa5760ff60406020926004358152600484522054166040519015158152f35b50346102fa5760203660031901126102fa5760206111a0610a30612209565b50346102fa57806003193601126102fa57611fa161247d565b80546001600160a01b03198116825581906001600160a01b03167f8be0079c531659141344cd1fd0a4f28419497f9722a3daafe3b4186f6b6457e08280a380f35b50346102fa57806003193601126102fa5761056a60405161200281612304565b60058152640312e322e360dc1b60208201526040519182916020835260208301906121e4565b50346102fa576020806003193601126111555760036004359161204961247d565b8284526002815261206060ff604086205416612502565b828452818152604084205492600282526040852060ff199081815416905584865260408620818154169055818652600483526040862081815416905584865260408620908154169055845252816040812055815280604081205580f35b50346102fa5760403660031901126102fa5760206120df60243560043561260e565b604051908152f35b50346102fa5760203660031901126102fa5760206111a06004356124a9565b50346102fa57806003193601126102fa576040517f00000000000000000000000000000000000000000000000000000000000000006001600160a01b03168152602090f35b50346102fa5760203660031901126102fa5761216561247d565b6004358152600560205260408120805460ff1916905580f35b9050346111555781600319360112611155577f00000000000000000000000000000000000000000000000000000000000000006001600160a01b03168152602090f35b60005b8381106121d45750506000910152565b81810151838201526020016121c4565b906020916121fd815180928185528580860191016121c1565b601f01601f1916010190565b600435906001600160a01b0382168203610d8e57565b35906001600160a01b0382168203610d8e57565b9181601f84011215610d8e578235916001600160401b038311610d8e576020808501948460051b010111610d8e57565b9181601f84011215610d8e578235916001600160401b038311610d8e5760208381860195010111610d8e57565b34610d8e576000366003190112610d8e576040517f00000000000000000000000000000000000000000000000000000000000000006001600160a01b03168152602090f35b6001600160401b03811161060857604052565b61010081019081106001600160401b0382111761060857604052565b604081019081106001600160401b0382111761060857604052565b602081019081106001600160401b0382111761060857604052565b90601f801991011681019081106001600160401b0382111761060857604052565b919082610100910312610d8e57604051612374816122e8565b60e0808294803584526123896020820161221f565b602085015261239a6040820161221f565b60408501526123ab6060820161221f565b60608501526123bc6080820161221f565b608085015260a081013560a085015260c081013560c08501520135910152565b9291926001600160401b0382116106085760405191612405601f8201601f19166020018461233a565b829481845281830111610d8e578281602093846000960137010152565b9080601f83011215610d8e5781602061243d933591016123dc565b90565b90815180825260208080930193019160005b828110612460575050505090565b83516001600160a01b031685529381019392810192600101612452565b6000546001600160a01b0316330361249157565b60405163118cdaa760e01b8152336004820152602490fd5b6000818152600260205260ff60408220541691826124e1575b826124cc57505090565b81526004602052604090205460ff1615919050565b9150600360205260408120548152600260205260ff604082205416916124c2565b1561250957565b60405162461bcd60e51b815260206004820152601460248201527313dc99195c881b9bdd081c9959da5cdd195c995960621b6044820152606490fd5b60043581526001600160a01b0360243581811690819003610d8e576020830152604435818116809103610d8e576040830152606435818116809103610d8e576060830152608435908116809103610d8e57608082015260a43560a082015260c43560c082015260e060e435910152565b6064356001600160a01b0381168103610d8e5790565b610184356001600160a01b0381168103610d8e5790565b356001600160a01b0381168103610d8e5790565b90816020910312610d8e57518015158103610d8e5790565b8181029291811591840414171561262157565b634e487b7160e01b600052601160045260246000fd5b6001600160401b0381116106085760051b60200190565b8051156105f25760200190565b80518210156105f25760209160051b010190565b60e080918051845260018060a01b03806020830151166020860152806040830151166040860152806060830151166060860152608082015116608085015260a081015160a085015260c081015160c08501520151910152565b6020815281516020820152602082015160408201526126ef6040830151606083019061266f565b612702606083015161016083019061266f565b608082015160e061273c6127256102c093846102608701526102e08601906121e4565b60a0860151858203601f19016102808701526121e4565b9360c08101516102a08501520151151591015290565b90815180825260208080930193019160005b828110612772575050505090565b835185529381019392810192600101612764565b600060443d1061243d57604051600319913d83016004833e81516001600160401b03918282113d6024840111176127e3578184019485519384116127eb573d850101602084870101116127e3575061243d9291016020019061233a565b949350505050565b50949350505050565b9190820180921161262157565b9190826040910312610d8e576020825192015190565b916101809361284461285392612832866000999b9a9661266f565b6101a0806101008801528601906121e4565b908482036101208601526121e4565b956101408301526101608201520152565b6001600160a01b03908116908115612974577f00000000000000000000000000000000000000000000000000000000000000001681148015612957575b612951577382af49447d8a07e3bd95bd0d56f35241523fbab18114908115612933575b8115612915575b81156128f7575b81156128dc575090565b73912ce59144191c1204e64559fe8253a0e49e654891501490565b732f2a2543b76a4166549f7aab2e75bef0aefc5b0f811491506128d2565b73fd086bc7cd5c481dcc9c85ebe478a1c0b69fcbb9811491506128cb565b73af88d065e77c8cc2239327c5edb3a432268e5831811491506128c4565b50600190565b507382af49447d8a07e3bd95bd0d56f35241523fbab181146128a1565b5050600190565b604080516311f7451d60e31b8152919290916001600160a01b037f00000000000000000000000000000000000000000000000000000000000000008116906129c560048401612545565b8261010494610120868301528061012483015280610144988984013781600098898184840101526020968793601f80199101168101030181865afa908115612b4d578791612b84575b5015612b18578451627685c960e71b8152612a2b60048201612545565b83818681865afa908115612b4d578791612b57575b50855190632f07b5d360e21b825260048201528381602481865afa908115612b4d578791612b20575b5015612b18576064358181168103611d1557612a8490612864565b15908115612afb575b50612af457819084519384809263336043ab60e01b8252612ab060048301612545565b5afa928315612aeb57508392612ace575b50501561243d5750600190565b612ae49250803d10610f3d57610f2f818361233a565b3880612ac1565b513d85823e3d90fd5b5050505090565b608435915081168103610d8a57612b1190612864565b1538612a8d565b505050505090565b90508381813d8311612b46575b612b37818361233a565b81010312611d15575138612a69565b503d612b2d565b86513d89823e3d90fd5b90508381813d8311612b7d575b612b6e818361233a565b81010312611d15575138612a40565b503d612b64565b612b9b9150843d8611610f3d57610f2f818361233a565b38612a0e56fea2646970667358221220858dbf1c24ae6037c8d8a9b5952cc92f54bdbc3ac1b789255160d9236b42ce9764736f6c63430008140033",
  "linkReferences": {},
  "deployedLinkReferences": {}
}