{
  "_format": "hh-sol-artifact-1",
  "contractName": "GasStationExtension",
  "sourceName": "contracts/GasStationExtension.sol",
  "abi": [
    {
      "inputs": [
        {
          "internalType": "address",
          "name": "_aavePool",
          "type": "address"
        },
        {
          "internalType": "address",
          "name": "_weth",
          "type": "address"
        }
      ],
      "stateMutability": "nonpayable",
      "type": "constructor"
    },
    {
      "inputs": [
        {
          "internalType": "address",
          "name": "owner",
          "type": "address"
        }
      ],
      "name": "OwnableInvalidOwner",
      "type": "error"
    },
    {
      "inputs": [
        {
          "internalType": "address",
          "name": "account",
          "type": "address"
        }
      ],
      "name": "OwnableUnauthorizedAccount",
      "type": "error"
    },
    {
      "inputs": [],
      "name": "ReentrancyGuardReentrantCall",
      "type": "error"
    },
    {
      "anonymous": false,
      "inputs": [
        {
          "indexed": true,
          "internalType": "address",
          "name": "token",
          "type": "address"
        },
        {
          "indexed": false,
          "internalType": "uint256",
          "name": "amount",
          "type": "uint256"
        }
      ],
      "name": "FeesCollected",
      "type": "event"
    },
    {
      "anonymous": false,
      "inputs": [
        {
          "indexed": true,
          "internalType": "bytes32",
          "name": "batchId",
          "type": "bytes32"
        },
        {
          "indexed": false,
          "internalType": "uint256",
          "name": "amount",
          "type": "uint256"
        }
      ],
      "name": "FlashLoanInitiated",
      "type": "event"
    },
    {
      "anonymous": false,
      "inputs": [
        {
          "indexed": true,
          "internalType": "address",
          "name": "owner",
          "type": "address"
        }
      ],
      "name": "GasStationInitialized",
      "type": "event"
    },
    {
      "anonymous": false,
      "inputs": [
        {
          "indexed": true,
          "internalType": "bytes32",
          "name": "orderHash1",
          "type": "bytes32"
        },
        {
          "indexed": true,
          "internalType": "bytes32",
          "name": "orderHash2",
          "type": "bytes32"
        }
      ],
      "name": "OrderPairRegistered",
      "type": "event"
    },
    {
      "anonymous": false,
      "inputs": [
        {
          "indexed": true,
          "internalType": "address",
          "name": "previousOwner",
          "type": "address"
        },
        {
          "indexed": true,
          "internalType": "address",
          "name": "newOwner",
          "type": "address"
        }
      ],
      "name": "OwnershipTransferred",
      "type": "event"
    },
    {
      "inputs": [],
      "name": "AAVE_POOL",
      "outputs": [
        {
          "internalType": "contract IPool",
          "name": "",
          "type": "address"
        }
      ],
      "stateMutability": "view",
      "type": "function"
    },
    {
      "inputs": [],
      "name": "GAS_STATION_FEE_BASIS_POINTS",
      "outputs": [
        {
          "internalType": "uint256",
          "name": "",
          "type": "uint256"
        }
      ],
      "stateMutability": "view",
      "type": "function"
    },
    {
      "inputs": [],
      "name": "MAX_GAS_PRICE",
      "outputs": [
        {
          "internalType": "uint256",
          "name": "",
          "type": "uint256"
        }
      ],
      "stateMutability": "view",
      "type": "function"
    },
    {
      "inputs": [],
      "name": "WETH",
      "outputs": [
        {
          "internalType": "address",
          "name": "",
          "type": "address"
        }
      ],
      "stateMutability": "view",
      "type": "function"
    },
    {
      "inputs": [
        {
          "internalType": "bytes32",
          "name": "",
          "type": "bytes32"
        }
      ],
      "name": "completedPairs",
      "outputs": [
        {
          "internalType": "bool",
          "name": "",
          "type": "bool"
        }
      ],
      "stateMutability": "view",
      "type": "function"
    },
    {
      "inputs": [
        {
          "internalType": "uint256",
          "name": "gasPrice",
          "type": "uint256"
        },
        {
          "internalType": "uint256",
          "name": "gasLimit",
          "type": "uint256"
        }
      ],
      "name": "estimateGasCost",
      "outputs": [
        {
          "internalType": "uint256",
          "name": "",
          "type": "uint256"
        }
      ],
      "stateMutability": "pure",
      "type": "function"
    },
    {
      "inputs": [
        {
          "internalType": "address[]",
          "name": "assets",
          "type": "address[]"
        },
        {
          "internalType": "uint256[]",
          "name": "amounts",
          "type": "uint256[]"
        },
        {
          "internalType": "uint256[]",
          "name": "premiums",
          "type": "uint256[]"
        },
        {
          "internalType": "address",
          "name": "initiator",
          "type": "address"
        },
        {
          "internalType": "bytes",
          "name": "params",
          "type": "bytes"
        }
      ],
      "name": "executeOperation",
      "outputs": [
        {
          "internalType": "bool",
          "name": "",
          "type": "bool"
        }
      ],
      "stateMutability": "nonpayable",
      "type": "function"
    },
    {
      "inputs": [
        {
          "internalType": "bytes32",
          "name": "",
          "type": "bytes32"
        }
      ],
      "name": "flashLoanActive",
      "outputs": [
        {
          "internalType": "bool",
          "name": "",
          "type": "bool"
        }
      ],
      "stateMutability": "view",
      "type": "function"
    },
    {
      "inputs": [],
      "name": "getAavePool",
      "outputs": [
        {
          "internalType": "address",
          "name": "",
          "type": "address"
        }
      ],
      "stateMutability": "view",
      "type": "function"
    },
    {
      "inputs": [
        {
          "internalType": "bytes32",
          "name": "orderHash",
          "type": "bytes32"
        }
      ],
      "name": "getCounterpartOrder",
      "outputs": [
        {
          "internalType": "bytes32",
          "name": "",
          "type": "bytes32"
        }
      ],
      "stateMutability": "view",
      "type": "function"
    },
    {
      "inputs": [],
      "name": "getSupportedTokens",
      "outputs": [
        {
          "internalType": "address[]",
          "name": "tokens",
          "type": "address[]"
        }
      ],
      "stateMutability": "pure",
      "type": "function"
    },
    {
      "inputs": [],
      "name": "getWETH",
      "outputs": [
        {
          "internalType": "address",
          "name": "",
          "type": "address"
        }
      ],
      "stateMutability": "view",
      "type": "function"
    },
    {
      "inputs": [
        {
          "internalType": "bytes32",
          "name": "orderHash1",
          "type": "bytes32"
        },
        {
          "internalType": "bytes32",
          "name": "orderHash2",
          "type": "bytes32"
        },
        {
          "internalType": "address",
          "name": "maker1",
          "type": "address"
        },
        {
          "internalType": "address",
          "name": "maker2",
          "type": "address"
        },
        {
          "internalType": "address",
          "name": "token1",
          "type": "address"
        },
        {
          "internalType": "address",
          "name": "token2",
          "type": "address"
        },
        {
          "internalType": "uint256",
          "name": "estimatedGasUsed",
          "type": "uint256"
        }
      ],
      "name": "initiateFlashLoanSwap",
      "outputs": [],
      "stateMutability": "nonpayable",
      "type": "function"
    },
    {
      "inputs": [
        {
          "internalType": "bytes32",
          "name": "batchId",
          "type": "bytes32"
        }
      ],
      "name": "isFlashLoanActive",
      "outputs": [
        {
          "internalType": "bool",
          "name": "",
          "type": "bool"
        }
      ],
      "stateMutability": "view",
      "type": "function"
    },
    {
      "inputs": [
        {
          "internalType": "bytes32",
          "name": "orderHash",
          "type": "bytes32"
        }
      ],
      "name": "isOrderPairReady",
      "outputs": [
        {
          "internalType": "bool",
          "name": "",
          "type": "bool"
        }
      ],
      "stateMutability": "view",
      "type": "function"
    },
    {
      "inputs": [
        {
          "internalType": "address",
          "name": "token",
          "type": "address"
        }
      ],
      "name": "isTokenSupported",
      "outputs": [
        {
          "internalType": "bool",
          "name": "",
          "type": "bool"
        }
      ],
      "stateMutability": "view",
      "type": "function"
    },
    {
      "inputs": [
        {
          "internalType": "bytes32",
          "name": "orderHash",
          "type": "bytes32"
        }
      ],
      "name": "markPairCompleted",
      "outputs": [],
      "stateMutability": "nonpayable",
      "type": "function"
    },
    {
      "inputs": [
        {
          "internalType": "bytes32",
          "name": "",
          "type": "bytes32"
        }
      ],
      "name": "orderPairs",
      "outputs": [
        {
          "internalType": "bytes32",
          "name": "",
          "type": "bytes32"
        }
      ],
      "stateMutability": "view",
      "type": "function"
    },
    {
      "inputs": [],
      "name": "owner",
      "outputs": [
        {
          "internalType": "address",
          "name": "",
          "type": "address"
        }
      ],
      "stateMutability": "view",
      "type": "function"
    },
    {
      "inputs": [
        {
          "internalType": "bytes32",
          "name": "orderHash1",
          "type": "bytes32"
        },
        {
          "internalType": "bytes32",
          "name": "orderHash2",
          "type": "bytes32"
        }
      ],
      "name": "registerOrderPair",
      "outputs": [],
      "stateMutability": "nonpayable",
      "type": "function"
    },
    {
      "inputs": [
        {
          "internalType": "bytes32",
          "name": "",
          "type": "bytes32"
        }
      ],
      "name": "registeredOrders",
      "outputs": [
        {
          "internalType": "bool",
          "name": "",
          "type": "bool"
        }
      ],
      "stateMutability": "view",
      "type": "function"
    },
    {
      "inputs": [],
      "name": "renounceOwnership",
      "outputs": [],
      "stateMutability": "nonpayable",
      "type": "function"
    },
    {
      "inputs": [
        {
          "internalType": "address",
          "name": "token",
          "type": "address"
        },
        {
          "internalType": "uint256",
          "name": "amount",
          "type": "uint256"
        },
        {
          "internalType": "address",
          "name": "recipient",
          "type": "address"
        }
      ],
      "name": "rescueTokens",
      "outputs": [],
      "stateMutability": "nonpayable",
      "type": "function"
    },
    {
      "inputs": [
        {
          "internalType": "bytes32",
          "name": "batchId",
          "type": "bytes32"
        }
      ],
      "name": "resetFlashLoanState",
      "outputs": [],
      "stateMutability": "nonpayable",
      "type": "function"
    },
    {
      "inputs": [
        {
          "internalType": "bytes32",
          "name": "orderHash",
          "type": "bytes32"
        }
      ],
      "name": "resetOrderPair",
      "outputs": [],
      "stateMutability": "nonpayable",
      "type": "function"
    },
    {
      "inputs": [
        {
          "internalType": "address",
          "name": "newOwner",
          "type": "address"
        }
      ],
      "name": "transferOwnership",
      "outputs": [],
      "stateMutability": "nonpayable",
      "type": "function"
    },
    {
      "inputs": [],
      "name": "version",
      "outputs": [
        {
          "internalType": "string",
          "name": "",
          "type": "string"
        }
      ],
      "stateMutability": "pure",
      "type": "function"
    },
    {
      "stateMutability": "payable",
      "type": "receive"
    }
  ],
  "bytecode": "0x60c0346200019057601f62001da338819003918201601f19168301916001600160401b038311848410176200019557808492604094855283398101031262000190576200005a60206200005283620001ab565b9201620001ab565b3315620001775760008054336001600160a01b0319821681178355604051949293926001600160a01b039283929083167f8be0079c531659141344cd1fd0a4f28419497f9722a3daafe3b4186f6b6457e08780a360018055808216620001715750736ae43d3271ff6888e7fc43fd7321a503ff7389515b1660805281166200016b5750737b79995e5f793a07bc00c21412e50ecae098e7f95b60a0527f8b8be9ad2cdd0f50c147f28cc3416483d246cd9e110f6651dfe6b55d8c10d1c7339180a2611be29081620001c1823960805181818161065c01528181610f940152818161112a015281816116c6015261173c015260a0518181816105ba01528181611394015281816118480152611ace0152f35b620000f3565b620000d1565b604051631e4fbdf760e01b815260006004820152602490fd5b600080fd5b634e487b7160e01b600052604160045260246000fd5b51906001600160a01b0382168203620001905756fe608080604052600436101561001d575b50361561001b57600080fd5b005b600090813560e01c90816308a0167514611728575080630926d2f1146114585780630afbfbc0146116f557806313561b55146116b0578063248d788e146116915780632b77838c146116675780634fce0439146115d257806354fd4d5014611565578063715018a61461150b57806375151b63146114dd57806383c5aa36146114ae5780638da5cb5b146114875780638e31629f14611458578063920f5c8414610eec5780639794cc9a14610ec2578063a9e91b9e14610e58578063ad5c464814610c0a578063b37fd19014610c2b578063c3be360314610c0f578063cae5f11e14610c0a578063d3c7c2c714610a2b578063d9679f09146103f0578063e3bbb4f1146103d0578063f0fb86ab14610390578063f2fde38b14610300578063f3cb4b10146102d15763f5de8bbc0361000f57346102ce5760403660031901126102ce5760243560043561016e6118b4565b80835260206002815260ff60408520541661028a578284526002815260ff6040852054166102465782821461020257600390828552600281526040852060ff199060018282541617905584865260016040872091825416179055828552528160408420558183528060408420557fbb4e6272308f0afad3794647b60f58d10a513484fc478b5c30be0eb683ebe1c08380a380f35b6064906040519062461bcd60e51b82526004820152601d60248201527f43616e6e6f742070616972206f72646572207769746820697473656c660000006044820152fd5b6064906040519062461bcd60e51b82526004820152601960248201527f4f726465723220616c72656164792072656769737465726564000000000000006044820152fd5b6064906040519062461bcd60e51b82526004820152601960248201527f4f726465723120616c72656164792072656769737465726564000000000000006044820152fd5b80fd5b50346102ce5760203660031901126102ce5760ff60406020926004358152600284522054166040519015158152f35b50346102ce5760203660031901126102ce5761031a6117ab565b6103226118b4565b6001600160a01b0390811690811561037757600054826bffffffffffffffffffffffff60a01b821617600055167f8be0079c531659141344cd1fd0a4f28419497f9722a3daafe3b4186f6b6457e0600080a380f35b604051631e4fbdf760e01b815260048101849052602490fd5b50346102ce5760203660031901126102ce576040602091600435808252600284526103c060ff8484205416611939565b8152600383522054604051908152f35b50346102ce57806003193601126102ce576020604051640ba43b74008152f35b50346102ce5760e03660031901126102ce5761040a6117d7565b906104136117c1565b91608435906001600160a01b0382168203610a265760a435916001600160a01b0383168303610a26576104446118b4565b600260015414610a1457600260015561045e6004356118e0565b156109d85760043584526003602052602494853560408620540361099f576001600160a01b03831615158061098d575b156109495760c4351561090e576104a482611aba565b156108d3576104b284611aba565b156108985760405160208101906104f0816104e2428b356004358791606093918352602083015260408201520190565b03601f1981018352826119c9565b51902093848652600560205260ff604087205416610843576105143a60c4356119eb565b9283156107ff57858752600560205260408720805460ff191660011790556001600160a01b038116159283156107ed575b604051956105528761197c565b6004358752893560208801526001600160a01b0390811660408089019190915291811660608801529182166080870152911660a085015260c43560c085015290151560e084015251926105a4846119ad565b60018452602036818601376105b884611a2c565b7f00000000000000000000000000000000000000000000000000000000000000006001600160a01b03169052604051906105f1826119ad565b60018252602036818401378261060683611a2c565b527f990ac04aa5504882b7bd58accf2281d60f06646ad7f62fd61ca8418dabfbdbbb602060405194610637866119ad565b600186528136818801378861064b87611a2c565b52604051908152a260018060a01b037f0000000000000000000000000000000000000000000000000000000000000000169060e060405194805160208701526020810151604087015260018060a01b03604082015116606087015260018060a01b03606082015116608087015260018060a01b0360808201511660a087015260018060a01b0360a08201511660c087015260c081015182870152015115156101009081860152845261012084019484861067ffffffffffffffff8711176107d85786975085604052823b156107d457869461079187959361077987956107686107538b9763ab9c4b5d60e01b8a523061012489015260e0610144890152610204880190611877565b61012319948588830301610164890152611a4d565b908386830301610184870152611a4d565b90306101a4850152838203016101c48401528261176b565b6101e482018390520361011f1901925af180156107c9576107b5575b506001805580f35b6107be90611999565b6102ce5780386107ad565b6040513d84823e3d90fd5b8680fd5b87634e487b7160e01b60005260416004526000fd5b6001600160a01b038316159350610545565b60405162461bcd60e51b8152602060048201526019818a01527f43616e6e6f742063616c63756c6174652067617320636f7374000000000000006044820152606490fd5b60405162461bcd60e51b8152602060048201526028818901527f466c617368206c6f616e20616c72656164792061637469766520666f722074686044820152670d2e640c4c2e8c6d60c31b6064820152608490fd5b60405162461bcd60e51b81526020600482015260148188015273151bdad95b8c881b9bdd081cdd5c1c1bdc9d195960621b6044820152606490fd5b60405162461bcd60e51b81526020600482015260148188015273151bdad95b8c481b9bdd081cdd5c1c1bdc9d195960621b6044820152606490fd5b60405162461bcd60e51b81526020600482015260148188015273496e76616c69642067617320657374696d61746560601b6044820152606490fd5b60405162461bcd60e51b8152602060048201526017818801527f496e76616c6964206d616b6572206164647265737365730000000000000000006044820152606490fd5b506001600160a01b038116151561048e565b60405162461bcd60e51b8152602060048201526012818801527124b73b30b634b21037b93232b9103830b4b960711b6044820152606490fd5b60405162461bcd60e51b81526020600482015260146024820152734f726465722070616972206e6f7420726561647960601b6044820152606490fd5b604051633ee5aeb560e01b8152600490fd5b600080fd5b50346102ce57806003193601126102ce5760405160a0810181811067ffffffffffffffff821117610bf457604052600481526080366020830137737b79995e5f793a07bc00c21412e50ecae098e7f9610a8382611a2c565b52805191600192831015610bde577394a9d9ac8a22534e3faca9f4e7f2e2cf85d5e4c86040830152815160021015610bde5773aa8e23fb1079ea71e0a56f48a2aa51851d8433d06060830152815160031015610bde5773ff34b3d4aee8ddcd6f9afffb6fe49bd371b8a3576080830152815191838301809311610bca57610b0983611a14565b92610b1760405194856119c9565b808452610b26601f1991611a14565b0136602085013781610b3784611a2c565b5281845b610b5a575b60405160208082528190610b5690820187611877565b0390f35b8151811015610bc5576001600160a01b03610b758284611a39565b5116858201808311610bb157610b8b9086611a39565b526000198114610b9d57840184610b3b565b634e487b7160e01b83526011600452602483fd5b634e487b7160e01b85526011600452602485fd5b610b40565b634e487b7160e01b82526011600452602482fd5b634e487b7160e01b600052603260045260246000fd5b634e487b7160e01b600052604160045260246000fd5b611832565b50346102ce57806003193601126102ce576020604051600a8152f35b50346102ce5760603660031901126102ce57610c456117ab565b60243590610c516117d7565b610c596118b4565b6001600160a01b03818116928315610e1f571680610ceb575050814710610ca657828080938193828215610c9d575bf115610c915780f35b604051903d90823e3d90fd5b506108fc610c88565b60405162461bcd60e51b815260206004820152601860248201527f496e73756666696369656e74204554482062616c616e636500000000000000006044820152606490fd5b6040516370a0823160e01b815230600482015260209493509091908481602481865afa8015610e145784918791610ddf575b5010610d9a5760405163a9059cbb60e01b81526001600160a01b03919091166004820152602481019290925282908290604490829087905af18015610d8f57610d6557505080f35b81610d8492903d10610d88575b610d7c81836119c9565b810190611aa2565b5080f35b503d610d72565b6040513d85823e3d90fd5b60405162461bcd60e51b815260048101859052601a60248201527f496e73756666696369656e7420746f6b656e2062616c616e63650000000000006044820152606490fd5b809250868092503d8311610e0d575b610df881836119c9565b81010312610e095783905138610d1d565b8580fd5b503d610dee565b6040513d88823e3d90fd5b60405162461bcd60e51b8152602060048201526011602482015270125b9d985b1a59081c9958da5c1a595b9d607a1b6044820152606490fd5b50346102ce5760203660031901126102ce57600435610e756118b4565b8082526002602052610e8d60ff604084205416611939565b8152600360205260408120546004602052604082209060ff199160018382541617905582526001604083209182541617905580f35b50346102ce5760203660031901126102ce5760406020916004358152600383522054604051908152f35b50346102ce5760a03660031901126102ce5767ffffffffffffffff9060043582811161145457610f20903690600401611801565b929060243582811161145057610f3a903690600401611801565b9092604435818111610e0957610f54903690600401611801565b9091610f5e6117c1565b908060843511611339573660236084350112156113395760843560040135908111611339576084350190366024830111611339577f00000000000000000000000000000000000000000000000000000000000000006001600160a01b0316330361140b57306001600160a01b03909116036113c6576001881480611382575b1561133d5761010090608435900312610e095760405194610ffd8661197c565b608435602481013587526044810135602088015261101d906064016117ed565b604087015261102f60848035016117ed565b606087015261104260a4608435016117ed565b608087015261105560c4608435016117ed565b60a087015260843560e481013560c08801526101040135801515908181036112a55760e08801526112d1575b60808601516001600160a01b031693156112bd5760209035936040518581527f9dc46f23cfb5ddcad0ae7ea2be38d47fec07bb9382ec7e564efc69e036dd66ce928391a260018060a01b0360a0870151166000916020604051878152a260e0860151611229575b611215571561120157906110fd913590611a95565b93156111ed57611173839460209261111b60018060a01b0391611a81565b60405163095ea7b360e01b81527f00000000000000000000000000000000000000000000000000000000000000006001600160a01b031660048201526024810193909352919687939190921691839182906044820190565b03925af19283156107c9576040936111ce575b50805160209182015184519283019182526040830152426060830152906111b081608081016104e2565b519020815260056020522060ff198154169055602060405160018152f35b6111e69060203d602011610d8857610d7c81836119c9565b5038611186565b634e487b7160e01b83526032600452602483fd5b634e487b7160e01b85526032600452602485fd5b634e487b7160e01b86526032600452602486fd5b87156112bd576001600160a01b0361124086611a81565b1682156112a957611252843586611a95565b90803b156112a5578890600460405180948193630d0e30db60e41b83525af1801561129a57908891611286575b50506110e8565b61128f90611999565b6107d457863861127f565b6040513d8a823e3d90fd5b8880fd5b634e487b7160e01b88526032600452602488fd5b634e487b7160e01b87526032600452602487fd5b87156112bd576001600160a01b036112e886611a81565b1684156112a957803b1561133957878091602460405180948193632e1a7d4d60e01b8352873560048401525af1801561129a57611326575b50611081565b61133290979197611999565b9538611320565b8780fd5b60405162461bcd60e51b815260206004820152601860248201527f496e76616c696420666c617368206c6f616e20617373657400000000000000006044820152606490fd5b5087156112bd5761139285611a81565b7f00000000000000000000000000000000000000000000000000000000000000006001600160a01b03908116911614610fdd565b60405162461bcd60e51b815260206004820152601c60248201527f496e76616c696420666c617368206c6f616e20696e69746961746f72000000006044820152606490fd5b60405162461bcd60e51b815260206004820152601860248201527f43616c6c6572206d757374206265204161766520506f6f6c00000000000000006044820152606490fd5b8380fd5b5080fd5b50346102ce5760203660031901126102ce5760ff60406020926004358152600584522054166040519015158152f35b50346102ce57806003193601126102ce57546040516001600160a01b039091168152602090f35b50346102ce5760203660031901126102ce5760ff60406020926004358152600484522054166040519015158152f35b50346102ce5760203660031901126102ce5760206115016114fc6117ab565b611aba565b6040519015158152f35b50346102ce57806003193601126102ce576115246118b4565b80546001600160a01b03198116825581906001600160a01b03167f8be0079c531659141344cd1fd0a4f28419497f9722a3daafe3b4186f6b6457e08280a380f35b50346102ce57806003193601126102ce576040516040810181811067ffffffffffffffff8211176115be57610b56925060405260058152640312e322e360dc1b602082015260405191829160208352602083019061176b565b634e487b7160e01b83526041600452602483fd5b50346102ce57602080600319360112611454576003600435916115f36118b4565b8284526002815261160a60ff604086205416611939565b828452818152604084205492600282526040852060ff199081815416905584865260408620818154169055818652600483526040862081815416905584865260408620908154169055845252816040812055815280604081205580f35b50346102ce5760403660031901126102ce5760206116896024356004356119eb565b604051908152f35b50346102ce5760203660031901126102ce5760206115016004356118e0565b50346102ce57806003193601126102ce576040517f00000000000000000000000000000000000000000000000000000000000000006001600160a01b03168152602090f35b50346102ce5760203660031901126102ce5761170f6118b4565b6004358152600560205260408120805460ff1916905580f35b9050346114545781600319360112611454577f00000000000000000000000000000000000000000000000000000000000000006001600160a01b03168152602090f35b919082519283825260005b848110611797575050826000602080949584010152601f8019910116010190565b602081830181015184830182015201611776565b600435906001600160a01b0382168203610a2657565b606435906001600160a01b0382168203610a2657565b604435906001600160a01b0382168203610a2657565b35906001600160a01b0382168203610a2657565b9181601f84011215610a265782359167ffffffffffffffff8311610a26576020808501948460051b010111610a2657565b34610a26576000366003190112610a26576040517f00000000000000000000000000000000000000000000000000000000000000006001600160a01b03168152602090f35b90815180825260208080930193019160005b828110611897575050505090565b83516001600160a01b031685529381019392810192600101611889565b6000546001600160a01b031633036118c857565b60405163118cdaa760e01b8152336004820152602490fd5b6000818152600260205260ff6040822054169182611918575b8261190357505090565b81526004602052604090205460ff1615919050565b9150600360205260408120548152600260205260ff604082205416916118f9565b1561194057565b60405162461bcd60e51b815260206004820152601460248201527313dc99195c881b9bdd081c9959da5cdd195c995960621b6044820152606490fd5b610100810190811067ffffffffffffffff821117610bf457604052565b67ffffffffffffffff8111610bf457604052565b6040810190811067ffffffffffffffff821117610bf457604052565b90601f8019910116810190811067ffffffffffffffff821117610bf457604052565b818102929181159184041417156119fe57565b634e487b7160e01b600052601160045260246000fd5b67ffffffffffffffff8111610bf45760051b60200190565b805115610bde5760200190565b8051821015610bde5760209160051b010190565b90815180825260208080930193019160005b828110611a6d575050505090565b835185529381019392810192600101611a5f565b356001600160a01b0381168103610a265790565b919082018092116119fe57565b90816020910312610a2657518015158103610a265790565b6001600160a01b03908116908115611ba5577f00000000000000000000000000000000000000000000000000000000000000001681148015611b88575b611b8257737b79995e5f793a07bc00c21412e50ecae098e7f98114908115611b64575b8115611b46575b8115611b2b575090565b73ff34b3d4aee8ddcd6f9afffb6fe49bd371b8a35791501490565b73aa8e23fb1079ea71e0a56f48a2aa51851d8433d081149150611b21565b7394a9d9ac8a22534e3faca9f4e7f2e2cf85d5e4c881149150611b1a565b50600190565b50737b79995e5f793a07bc00c21412e50ecae098e7f98114611af7565b505060019056fea264697066735822122065b2e3d548b732633bc47086962d226907c2550c9ed44400051bf7f167f177db64736f6c63430008140033",
  "linkReferences": {},
  "deployedLinkReferences": {}
}