{
  "_format": "hh-sol-artifact-1",
  "contractName": "GasStationExtension",
  "sourceName": "contracts/GasStationExtension.sol",
  "abi": [
    {
      "inputs": [],
      "stateMutability": "nonpayable",
      "type": "constructor"
    },
    {
      "inputs": [
        {
          "internalType": "address",
          "name": "owner",
          "type": "address"
        }
      ],
      "name": "OwnableInvalidOwner",
      "type": "error"
    },
    {
      "inputs": [
        {
          "internalType": "address",
          "name": "account",
          "type": "address"
        }
      ],
      "name": "OwnableUnauthorizedAccount",
      "type": "error"
    },
    {
      "inputs": [],
      "name": "ReentrancyGuardReentrantCall",
      "type": "error"
    },
    {
      "anonymous": false,
      "inputs": [
        {
          "indexed": true,
          "internalType": "address",
          "name": "token",
          "type": "address"
        },
        {
          "indexed": false,
          "internalType": "uint256",
          "name": "amount",
          "type": "uint256"
        }
      ],
      "name": "FeesCollected",
      "type": "event"
    },
    {
      "anonymous": false,
      "inputs": [
        {
          "indexed": true,
          "internalType": "bytes32",
          "name": "batchId",
          "type": "bytes32"
        },
        {
          "indexed": false,
          "internalType": "uint256",
          "name": "amount",
          "type": "uint256"
        }
      ],
      "name": "FlashLoanInitiated",
      "type": "event"
    },
    {
      "anonymous": false,
      "inputs": [
        {
          "indexed": true,
          "internalType": "address",
          "name": "owner",
          "type": "address"
        }
      ],
      "name": "GasStationInitialized",
      "type": "event"
    },
    {
      "anonymous": false,
      "inputs": [
        {
          "indexed": true,
          "internalType": "bytes32",
          "name": "orderHash1",
          "type": "bytes32"
        },
        {
          "indexed": true,
          "internalType": "bytes32",
          "name": "orderHash2",
          "type": "bytes32"
        }
      ],
      "name": "OrderPairRegistered",
      "type": "event"
    },
    {
      "anonymous": false,
      "inputs": [
        {
          "indexed": true,
          "internalType": "address",
          "name": "previousOwner",
          "type": "address"
        },
        {
          "indexed": true,
          "internalType": "address",
          "name": "newOwner",
          "type": "address"
        }
      ],
      "name": "OwnershipTransferred",
      "type": "event"
    },
    {
      "inputs": [],
      "name": "GAS_STATION_FEE_BASIS_POINTS",
      "outputs": [
        {
          "internalType": "uint256",
          "name": "",
          "type": "uint256"
        }
      ],
      "stateMutability": "view",
      "type": "function"
    },
    {
      "inputs": [],
      "name": "MAX_GAS_PRICE",
      "outputs": [
        {
          "internalType": "uint256",
          "name": "",
          "type": "uint256"
        }
      ],
      "stateMutability": "view",
      "type": "function"
    },
    {
      "inputs": [
        {
          "internalType": "bytes32",
          "name": "",
          "type": "bytes32"
        }
      ],
      "name": "completedPairs",
      "outputs": [
        {
          "internalType": "bool",
          "name": "",
          "type": "bool"
        }
      ],
      "stateMutability": "view",
      "type": "function"
    },
    {
      "inputs": [
        {
          "internalType": "bytes32",
          "name": "orderHash",
          "type": "bytes32"
        }
      ],
      "name": "getCounterpartOrder",
      "outputs": [
        {
          "internalType": "bytes32",
          "name": "",
          "type": "bytes32"
        }
      ],
      "stateMutability": "view",
      "type": "function"
    },
    {
      "inputs": [
        {
          "internalType": "bytes32",
          "name": "orderHash",
          "type": "bytes32"
        }
      ],
      "name": "isOrderPairReady",
      "outputs": [
        {
          "internalType": "bool",
          "name": "",
          "type": "bool"
        }
      ],
      "stateMutability": "view",
      "type": "function"
    },
    {
      "inputs": [
        {
          "internalType": "bytes32",
          "name": "orderHash",
          "type": "bytes32"
        }
      ],
      "name": "markPairCompleted",
      "outputs": [],
      "stateMutability": "nonpayable",
      "type": "function"
    },
    {
      "inputs": [
        {
          "internalType": "bytes32",
          "name": "",
          "type": "bytes32"
        }
      ],
      "name": "orderPairs",
      "outputs": [
        {
          "internalType": "bytes32",
          "name": "",
          "type": "bytes32"
        }
      ],
      "stateMutability": "view",
      "type": "function"
    },
    {
      "inputs": [],
      "name": "owner",
      "outputs": [
        {
          "internalType": "address",
          "name": "",
          "type": "address"
        }
      ],
      "stateMutability": "view",
      "type": "function"
    },
    {
      "inputs": [
        {
          "internalType": "bytes32",
          "name": "orderHash1",
          "type": "bytes32"
        },
        {
          "internalType": "bytes32",
          "name": "orderHash2",
          "type": "bytes32"
        }
      ],
      "name": "registerOrderPair",
      "outputs": [],
      "stateMutability": "nonpayable",
      "type": "function"
    },
    {
      "inputs": [
        {
          "internalType": "bytes32",
          "name": "",
          "type": "bytes32"
        }
      ],
      "name": "registeredOrders",
      "outputs": [
        {
          "internalType": "bool",
          "name": "",
          "type": "bool"
        }
      ],
      "stateMutability": "view",
      "type": "function"
    },
    {
      "inputs": [],
      "name": "renounceOwnership",
      "outputs": [],
      "stateMutability": "nonpayable",
      "type": "function"
    },
    {
      "inputs": [
        {
          "internalType": "bytes32",
          "name": "orderHash",
          "type": "bytes32"
        }
      ],
      "name": "resetOrderPair",
      "outputs": [],
      "stateMutability": "nonpayable",
      "type": "function"
    },
    {
      "inputs": [
        {
          "internalType": "address",
          "name": "newOwner",
          "type": "address"
        }
      ],
      "name": "transferOwnership",
      "outputs": [],
      "stateMutability": "nonpayable",
      "type": "function"
    },
    {
      "inputs": [],
      "name": "version",
      "outputs": [
        {
          "internalType": "string",
          "name": "",
          "type": "string"
        }
      ],
      "stateMutability": "pure",
      "type": "function"
    }
  ],
  "bytecode": "0x608060405234801561001057600080fd5b5033600073ffffffffffffffffffffffffffffffffffffffff168173ffffffffffffffffffffffffffffffffffffffff16036100845760006040517f1e4fbdf700000000000000000000000000000000000000000000000000000000815260040161007b91906101e8565b60405180910390fd5b610093816100e360201b60201c565b50600180819055503373ffffffffffffffffffffffffffffffffffffffff167f8b8be9ad2cdd0f50c147f28cc3416483d246cd9e110f6651dfe6b55d8c10d1c760405160405180910390a2610203565b60008060009054906101000a900473ffffffffffffffffffffffffffffffffffffffff169050816000806101000a81548173ffffffffffffffffffffffffffffffffffffffff021916908373ffffffffffffffffffffffffffffffffffffffff1602179055508173ffffffffffffffffffffffffffffffffffffffff168173ffffffffffffffffffffffffffffffffffffffff167f8be0079c531659141344cd1fd0a4f28419497f9722a3daafe3b4186f6b6457e060405160405180910390a35050565b600073ffffffffffffffffffffffffffffffffffffffff82169050919050565b60006101d2826101a7565b9050919050565b6101e2816101c7565b82525050565b60006020820190506101fd60008301846101d9565b92915050565b610f24806102126000396000f3fe608060405234801561001057600080fd5b50600436106100ea5760003560e01c8063a9e91b9e1161008c578063f0fb86ab11610066578063f0fb86ab14610239578063f2fde38b14610269578063f3cb4b1014610285578063f5de8bbc146102b5576100ea565b8063a9e91b9e146101e1578063c3be3603146101fd578063e3bbb4f11461021b576100ea565b8063715018a6116100c8578063715018a61461015957806383c5aa36146101635780638da5cb5b146101935780639794cc9a146101b1576100ea565b8063248d788e146100ef5780634fce04391461011f57806354fd4d501461013b575b600080fd5b61010960048036038101906101049190610ad6565b6102d1565b6040516101169190610b1e565b60405180910390f35b61013960048036038101906101349190610ad6565b610361565b005b6101436104c3565b6040516101509190610bc9565b60405180910390f35b610161610500565b005b61017d60048036038101906101789190610ad6565b610514565b60405161018a9190610b1e565b60405180910390f35b61019b610534565b6040516101a89190610c2c565b60405180910390f35b6101cb60048036038101906101c69190610ad6565b61055d565b6040516101d89190610c56565b60405180910390f35b6101fb60048036038101906101f69190610ad6565b610575565b005b610205610651565b6040516102129190610c8a565b60405180910390f35b610223610656565b6040516102309190610c8a565b60405180910390f35b610253600480360381019061024e9190610ad6565b61065f565b6040516102609190610c56565b60405180910390f35b610283600480360381019061027e9190610cd1565b6106dc565b005b61029f600480360381019061029a9190610ad6565b610762565b6040516102ac9190610b1e565b60405180910390f35b6102cf60048036038101906102ca9190610cfe565b610782565b005b60006002600083815260200190815260200160002060009054906101000a900460ff1680156103305750600260006003600085815260200190815260200160002054815260200190815260200160002060009054906101000a900460ff165b801561035a57506004600083815260200190815260200160002060009054906101000a900460ff16155b9050919050565b610369610948565b6002600082815260200190815260200160002060009054906101000a900460ff166103c9576040517f08c379a00000000000000000000000000000000000000000000000000000000081526004016103c090610d8a565b60405180910390fd5b60006003600083815260200190815260200160002054905060006002600084815260200190815260200160002060006101000a81548160ff02191690831515021790555060006002600083815260200190815260200160002060006101000a81548160ff02191690831515021790555060006004600084815260200190815260200160002060006101000a81548160ff02191690831515021790555060006004600083815260200190815260200160002060006101000a81548160ff021916908315150217905550600360008381526020019081526020016000206000905560036000828152602001908152602001600020600090555050565b60606040518060400160405280600581526020017f312e302e30000000000000000000000000000000000000000000000000000000815250905090565b610508610948565b61051260006109cf565b565b60046020528060005260406000206000915054906101000a900460ff1681565b60008060009054906101000a900473ffffffffffffffffffffffffffffffffffffffff16905090565b60036020528060005260406000206000915090505481565b61057d610948565b6002600082815260200190815260200160002060009054906101000a900460ff166105dd576040517f08c379a00000000000000000000000000000000000000000000000000000000081526004016105d490610d8a565b60405180910390fd5b60006003600083815260200190815260200160002054905060016004600084815260200190815260200160002060006101000a81548160ff02191690831515021790555060016004600083815260200190815260200160002060006101000a81548160ff0219169083151502179055505050565b600a81565b640ba43b740081565b60006002600083815260200190815260200160002060009054906101000a900460ff166106c1576040517f08c379a00000000000000000000000000000000000000000000000000000000081526004016106b890610d8a565b60405180910390fd5b60036000838152602001908152602001600020549050919050565b6106e4610948565b600073ffffffffffffffffffffffffffffffffffffffff168173ffffffffffffffffffffffffffffffffffffffff16036107565760006040517f1e4fbdf700000000000000000000000000000000000000000000000000000000815260040161074d9190610c2c565b60405180910390fd5b61075f816109cf565b50565b60026020528060005260406000206000915054906101000a900460ff1681565b61078a610948565b6002600083815260200190815260200160002060009054906101000a900460ff16156107eb576040517f08c379a00000000000000000000000000000000000000000000000000000000081526004016107e290610df6565b60405180910390fd5b6002600082815260200190815260200160002060009054906101000a900460ff161561084c576040517f08c379a000000000000000000000000000000000000000000000000000000000815260040161084390610e62565b60405180910390fd5b80820361088e576040517f08c379a000000000000000000000000000000000000000000000000000000000815260040161088590610ece565b60405180910390fd5b60016002600084815260200190815260200160002060006101000a81548160ff02191690831515021790555060016002600083815260200190815260200160002060006101000a81548160ff02191690831515021790555080600360008481526020019081526020016000208190555081600360008381526020019081526020016000208190555080827fbb4e6272308f0afad3794647b60f58d10a513484fc478b5c30be0eb683ebe1c060405160405180910390a35050565b610950610a93565b73ffffffffffffffffffffffffffffffffffffffff1661096e610534565b73ffffffffffffffffffffffffffffffffffffffff16146109cd57610991610a93565b6040517f118cdaa70000000000000000000000000000000000000000000000000000000081526004016109c49190610c2c565b60405180910390fd5b565b60008060009054906101000a900473ffffffffffffffffffffffffffffffffffffffff169050816000806101000a81548173ffffffffffffffffffffffffffffffffffffffff021916908373ffffffffffffffffffffffffffffffffffffffff1602179055508173ffffffffffffffffffffffffffffffffffffffff168173ffffffffffffffffffffffffffffffffffffffff167f8be0079c531659141344cd1fd0a4f28419497f9722a3daafe3b4186f6b6457e060405160405180910390a35050565b600033905090565b600080fd5b6000819050919050565b610ab381610aa0565b8114610abe57600080fd5b50565b600081359050610ad081610aaa565b92915050565b600060208284031215610aec57610aeb610a9b565b5b6000610afa84828501610ac1565b91505092915050565b60008115159050919050565b610b1881610b03565b82525050565b6000602082019050610b336000830184610b0f565b92915050565b600081519050919050565b600082825260208201905092915050565b60005b83811015610b73578082015181840152602081019050610b58565b60008484015250505050565b6000601f19601f8301169050919050565b6000610b9b82610b39565b610ba58185610b44565b9350610bb5818560208601610b55565b610bbe81610b7f565b840191505092915050565b60006020820190508181036000830152610be38184610b90565b905092915050565b600073ffffffffffffffffffffffffffffffffffffffff82169050919050565b6000610c1682610beb565b9050919050565b610c2681610c0b565b82525050565b6000602082019050610c416000830184610c1d565b92915050565b610c5081610aa0565b82525050565b6000602082019050610c6b6000830184610c47565b92915050565b6000819050919050565b610c8481610c71565b82525050565b6000602082019050610c9f6000830184610c7b565b92915050565b610cae81610c0b565b8114610cb957600080fd5b50565b600081359050610ccb81610ca5565b92915050565b600060208284031215610ce757610ce6610a9b565b5b6000610cf584828501610cbc565b91505092915050565b60008060408385031215610d1557610d14610a9b565b5b6000610d2385828601610ac1565b9250506020610d3485828601610ac1565b9150509250929050565b7f4f72646572206e6f742072656769737465726564000000000000000000000000600082015250565b6000610d74601483610b44565b9150610d7f82610d3e565b602082019050919050565b60006020820190508181036000830152610da381610d67565b9050919050565b7f4f726465723120616c7265616479207265676973746572656400000000000000600082015250565b6000610de0601983610b44565b9150610deb82610daa565b602082019050919050565b60006020820190508181036000830152610e0f81610dd3565b9050919050565b7f4f726465723220616c7265616479207265676973746572656400000000000000600082015250565b6000610e4c601983610b44565b9150610e5782610e16565b602082019050919050565b60006020820190508181036000830152610e7b81610e3f565b9050919050565b7f43616e6e6f742070616972206f72646572207769746820697473656c66000000600082015250565b6000610eb8601d83610b44565b9150610ec382610e82565b602082019050919050565b60006020820190508181036000830152610ee781610eab565b905091905056fea2646970667358221220acac8a2cc3c989094a2ababf8e6de9f41cc20f85caf32ec2cdc69f4e611f4e3164736f6c63430008140033",
  "linkReferences": {},
  "deployedLinkReferences": {}
}